{
  "_format": "hh-sol-artifact-1",
  "contractName": "AdminProxy",
  "sourceName": "contracts/AdminProxy.sol",
  "abi": [
    {
      "inputs": [],
      "stateMutability": "nonpayable",
      "type": "constructor"
    },
    {
      "anonymous": false,
      "inputs": [],
      "name": "ContributionsOpen",
      "type": "event"
    },
    {
      "anonymous": false,
      "inputs": [
        {
          "indexed": true,
          "internalType": "address",
          "name": "previousOwner",
          "type": "address"
        },
        {
          "indexed": true,
          "internalType": "address",
          "name": "newOwner",
          "type": "address"
        }
      ],
      "name": "OwnershipTransferred",
      "type": "event"
    },
    {
      "anonymous": false,
      "inputs": [],
      "name": "VotingOpen",
      "type": "event"
    },
    {
      "inputs": [],
      "name": "contentAddress",
      "outputs": [
        {
          "internalType": "address",
          "name": "",
          "type": "address"
        }
      ],
      "stateMutability": "view",
      "type": "function"
    },
    {
      "inputs": [],
      "name": "contentContract",
      "outputs": [
        {
          "internalType": "contract Content",
          "name": "",
          "type": "address"
        }
      ],
      "stateMutability": "view",
      "type": "function"
    },
    {
      "inputs": [],
      "name": "contributionsOpen",
      "outputs": [
        {
          "internalType": "bool",
          "name": "",
          "type": "bool"
        }
      ],
      "stateMutability": "view",
      "type": "function"
    },
    {
      "inputs": [],
      "name": "endRound",
      "outputs": [],
      "stateMutability": "nonpayable",
      "type": "function"
    },
    {
      "inputs": [],
      "name": "owner",
      "outputs": [
        {
          "internalType": "address",
          "name": "",
          "type": "address"
        }
      ],
      "stateMutability": "view",
      "type": "function"
    },
    {
      "inputs": [],
      "name": "renounceOwnership",
      "outputs": [],
      "stateMutability": "nonpayable",
      "type": "function"
    },
    {
      "inputs": [],
      "name": "startContributionPeriod",
      "outputs": [],
      "stateMutability": "nonpayable",
      "type": "function"
    },
    {
      "inputs": [],
      "name": "startVotingPeriod",
      "outputs": [],
      "stateMutability": "nonpayable",
      "type": "function"
    },
    {
      "inputs": [
        {
          "internalType": "address",
          "name": "newOwner",
          "type": "address"
        }
      ],
      "name": "transferOwnership",
      "outputs": [],
      "stateMutability": "nonpayable",
      "type": "function"
    },
    {
      "inputs": [],
      "name": "votingOpen",
      "outputs": [
        {
          "internalType": "bool",
          "name": "",
          "type": "bool"
        }
      ],
      "stateMutability": "view",
      "type": "function"
    }
  ],
  "bytecode": "0x60a06040523480156200001157600080fd5b5062000032620000266200019760201b60201c565b6200019f60201b60201c565b604051620000409062000263565b604051809103906000f0801580156200005d573d6000803e3d6000fd5b50600560006101000a81548173ffffffffffffffffffffffffffffffffffffffff021916908373ffffffffffffffffffffffffffffffffffffffff16021790555030600560009054906101000a900473ffffffffffffffffffffffffffffffffffffffff16604051620000d09062000271565b620000dd929190620002c4565b604051809103906000f080158015620000fa573d6000803e3d6000fd5b50600160006101000a81548173ffffffffffffffffffffffffffffffffffffffff021916908373ffffffffffffffffffffffffffffffffffffffff160217905550600160009054906101000a900473ffffffffffffffffffffffffffffffffffffffff1673ffffffffffffffffffffffffffffffffffffffff1660808173ffffffffffffffffffffffffffffffffffffffff1681525050620002f1565b600033905090565b60008060009054906101000a900473ffffffffffffffffffffffffffffffffffffffff169050816000806101000a81548173ffffffffffffffffffffffffffffffffffffffff021916908373ffffffffffffffffffffffffffffffffffffffff1602179055508173ffffffffffffffffffffffffffffffffffffffff168173ffffffffffffffffffffffffffffffffffffffff167f8be0079c531659141344cd1fd0a4f28419497f9722a3daafe3b4186f6b6457e060405160405180910390a35050565b610cfc806200145d83390190565b61aaab806200215983390190565b600073ffffffffffffffffffffffffffffffffffffffff82169050919050565b6000620002ac826200027f565b9050919050565b620002be816200029f565b82525050565b6000604082019050620002db6000830185620002b3565b620002ea6020830184620002b3565b9392505050565b6080516111506200030d600039600061017f01526111506000f3fe608060405234801561001057600080fd5b506004361061009e5760003560e01c80638da5cb5b116100665780638da5cb5b14610111578063a95824b41461012f578063ba555b1f1461014d578063c64482ab14610157578063f2fde38b146101615761009e565b8063129b9775146100a35780632cb7d92f146100c157806371154861146100df578063715018a6146100fd578063749aa2d914610107575b600080fd5b6100ab61017d565b6040516100b89190610b20565b60405180910390f35b6100c96101a1565b6040516100d69190610b9a565b60405180910390f35b6100e76101c7565b6040516100f49190610bd0565b60405180910390f35b6101056101da565b005b61010f610262565b005b6101196104d2565b6040516101269190610b20565b60405180910390f35b6101376104fb565b6040516101449190610bd0565b60405180910390f35b61015561050e565b005b61015f61065d565b005b61017b60048036038101906101769190610c1c565b61091b565b005b7f000000000000000000000000000000000000000000000000000000000000000081565b600160009054906101000a900473ffffffffffffffffffffffffffffffffffffffff1681565b600060149054906101000a900460ff1681565b6101e2610a13565b73ffffffffffffffffffffffffffffffffffffffff166102006104d2565b73ffffffffffffffffffffffffffffffffffffffff1614610256576040517f08c379a000000000000000000000000000000000000000000000000000000000815260040161024d90610ca6565b60405180910390fd5b6102606000610a1b565b565b61026a610a13565b73ffffffffffffffffffffffffffffffffffffffff166102886104d2565b73ffffffffffffffffffffffffffffffffffffffff16146102de576040517f08c379a00000000000000000000000000000000000000000000000000000000081526004016102d590610ca6565b60405180910390fd5b600060149054906101000a900460ff161580156103075750600060159054906101000a900460ff165b610346576040517f08c379a000000000000000000000000000000000000000000000000000000000815260040161033d90610d38565b60405180910390fd5b600560009054906101000a900473ffffffffffffffffffffffffffffffffffffffff1673ffffffffffffffffffffffffffffffffffffffff16639117bd096040518163ffffffff1660e01b815260040160206040518083038186803b1580156103ae57600080fd5b505afa1580156103c2573d6000803e3d6000fd5b505050506040513d601f19601f820116820180604052508101906103e69190610d8e565b6003546103f39190610dea565b4211610434576040517f08c379a000000000000000000000000000000000000000000000000000000000815260040161042b90610eb2565b60405180910390fd5b60008060156101000a81548160ff021916908315150217905550600160009054906101000a900473ffffffffffffffffffffffffffffffffffffffff1673ffffffffffffffffffffffffffffffffffffffff1663ccd7b04e6040518163ffffffff1660e01b8152600401600060405180830381600087803b1580156104b857600080fd5b505af11580156104cc573d6000803e3d6000fd5b50505050565b60008060009054906101000a900473ffffffffffffffffffffffffffffffffffffffff16905090565b600060159054906101000a900460ff1681565b610516610a13565b73ffffffffffffffffffffffffffffffffffffffff166105346104d2565b73ffffffffffffffffffffffffffffffffffffffff161461058a576040517f08c379a000000000000000000000000000000000000000000000000000000000815260040161058190610ca6565b60405180910390fd5b600060149054906101000a900460ff161580156105b45750600060159054906101000a900460ff16155b6105f3576040517f08c379a00000000000000000000000000000000000000000000000000000000081526004016105ea90610f44565b60405180910390fd5b6001600060146101000a81548160ff02191690831515021790555060008060156101000a81548160ff021916908315150217905550426004819055507fd2b56b98dab4b6d8724538b2afb755d67b5cd09d0645f8e8eb2fea1993986a5d60405160405180910390a1565b610665610a13565b73ffffffffffffffffffffffffffffffffffffffff166106836104d2565b73ffffffffffffffffffffffffffffffffffffffff16146106d9576040517f08c379a00000000000000000000000000000000000000000000000000000000081526004016106d090610ca6565b60405180910390fd5b600060149054906101000a900460ff1680156107025750600060159054906101000a900460ff16155b610741576040517f08c379a000000000000000000000000000000000000000000000000000000000815260040161073890610fd6565b60405180910390fd5b600560009054906101000a900473ffffffffffffffffffffffffffffffffffffffff1673ffffffffffffffffffffffffffffffffffffffff166315d5f7e96040518163ffffffff1660e01b815260040160206040518083038186803b1580156107a957600080fd5b505afa1580156107bd573d6000803e3d6000fd5b505050506040513d601f19601f820116820180604052508101906107e19190610d8e565b6004546107ee9190610dea565b421161082f576040517f08c379a000000000000000000000000000000000000000000000000000000000815260040161082690611068565b60405180910390fd5b600160009054906101000a900473ffffffffffffffffffffffffffffffffffffffff1673ffffffffffffffffffffffffffffffffffffffff16638e1138346040518163ffffffff1660e01b8152600401600060405180830381600087803b15801561089957600080fd5b505af11580156108ad573d6000803e3d6000fd5b5050505060008060146101000a81548160ff0219169083151502179055506001600060156101000a81548160ff021916908315150217905550426003819055507f8089789a86616a2428e26766961eaaa205ab084aac14a9cb98704e59af2b89e660405160405180910390a1565b610923610a13565b73ffffffffffffffffffffffffffffffffffffffff166109416104d2565b73ffffffffffffffffffffffffffffffffffffffff1614610997576040517f08c379a000000000000000000000000000000000000000000000000000000000815260040161098e90610ca6565b60405180910390fd5b600073ffffffffffffffffffffffffffffffffffffffff168173ffffffffffffffffffffffffffffffffffffffff161415610a07576040517f08c379a00000000000000000000000000000000000000000000000000000000081526004016109fe906110fa565b60405180910390fd5b610a1081610a1b565b50565b600033905090565b60008060009054906101000a900473ffffffffffffffffffffffffffffffffffffffff169050816000806101000a81548173ffffffffffffffffffffffffffffffffffffffff021916908373ffffffffffffffffffffffffffffffffffffffff1602179055508173ffffffffffffffffffffffffffffffffffffffff168173ffffffffffffffffffffffffffffffffffffffff167f8be0079c531659141344cd1fd0a4f28419497f9722a3daafe3b4186f6b6457e060405160405180910390a35050565b600073ffffffffffffffffffffffffffffffffffffffff82169050919050565b6000610b0a82610adf565b9050919050565b610b1a81610aff565b82525050565b6000602082019050610b356000830184610b11565b92915050565b6000819050919050565b6000610b60610b5b610b5684610adf565b610b3b565b610adf565b9050919050565b6000610b7282610b45565b9050919050565b6000610b8482610b67565b9050919050565b610b9481610b79565b82525050565b6000602082019050610baf6000830184610b8b565b92915050565b60008115159050919050565b610bca81610bb5565b82525050565b6000602082019050610be56000830184610bc1565b92915050565b600080fd5b610bf981610aff565b8114610c0457600080fd5b50565b600081359050610c1681610bf0565b92915050565b600060208284031215610c3257610c31610beb565b5b6000610c4084828501610c07565b91505092915050565b600082825260208201905092915050565b7f4f776e61626c653a2063616c6c6572206973206e6f7420746865206f776e6572600082015250565b6000610c90602083610c49565b9150610c9b82610c5a565b602082019050919050565b60006020820190508181036000830152610cbf81610c83565b9050919050565b7f526f756e64206d75737420656e6420616674657220766f74696e67207065726960008201527f6f64000000000000000000000000000000000000000000000000000000000000602082015250565b6000610d22602283610c49565b9150610d2d82610cc6565b604082019050919050565b60006020820190508181036000830152610d5181610d15565b9050919050565b6000819050919050565b610d6b81610d58565b8114610d7657600080fd5b50565b600081519050610d8881610d62565b92915050565b600060208284031215610da457610da3610beb565b5b6000610db284828501610d79565b91505092915050565b7f4e487b7100000000000000000000000000000000000000000000000000000000600052601160045260246000fd5b6000610df582610d58565b9150610e0083610d58565b9250827fffffffffffffffffffffffffffffffffffffffffffffffffffffffffffffffff03821115610e3557610e34610dbb565b5b828201905092915050565b7f526f756e642063616e6e6f7420656e6420756e74696c20656e64206f6620766f60008201527f74696e672074696d650000000000000000000000000000000000000000000000602082015250565b6000610e9c602983610c49565b9150610ea782610e40565b604082019050919050565b60006020820190508181036000830152610ecb81610e8f565b9050919050565b7f436f6e747269627574696f6e732063616e6e6f7420626567696e20756e74696c60008201527f206c61737420726f756e642068617320656e6465640000000000000000000000602082015250565b6000610f2e603583610c49565b9150610f3982610ed2565b604082019050919050565b60006020820190508181036000830152610f5d81610f21565b9050919050565b7f566f74696e67206d75737420626567696e20616674657220636f6e747269627560008201527f74696f6e20706572696f64000000000000000000000000000000000000000000602082015250565b6000610fc0602b83610c49565b9150610fcb82610f64565b604082019050919050565b60006020820190508181036000830152610fef81610fb3565b9050919050565b7f566f74696e672063616e6e6f7420626567696e20756e74696c20656e64206f6660008201527f20636f6e747269627574696f6e2074696d650000000000000000000000000000602082015250565b6000611052603283610c49565b915061105d82610ff6565b604082019050919050565b6000602082019050818103600083015261108181611045565b9050919050565b7f4f776e61626c653a206e6577206f776e657220697320746865207a65726f206160008201527f6464726573730000000000000000000000000000000000000000000000000000602082015250565b60006110e4602683610c49565b91506110ef82611088565b604082019050919050565b60006020820190508181036000830152611113816110d7565b905091905056fea264697066735822122003b458f9d49a41d63f190436ee177b2c70e641b952502cf577d610100e9acc5164736f6c6343000809003360a060405234801561001057600080fd5b5061002d61002261007960201b60201c565b61008160201b60201c565b6002600381905550600180819055506001600281905550662386f26fc1000060048190555067016345785d8a000060058190555062989680600681905550601460808181525050610145565b600033905090565b60008060009054906101000a900473ffffffffffffffffffffffffffffffffffffffff169050816000806101000a81548173ffffffffffffffffffffffffffffffffffffffff021916908373ffffffffffffffffffffffffffffffffffffffff1602179055508173ffffffffffffffffffffffffffffffffffffffff168173ffffffffffffffffffffffffffffffffffffffff167f8be0079c531659141344cd1fd0a4f28419497f9722a3daafe3b4186f6b6457e060405160405180910390a35050565b608051610b9c610160600039600061066d0152610b9c6000f3fe608060405234801561001057600080fd5b50600436106100f55760003560e01c8063715018a6116100975780639117bd09116100665780639117bd0914610228578063a47954bb14610246578063ebbd051714610264578063f2fde38b14610280576100f5565b8063715018a6146101c85780637184302f146101d25780637275ee9b146101ee5780638da5cb5b1461020a576100f5565b80633230d549116100d35780633230d549146101545780633a8cdb651461017257806340140c481461018e57806351e75a8b146101aa576100f5565b806315d5f7e9146100fa57806321a455c4146101185780632f42091914610136575b600080fd5b61010261029c565b60405161010f9190610929565b60405180910390f35b6101206102a2565b60405161012d9190610929565b60405180910390f35b61013e6102a8565b60405161014b9190610929565b60405180910390f35b61015c6102ae565b6040516101699190610929565b60405180910390f35b61018c60048036038101906101879190610975565b6102b4565b005b6101a860048036038101906101a39190610975565b610371565b005b6101b2610430565b6040516101bf9190610929565b60405180910390f35b6101d0610436565b005b6101ec60048036038101906101e79190610975565b6104be565b005b61020860048036038101906102039190610975565b61057d565b005b61021261063c565b60405161021f91906109e3565b60405180910390f35b610230610665565b60405161023d9190610929565b60405180910390f35b61024e61066b565b60405161025b9190610929565b60405180910390f35b61027e60048036038101906102799190610975565b61068f565b005b61029a60048036038101906102959190610a2a565b61074c565b005b60025481565b60035481565b60065481565b60045481565b6102bc610844565b73ffffffffffffffffffffffffffffffffffffffff166102da61063c565b73ffffffffffffffffffffffffffffffffffffffff1614610330576040517f08c379a000000000000000000000000000000000000000000000000000000000815260040161032790610ab4565b60405180910390fd5b806002819055507f80b0f055593848ff65135150efc98d3945c2f2a132eb9e4b7a81696a72cd0001816040516103669190610929565b60405180910390a150565b610379610844565b73ffffffffffffffffffffffffffffffffffffffff1661039761063c565b73ffffffffffffffffffffffffffffffffffffffff16146103ed576040517f08c379a00000000000000000000000000000000000000000000000000000000081526004016103e490610ab4565b60405180910390fd5b806005819055507fc907b159b3ab953a9e54ac7bd5dce2bf6745664a92ac1ca0d21dda07ce052e2a6005546040516104259190610929565b60405180910390a150565b60055481565b61043e610844565b73ffffffffffffffffffffffffffffffffffffffff1661045c61063c565b73ffffffffffffffffffffffffffffffffffffffff16146104b2576040517f08c379a00000000000000000000000000000000000000000000000000000000081526004016104a990610ab4565b60405180910390fd5b6104bc600061084c565b565b6104c6610844565b73ffffffffffffffffffffffffffffffffffffffff166104e461063c565b73ffffffffffffffffffffffffffffffffffffffff161461053a576040517f08c379a000000000000000000000000000000000000000000000000000000000815260040161053190610ab4565b60405180910390fd5b806004819055507f8de4e09146330265d90dc43c484b706c38da69d576ee558a530dc144a3eb4bc76004546040516105729190610929565b60405180910390a150565b610585610844565b73ffffffffffffffffffffffffffffffffffffffff166105a361063c565b73ffffffffffffffffffffffffffffffffffffffff16146105f9576040517f08c379a00000000000000000000000000000000000000000000000000000000081526004016105f090610ab4565b60405180910390fd5b806006819055507f2452fcc6b5b09a25f18d7a95a3968c84a78d98aa87f7dc49fe76c83a36ab69fa6006546040516106319190610929565b60405180910390a150565b60008060009054906101000a900473ffffffffffffffffffffffffffffffffffffffff16905090565b60015481565b7f000000000000000000000000000000000000000000000000000000000000000081565b610697610844565b73ffffffffffffffffffffffffffffffffffffffff166106b561063c565b73ffffffffffffffffffffffffffffffffffffffff161461070b576040517f08c379a000000000000000000000000000000000000000000000000000000000815260040161070290610ab4565b60405180910390fd5b806001819055507fa1f814123f839834f7de198e1a5ec961e26474d2cb72b82cdf94309e59905dc8816040516107419190610929565b60405180910390a150565b610754610844565b73ffffffffffffffffffffffffffffffffffffffff1661077261063c565b73ffffffffffffffffffffffffffffffffffffffff16146107c8576040517f08c379a00000000000000000000000000000000000000000000000000000000081526004016107bf90610ab4565b60405180910390fd5b600073ffffffffffffffffffffffffffffffffffffffff168173ffffffffffffffffffffffffffffffffffffffff161415610838576040517f08c379a000000000000000000000000000000000000000000000000000000000815260040161082f90610b46565b60405180910390fd5b6108418161084c565b50565b600033905090565b60008060009054906101000a900473ffffffffffffffffffffffffffffffffffffffff169050816000806101000a81548173ffffffffffffffffffffffffffffffffffffffff021916908373ffffffffffffffffffffffffffffffffffffffff1602179055508173ffffffffffffffffffffffffffffffffffffffff168173ffffffffffffffffffffffffffffffffffffffff167f8be0079c531659141344cd1fd0a4f28419497f9722a3daafe3b4186f6b6457e060405160405180910390a35050565b6000819050919050565b61092381610910565b82525050565b600060208201905061093e600083018461091a565b92915050565b600080fd5b61095281610910565b811461095d57600080fd5b50565b60008135905061096f81610949565b92915050565b60006020828403121561098b5761098a610944565b5b600061099984828501610960565b91505092915050565b600073ffffffffffffffffffffffffffffffffffffffff82169050919050565b60006109cd826109a2565b9050919050565b6109dd816109c2565b82525050565b60006020820190506109f860008301846109d4565b92915050565b610a07816109c2565b8114610a1257600080fd5b50565b600081359050610a24816109fe565b92915050565b600060208284031215610a4057610a3f610944565b5b6000610a4e84828501610a15565b91505092915050565b600082825260208201905092915050565b7f4f776e61626c653a2063616c6c6572206973206e6f7420746865206f776e6572600082015250565b6000610a9e602083610a57565b9150610aa982610a68565b602082019050919050565b60006020820190508181036000830152610acd81610a91565b9050919050565b7f4f776e61626c653a206e6577206f776e657220697320746865207a65726f206160008201527f6464726573730000000000000000000000000000000000000000000000000000602082015250565b6000610b30602683610a57565b9150610b3b82610ad4565b604082019050919050565b60006020820190508181036000830152610b5f81610b23565b905091905056fea2646970667358221220872843e1d220309512d3a220d0f58d178d3bc0b861db07d33868fe984114b26264736f6c6343000809003361010060405260016008553480156200001757600080fd5b506040516200aaab3803806200aaab83398181016040528101906200003d9190620004d7565b604051806020016040528060008152506200005e81620002b760201b60201c565b506200007f62000073620002d360201b60201c565b620002db60201b60201c565b6040516200008d90620003a1565b604051809103906000f080158015620000aa573d6000803e3d6000fd5b5073ffffffffffffffffffffffffffffffffffffffff1660c08173ffffffffffffffffffffffffffffffffffffffff168152505060c051600760006101000a81548173ffffffffffffffffffffffffffffffffffffffff021916908373ffffffffffffffffffffffffffffffffffffffff1602179055508073ffffffffffffffffffffffffffffffffffffffff1660a08173ffffffffffffffffffffffffffffffffffffffff168152505060a051600660006101000a81548173ffffffffffffffffffffffffffffffffffffffff021916908373ffffffffffffffffffffffffffffffffffffffff1602179055508173ffffffffffffffffffffffffffffffffffffffff1660808173ffffffffffffffffffffffffffffffffffffffff1681525050604051620001da90620003af565b604051809103906000f080158015620001f7573d6000803e3d6000fd5b5073ffffffffffffffffffffffffffffffffffffffff1660e08173ffffffffffffffffffffffffffffffffffffffff168152505060e051600560006101000a81548173ffffffffffffffffffffffffffffffffffffffff021916908373ffffffffffffffffffffffffffffffffffffffff16021790555030600460006101000a81548173ffffffffffffffffffffffffffffffffffffffff021916908373ffffffffffffffffffffffffffffffffffffffff160217905550505062000583565b8060029080519060200190620002cf929190620003bd565b5050565b600033905090565b6000600360009054906101000a900473ffffffffffffffffffffffffffffffffffffffff16905081600360006101000a81548173ffffffffffffffffffffffffffffffffffffffff021916908373ffffffffffffffffffffffffffffffffffffffff1602179055508173ffffffffffffffffffffffffffffffffffffffff168173ffffffffffffffffffffffffffffffffffffffff167f8be0079c531659141344cd1fd0a4f28419497f9722a3daafe3b4186f6b6457e060405160405180910390a35050565b61217980620063af83390190565b612583806200852883390190565b828054620003cb906200054d565b90600052602060002090601f016020900481019282620003ef57600085556200043b565b82601f106200040a57805160ff19168380011785556200043b565b828001600101855582156200043b579182015b828111156200043a5782518255916020019190600101906200041d565b5b5090506200044a91906200044e565b5090565b5b80821115620004695760008160009055506001016200044f565b5090565b600080fd5b600073ffffffffffffffffffffffffffffffffffffffff82169050919050565b60006200049f8262000472565b9050919050565b620004b18162000492565b8114620004bd57600080fd5b50565b600081519050620004d181620004a6565b92915050565b60008060408385031215620004f157620004f06200046d565b5b60006200050185828601620004c0565b92505060206200051485828601620004c0565b9150509250929050565b7f4e487b7100000000000000000000000000000000000000000000000000000000600052602260045260246000fd5b600060028204905060018216806200056657607f821691505b602082108114156200057d576200057c6200051e565b5b50919050565b60805160a05160c05160e051615d7b6200063460003960008181610bfa01528181610cdf01528181610d960152818161109c0152612e150152600081816111930152818161127e015281816115ac01528181611e9601528181611f230152818161208201528181612c460152612cfa015260008181610917015281816109f701528181610ad70152610e9e015260008181610f7b0152818161143c01528181611c9f0152611d7d0152615d7b6000f3fe60806040526004361061019b5760003560e01c80634e65501e116100ec578063bc197c811161008a578063e985e9c511610064578063e985e9c5146105bf578063f23a6e61146105fc578063f242432a14610639578063f2fde38b146106625761019b565b8063bc197c8114610540578063bfff4e4c1461057d578063ccd7b04e146105a85761019b565b806384a9312d116100c657806384a9312d146104aa5780638da5cb5b146104d55780638e11383414610500578063a22cb465146105175761019b565b80634e65501e14610419578063715018a6146104565780637b8a96bc1461046d5761019b565b806316c920161161015957806336b79ae01161013357806336b79ae01461035d57806340373c8614610386578063421e108c146103b15780634e1273f4146103dc5761019b565b806316c92016146102db5780631f8d78cd146103185780632eb2c2d6146103345761019b565b8062fdd58e146101a057806301ffc9a7146101dd5780630e89341c1461021a57806311e5ffbd14610257578063129b977514610294578063140ce034146102bf575b600080fd5b3480156101ac57600080fd5b506101c760048036038101906101c2919061379d565b61068b565b6040516101d491906137ec565b60405180910390f35b3480156101e957600080fd5b5061020460048036038101906101ff919061385f565b610754565b60405161021191906138a7565b60405180910390f35b34801561022657600080fd5b50610241600480360381019061023c91906138c2565b610836565b60405161024e9190613988565b60405180910390f35b34801561026357600080fd5b5061027e600480360381019061027991906139aa565b6108ca565b60405161028b91906137ec565b60405180910390f35b3480156102a057600080fd5b506102a96108ef565b6040516102b691906139f9565b60405180910390f35b6102d960048036038101906102d49190613b49565b610915565b005b3480156102e757600080fd5b5061030260048036038101906102fd91906138c2565b610f59565b60405161030f91906138a7565b60405180910390f35b610332600480360381019061032d9190613bfc565b610f79565b005b34801561034057600080fd5b5061035b60048036038101906103569190613d20565b61134c565b005b34801561036957600080fd5b50610384600480360381019061037f9190613e1b565b6113ed565b005b34801561039257600080fd5b5061039b61170c565b6040516103a891906139f9565b60405180910390f35b3480156103bd57600080fd5b506103c6611732565b6040516103d391906139f9565b60405180910390f35b3480156103e857600080fd5b5061040360048036038101906103fe9190613f45565b611758565b604051610410919061407b565b60405180910390f35b34801561042557600080fd5b50610440600480360381019061043b91906138c2565b611871565b60405161044d91906140f2565b60405180910390f35b34801561046257600080fd5b5061046b611911565b005b34801561047957600080fd5b50610494600480360381019061048f9190614114565b611999565b6040516104a191906139f9565b60405180910390f35b3480156104b657600080fd5b506104bf6119e7565b6040516104cc91906139f9565b60405180910390f35b3480156104e157600080fd5b506104ea611a0d565b6040516104f791906139f9565b60405180910390f35b34801561050c57600080fd5b50610515611a37565b005b34801561052357600080fd5b5061053e60048036038101906105399190614154565b611bf7565b005b34801561054c57600080fd5b5061056760048036038101906105629190614245565b611c0d565b6040516105749190614330565b60405180910390f35b34801561058957600080fd5b50610592611c1b565b60405161059f91906137ec565b60405180910390f35b3480156105b457600080fd5b506105bd611c21565b005b3480156105cb57600080fd5b506105e660048036038101906105e1919061434b565b612123565b6040516105f391906138a7565b60405180910390f35b34801561060857600080fd5b50610623600480360381019061061e919061438b565b6121b7565b6040516106309190614330565b60405180910390f35b34801561064557600080fd5b50610660600480360381019061065b9190614425565b612209565b005b34801561066e57600080fd5b50610689600480360381019061068491906144bc565b6122aa565b005b60008073ffffffffffffffffffffffffffffffffffffffff168373ffffffffffffffffffffffffffffffffffffffff1614156106fc576040517f08c379a00000000000000000000000000000000000000000000000000000000081526004016106f39061455b565b60405180910390fd5b60008083815260200190815260200160002060008473ffffffffffffffffffffffffffffffffffffffff1673ffffffffffffffffffffffffffffffffffffffff16815260200190815260200160002054905092915050565b60007fd9b67a26000000000000000000000000000000000000000000000000000000007bffffffffffffffffffffffffffffffffffffffffffffffffffffffff1916827bffffffffffffffffffffffffffffffffffffffffffffffffffffffff1916148061081f57507f0e89341c000000000000000000000000000000000000000000000000000000007bffffffffffffffffffffffffffffffffffffffffffffffffffffffff1916827bffffffffffffffffffffffffffffffffffffffffffffffffffffffff1916145b8061082f575061082e826123a2565b5b9050919050565b606060028054610845906145aa565b80601f0160208091040260200160405190810160405280929190818152602001828054610871906145aa565b80156108be5780601f10610893576101008083540402835291602001916108be565b820191906000526020600020905b8154815290600101906020018083116108a157829003601f168201915b50505050509050919050565b600c602052816000526040600020602052806000526040600020600091509150505481565b600460009054906101000a900473ffffffffffffffffffffffffffffffffffffffff1681565b7f000000000000000000000000000000000000000000000000000000000000000073ffffffffffffffffffffffffffffffffffffffff16633230d5496040518163ffffffff1660e01b815260040160206040518083038186803b15801561097b57600080fd5b505afa15801561098f573d6000803e3d6000fd5b505050506040513d601f19601f820116820180604052508101906109b391906145f1565b8210156109f5576040517f08c379a00000000000000000000000000000000000000000000000000000000081526004016109ec9061466a565b60405180910390fd5b7f000000000000000000000000000000000000000000000000000000000000000073ffffffffffffffffffffffffffffffffffffffff166351e75a8b6040518163ffffffff1660e01b815260040160206040518083038186803b158015610a5b57600080fd5b505afa158015610a6f573d6000803e3d6000fd5b505050506040513d601f19601f82011682018060405250810190610a9391906145f1565b341015610ad5576040517f08c379a0000000000000000000000000000000000000000000000000000000008152600401610acc906146d6565b60405180910390fd5b7f000000000000000000000000000000000000000000000000000000000000000073ffffffffffffffffffffffffffffffffffffffff16632f4209196040518163ffffffff1660e01b815260040160206040518083038186803b158015610b3b57600080fd5b505afa158015610b4f573d6000803e3d6000fd5b505050506040513d601f19601f82011682018060405250810190610b7391906145f1565b841015610bb5576040517f08c379a0000000000000000000000000000000000000000000000000000000008152600401610bac90614742565b60405180910390fd5b83831115610bf8576040517f08c379a0000000000000000000000000000000000000000000000000000000008152600401610bef906147d4565b60405180910390fd5b7f000000000000000000000000000000000000000000000000000000000000000073ffffffffffffffffffffffffffffffffffffffff166371fe953d866001600854610c449190614823565b8787876040518663ffffffff1660e01b8152600401610c67959493929190614857565b600060405180830381600087803b158015610c8157600080fd5b505af1158015610c95573d6000803e3d6000fd5b50505050610cca600460009054906101000a900473ffffffffffffffffffffffffffffffffffffffff1660085460018461240c565b610e55336001600854610cdd9190614823565b7f000000000000000000000000000000000000000000000000000000000000000073ffffffffffffffffffffffffffffffffffffffff16639037e4076001600854610d289190614823565b6040518263ffffffff1660e01b8152600401610d4491906137ec565b60206040518083038186803b158015610d5c57600080fd5b505afa158015610d70573d6000803e3d6000fd5b505050506040513d601f19601f82011682018060405250810190610d9491906145f1565b7f000000000000000000000000000000000000000000000000000000000000000073ffffffffffffffffffffffffffffffffffffffff16637b78bd3f6001600854610ddf9190614823565b6040518263ffffffff1660e01b8152600401610dfb91906137ec565b60006040518083038186803b158015610e1357600080fd5b505afa158015610e27573d6000803e3d6000fd5b505050506040513d6000823e3d601f19601f82011682018060405250810190610e509190614921565b6125a2565b7fa609ac751607689b5174c45e554eaded8d9e7d0b8f2243dbbcd7c8863371948f6001600854610e859190614823565b33604051610e9492919061496a565b60405180910390a17f000000000000000000000000000000000000000000000000000000000000000073ffffffffffffffffffffffffffffffffffffffff166321a455c46040518163ffffffff1660e01b815260040160206040518083038186803b158015610f0257600080fd5b505afa158015610f16573d6000803e3d6000fd5b505050506040513d601f19601f82011682018060405250810190610f3a91906145f1565b60086000828254610f4b9190614993565b925050819055505050505050565b600a6020528060005260406000206000915054906101000a900460ff1681565b7f000000000000000000000000000000000000000000000000000000000000000073ffffffffffffffffffffffffffffffffffffffff1663711548616040518163ffffffff1660e01b815260040160206040518083038186803b158015610fdf57600080fd5b505afa158015610ff3573d6000803e3d6000fd5b505050506040513d601f19601f8201168201806040525081019061101791906149fe565b611056576040517f08c379a000000000000000000000000000000000000000000000000000000000815260040161104d90614a9d565b60405180910390fd5b600854811061109a576040517f08c379a000000000000000000000000000000000000000000000000000000000815260040161109190614b09565b60405180910390fd5b7f000000000000000000000000000000000000000000000000000000000000000073ffffffffffffffffffffffffffffffffffffffff1663b2d81b8d6001836110e39190614823565b6040518263ffffffff1660e01b81526004016110ff91906137ec565b60206040518083038186803b15801561111757600080fd5b505afa15801561112b573d6000803e3d6000fd5b505050506040513d601f19601f8201168201806040525081019061114f91906145f1565b341015611191576040517f08c379a000000000000000000000000000000000000000000000000000000000815260040161118890614b9b565b60405180910390fd5b7f000000000000000000000000000000000000000000000000000000000000000073ffffffffffffffffffffffffffffffffffffffff1663712023ed33836040518363ffffffff1660e01b81526004016111ec929190614bbb565b60206040518083038186803b15801561120457600080fd5b505afa158015611218573d6000803e3d6000fd5b505050506040513d601f19601f8201168201806040525081019061123c91906149fe565b1561127c576040517f08c379a000000000000000000000000000000000000000000000000000000000815260040161127390614c7c565b60405180910390fd5b7f000000000000000000000000000000000000000000000000000000000000000073ffffffffffffffffffffffffffffffffffffffff16636f1ea804838333346040518563ffffffff1660e01b81526004016112db9493929190614c9c565b600060405180830381600087803b1580156112f557600080fd5b505af1158015611309573d6000803e3d6000fd5b505050507f2064f4e53d6cd6d05d4b4f039c702aa7ef2a7220a77126c45c4371dfb1f7ca8633823460405161134093929190614ce8565b60405180910390a15050565b611354612677565b73ffffffffffffffffffffffffffffffffffffffff168573ffffffffffffffffffffffffffffffffffffffff16148061139a575061139985611394612677565b612123565b5b6113d9576040517f08c379a00000000000000000000000000000000000000000000000000000000081526004016113d090614d91565b60405180910390fd5b6113e6858585858561267f565b5050505050565b8060006113fa338361068b565b1161143a576040517f08c379a000000000000000000000000000000000000000000000000000000000815260040161143190614e23565b60405180910390fd5b7f000000000000000000000000000000000000000000000000000000000000000073ffffffffffffffffffffffffffffffffffffffff1663a95824b46040518163ffffffff1660e01b815260040160206040518083038186803b1580156114a057600080fd5b505afa1580156114b4573d6000803e3d6000fd5b505050506040513d601f19601f820116820180604052508101906114d891906149fe565b611517576040517f08c379a000000000000000000000000000000000000000000000000000000000815260040161150e90614e8f565b60405180910390fd5b600c600083815260200190815260200160002060003373ffffffffffffffffffffffffffffffffffffffff1673ffffffffffffffffffffffffffffffffffffffff168152602001908152602001600020548411156115aa576040517f08c379a00000000000000000000000000000000000000000000000000000000081526004016115a190614efb565b60405180910390fd5b7f000000000000000000000000000000000000000000000000000000000000000073ffffffffffffffffffffffffffffffffffffffff1663182983a28686866001876115f69190614993565b6040518563ffffffff1660e01b81526004016116159493929190614f1b565b600060405180830381600087803b15801561162f57600080fd5b505af1158015611643573d6000803e3d6000fd5b5050505060028461165491906150a0565b600c600084815260200190815260200160002060003373ffffffffffffffffffffffffffffffffffffffff1673ffffffffffffffffffffffffffffffffffffffff16815260200190815260200160002060008282546116b39190614823565b925050819055507ffc3d96492ee0868f630e39b70772f85e95ae6c91df8fafedc9eeeb86fffd317e338686866001876116ec9190614993565b6040516116fd9594939291906150eb565b60405180910390a15050505050565b600660009054906101000a900473ffffffffffffffffffffffffffffffffffffffff1681565b600560009054906101000a900473ffffffffffffffffffffffffffffffffffffffff1681565b6060815183511461179e576040517f08c379a0000000000000000000000000000000000000000000000000000000008152600401611795906151b0565b60405180910390fd5b6000835167ffffffffffffffff8111156117bb576117ba613a1e565b5b6040519080825280602002602001820160405280156117e95781602001602082028036833780820191505090505b50905060005b84518110156118665761183685828151811061180e5761180d6151d0565b5b6020026020010151858381518110611829576118286151d0565b5b602002602001015161068b565b828281518110611849576118486151d0565b5b6020026020010181815250508061185f906151ff565b90506117ef565b508091505092915050565b60096020528060005260406000206000915090508054611890906145aa565b80601f01602080910402602001604051908101604052809291908181526020018280546118bc906145aa565b80156119095780601f106118de57610100808354040283529160200191611909565b820191906000526020600020905b8154815290600101906020018083116118ec57829003601f168201915b505050505081565b611919612677565b73ffffffffffffffffffffffffffffffffffffffff16611937611a0d565b73ffffffffffffffffffffffffffffffffffffffff161461198d576040517f08c379a000000000000000000000000000000000000000000000000000000000815260040161198490615294565b60405180910390fd5b6119976000612993565b565b600b60205281600052604060002081815481106119b557600080fd5b906000526020600020016000915091509054906101000a900473ffffffffffffffffffffffffffffffffffffffff1681565b600760009054906101000a900473ffffffffffffffffffffffffffffffffffffffff1681565b6000600360009054906101000a900473ffffffffffffffffffffffffffffffffffffffff16905090565b611a3f612677565b73ffffffffffffffffffffffffffffffffffffffff16611a5d611a0d565b73ffffffffffffffffffffffffffffffffffffffff1614611ab3576040517f08c379a0000000000000000000000000000000000000000000000000000000008152600401611aaa90615294565b60405180910390fd5b60005b600854811015611bc85760005b600b600083815260200190815260200160002080549050811015611bb3576000600b60008481526020019081526020016000208281548110611b0857611b076151d0565b5b9060005260206000200160009054906101000a900473ffffffffffffffffffffffffffffffffffffffff1690506002611b41828561068b565b611b4b91906150a0565b600c600085815260200190815260200160002060008373ffffffffffffffffffffffffffffffffffffffff1673ffffffffffffffffffffffffffffffffffffffff16815260200190815260200160002081905550508080611bab906151ff565b915050611ac3565b50600281611bc19190614993565b9050611ab6565b507f856dc14686aa00737e95d2d734cc40eeaafb38e23a9142e576d7881adae958e260405160405180910390a1565b611c09611c02612677565b8383612a59565b5050565b600098975050505050505050565b60085481565b611c29612677565b73ffffffffffffffffffffffffffffffffffffffff16611c47611a0d565b73ffffffffffffffffffffffffffffffffffffffff1614611c9d576040517f08c379a0000000000000000000000000000000000000000000000000000000008152600401611c9490615294565b60405180910390fd5b7f000000000000000000000000000000000000000000000000000000000000000073ffffffffffffffffffffffffffffffffffffffff1663a95824b46040518163ffffffff1660e01b815260040160206040518083038186803b158015611d0357600080fd5b505afa158015611d17573d6000803e3d6000fd5b505050506040513d601f19601f82011682018060405250810190611d3b91906149fe565b15611d7b576040517f08c379a0000000000000000000000000000000000000000000000000000000008152600401611d7290615300565b60405180910390fd5b7f000000000000000000000000000000000000000000000000000000000000000073ffffffffffffffffffffffffffffffffffffffff1663711548616040518163ffffffff1660e01b815260040160206040518083038186803b158015611de157600080fd5b505afa158015611df5573d6000803e3d6000fd5b505050506040513d601f19601f82011682018060405250810190611e1991906149fe565b15611e59576040517f08c379a0000000000000000000000000000000000000000000000000000000008152600401611e509061536c565b60405180910390fd5b6000600190505b6000611e8e600460009054906101000a900473ffffffffffffffffffffffffffffffffffffffff168361068b565b1115612120577f000000000000000000000000000000000000000000000000000000000000000073ffffffffffffffffffffffffffffffffffffffff16634d318b0e826040518263ffffffff1660e01b8152600401611eed91906137ec565b600060405180830381600087803b158015611f0757600080fd5b505af1158015611f1b573d6000803e3d6000fd5b5050505060007f000000000000000000000000000000000000000000000000000000000000000073ffffffffffffffffffffffffffffffffffffffff1663efe43338836040518263ffffffff1660e01b8152600401611f7a91906137ec565b60206040518083038186803b158015611f9257600080fd5b505afa158015611fa6573d6000803e3d6000fd5b505050506040513d601f19601f82011682018060405250810190611fca91906153a1565b9050600073ffffffffffffffffffffffffffffffffffffffff168173ffffffffffffffffffffffffffffffffffffffff16146120485761200a8282612bc6565b7f8d511c583493088fc8d8e4c8e5ae0269cbe8211be1714065e49166e7f04b698f828260405161203b92919061496a565b60405180910390a1612080565b7fda296beb22d6e14ae09fe0e95cd0d2091e17b1d83f03e284cf19836447dff6c28260405161207791906137ec565b60405180910390a15b7f000000000000000000000000000000000000000000000000000000000000000073ffffffffffffffffffffffffffffffffffffffff166387bd4520836040518263ffffffff1660e01b81526004016120d991906137ec565b600060405180830381600087803b1580156120f357600080fd5b505af1158015612107573d6000803e3d6000fd5b505050506002826121189190614993565b915050611e60565b50565b6000600160008473ffffffffffffffffffffffffffffffffffffffff1673ffffffffffffffffffffffffffffffffffffffff16815260200190815260200160002060008373ffffffffffffffffffffffffffffffffffffffff1673ffffffffffffffffffffffffffffffffffffffff16815260200190815260200160002060009054906101000a900460ff16905092915050565b600082826009600088815260200190815260200160002091906121db9291906135cc565b507ff23a6e612e1ff4830e658fe43f4e3cb4a5f8170bd5d9e69fb5d7a7fa9e4fdf9790509695505050505050565b612211612677565b73ffffffffffffffffffffffffffffffffffffffff168573ffffffffffffffffffffffffffffffffffffffff161480612257575061225685612251612677565b612123565b5b612296576040517f08c379a000000000000000000000000000000000000000000000000000000000815260040161228d90615440565b60405180910390fd5b6122a38585858585612ee7565b5050505050565b6122b2612677565b73ffffffffffffffffffffffffffffffffffffffff166122d0611a0d565b73ffffffffffffffffffffffffffffffffffffffff1614612326576040517f08c379a000000000000000000000000000000000000000000000000000000000815260040161231d90615294565b60405180910390fd5b600073ffffffffffffffffffffffffffffffffffffffff168173ffffffffffffffffffffffffffffffffffffffff161415612396576040517f08c379a000000000000000000000000000000000000000000000000000000000815260040161238d906154d2565b60405180910390fd5b61239f81612993565b50565b60007f01ffc9a7000000000000000000000000000000000000000000000000000000007bffffffffffffffffffffffffffffffffffffffffffffffffffffffff1916827bffffffffffffffffffffffffffffffffffffffffffffffffffffffff1916149050919050565b600073ffffffffffffffffffffffffffffffffffffffff168473ffffffffffffffffffffffffffffffffffffffff16141561247c576040517f08c379a000000000000000000000000000000000000000000000000000000000815260040161247390615564565b60405180910390fd5b6000612486612677565b90506124a78160008761249888613169565b6124a188613169565b876131e3565b8260008086815260200190815260200160002060008773ffffffffffffffffffffffffffffffffffffffff1673ffffffffffffffffffffffffffffffffffffffff16815260200190815260200160002060008282546125069190614993565b925050819055508473ffffffffffffffffffffffffffffffffffffffff16600073ffffffffffffffffffffffffffffffffffffffff168273ffffffffffffffffffffffffffffffffffffffff167fc3d58168c5ae7397731d063d5bbf3d657854427343f4c083240f7aacaa2d0f628787604051612584929190615584565b60405180910390a461259b816000878787876131eb565b5050505050565b60006002846125b191906155dc565b146125f1576040517f08c379a00000000000000000000000000000000000000000000000000000000081526004016125e890615659565b60405180910390fd5b6125fd8484848461240c565b600b6000848152602001908152602001600020849080600181540180825580915050600190039060005260206000200160009091909190916101000a81548173ffffffffffffffffffffffffffffffffffffffff021916908373ffffffffffffffffffffffffffffffffffffffff16021790555050505050565b600033905090565b81518351146126c3576040517f08c379a00000000000000000000000000000000000000000000000000000000081526004016126ba906156eb565b60405180910390fd5b600073ffffffffffffffffffffffffffffffffffffffff168473ffffffffffffffffffffffffffffffffffffffff161415612733576040517f08c379a000000000000000000000000000000000000000000000000000000000815260040161272a9061577d565b60405180910390fd5b600061273d612677565b905061274d8187878787876131e3565b60005b84518110156128fe57600085828151811061276e5761276d6151d0565b5b60200260200101519050600085838151811061278d5761278c6151d0565b5b60200260200101519050600080600084815260200190815260200160002060008b73ffffffffffffffffffffffffffffffffffffffff1673ffffffffffffffffffffffffffffffffffffffff1681526020019081526020016000205490508181101561282e576040517f08c379a00000000000000000000000000000000000000000000000000000000081526004016128259061580f565b60405180910390fd5b81810360008085815260200190815260200160002060008c73ffffffffffffffffffffffffffffffffffffffff1673ffffffffffffffffffffffffffffffffffffffff168152602001908152602001600020819055508160008085815260200190815260200160002060008b73ffffffffffffffffffffffffffffffffffffffff1673ffffffffffffffffffffffffffffffffffffffff16815260200190815260200160002060008282546128e39190614993565b92505081905550505050806128f7906151ff565b9050612750565b508473ffffffffffffffffffffffffffffffffffffffff168673ffffffffffffffffffffffffffffffffffffffff168273ffffffffffffffffffffffffffffffffffffffff167f4a39dc06d4c0dbc64b70af90fd698a233a518aa5d07e595d983b8c0526c8f7fb878760405161297592919061582f565b60405180910390a461298b8187878787876133d2565b505050505050565b6000600360009054906101000a900473ffffffffffffffffffffffffffffffffffffffff16905081600360006101000a81548173ffffffffffffffffffffffffffffffffffffffff021916908373ffffffffffffffffffffffffffffffffffffffff1602179055508173ffffffffffffffffffffffffffffffffffffffff168173ffffffffffffffffffffffffffffffffffffffff167f8be0079c531659141344cd1fd0a4f28419497f9722a3daafe3b4186f6b6457e060405160405180910390a35050565b8173ffffffffffffffffffffffffffffffffffffffff168373ffffffffffffffffffffffffffffffffffffffff161415612ac8576040517f08c379a0000000000000000000000000000000000000000000000000000000008152600401612abf906158d8565b60405180910390fd5b80600160008573ffffffffffffffffffffffffffffffffffffffff1673ffffffffffffffffffffffffffffffffffffffff16815260200190815260200160002060008473ffffffffffffffffffffffffffffffffffffffff1673ffffffffffffffffffffffffffffffffffffffff16815260200190815260200160002060006101000a81548160ff0219169083151502179055508173ffffffffffffffffffffffffffffffffffffffff168373ffffffffffffffffffffffffffffffffffffffff167f17307eab39ab6107e8899845ad3d59bd9653f200f220920489ca2b5937696c3183604051612bb991906138a7565b60405180910390a3505050565b612bce612677565b73ffffffffffffffffffffffffffffffffffffffff16612bec611a0d565b73ffffffffffffffffffffffffffffffffffffffff1614612c42576040517f08c379a0000000000000000000000000000000000000000000000000000000008152600401612c3990615294565b60405180910390fd5b60007f000000000000000000000000000000000000000000000000000000000000000073ffffffffffffffffffffffffffffffffffffffff166362a4321c83856040518363ffffffff1660e01b8152600401612c9f929190614bbb565b60006040518083038186803b158015612cb757600080fd5b505afa158015612ccb573d6000803e3d6000fd5b505050506040513d6000823e3d601f19601f82011682018060405250810190612cf49190614921565b905060007f000000000000000000000000000000000000000000000000000000000000000073ffffffffffffffffffffffffffffffffffffffff1663449e815d84866040518363ffffffff1660e01b8152600401612d53929190614bbb565b60206040518083038186803b158015612d6b57600080fd5b505afa158015612d7f573d6000803e3d6000fd5b505050506040513d601f19601f82011682018060405250810190612da391906145f1565b90506009600085815260200190815260200160002082604051602001612dca9291906159ee565b604051602081830303815290604052600960008681526020019081526020016000209080519060200190612dff929190613652565b506000600185612e0f9190614823565b905060007f000000000000000000000000000000000000000000000000000000000000000073ffffffffffffffffffffffffffffffffffffffff1663a251e13a8487856040518463ffffffff1660e01b8152600401612e7093929190615a21565b602060405180830381600087803b158015612e8a57600080fd5b505af1158015612e9e573d6000803e3d6000fd5b505050506040513d601f19601f82011682018060405250810190612ec291906145f1565b9050612edf858383604051806020016040528060008152506125a2565b505050505050565b600073ffffffffffffffffffffffffffffffffffffffff168473ffffffffffffffffffffffffffffffffffffffff161415612f57576040517f08c379a0000000000000000000000000000000000000000000000000000000008152600401612f4e9061577d565b60405180910390fd5b6000612f61612677565b9050612f81818787612f7288613169565b612f7b88613169565b876131e3565b600080600086815260200190815260200160002060008873ffffffffffffffffffffffffffffffffffffffff1673ffffffffffffffffffffffffffffffffffffffff16815260200190815260200160002054905083811015613018576040517f08c379a000000000000000000000000000000000000000000000000000000000815260040161300f9061580f565b60405180910390fd5b83810360008087815260200190815260200160002060008973ffffffffffffffffffffffffffffffffffffffff1673ffffffffffffffffffffffffffffffffffffffff168152602001908152602001600020819055508360008087815260200190815260200160002060008873ffffffffffffffffffffffffffffffffffffffff1673ffffffffffffffffffffffffffffffffffffffff16815260200190815260200160002060008282546130cd9190614993565b925050819055508573ffffffffffffffffffffffffffffffffffffffff168773ffffffffffffffffffffffffffffffffffffffff168373ffffffffffffffffffffffffffffffffffffffff167fc3d58168c5ae7397731d063d5bbf3d657854427343f4c083240f7aacaa2d0f62888860405161314a929190615584565b60405180910390a46131608288888888886131eb565b50505050505050565b60606000600167ffffffffffffffff81111561318857613187613a1e565b5b6040519080825280602002602001820160405280156131b65781602001602082028036833780820191505090505b50905082816000815181106131ce576131cd6151d0565b5b60200260200101818152505080915050919050565b505050505050565b61320a8473ffffffffffffffffffffffffffffffffffffffff166135b9565b156133ca578373ffffffffffffffffffffffffffffffffffffffff1663f23a6e6187878686866040518663ffffffff1660e01b8152600401613250959493929190615a58565b602060405180830381600087803b15801561326a57600080fd5b505af192505050801561329b57506040513d601f19601f820116820180604052508101906132989190615ac7565b60015b613341576132a7615b01565b806308c379a0141561330457506132bc615b23565b806132c75750613306565b806040517f08c379a00000000000000000000000000000000000000000000000000000000081526004016132fb9190613988565b60405180910390fd5b505b6040517f08c379a000000000000000000000000000000000000000000000000000000000815260040161333890615c2b565b60405180910390fd5b63f23a6e6160e01b7bffffffffffffffffffffffffffffffffffffffffffffffffffffffff1916817bffffffffffffffffffffffffffffffffffffffffffffffffffffffff1916146133c8576040517f08c379a00000000000000000000000000000000000000000000000000000000081526004016133bf90615cbd565b60405180910390fd5b505b505050505050565b6133f18473ffffffffffffffffffffffffffffffffffffffff166135b9565b156135b1578373ffffffffffffffffffffffffffffffffffffffff1663bc197c8187878686866040518663ffffffff1660e01b8152600401613437959493929190615cdd565b602060405180830381600087803b15801561345157600080fd5b505af192505050801561348257506040513d601f19601f8201168201806040525081019061347f9190615ac7565b60015b6135285761348e615b01565b806308c379a014156134eb57506134a3615b23565b806134ae57506134ed565b806040517f08c379a00000000000000000000000000000000000000000000000000000000081526004016134e29190613988565b60405180910390fd5b505b6040517f08c379a000000000000000000000000000000000000000000000000000000000815260040161351f90615c2b565b60405180910390fd5b63bc197c8160e01b7bffffffffffffffffffffffffffffffffffffffffffffffffffffffff1916817bffffffffffffffffffffffffffffffffffffffffffffffffffffffff1916146135af576040517f08c379a00000000000000000000000000000000000000000000000000000000081526004016135a690615cbd565b60405180910390fd5b505b505050505050565b600080823b905060008111915050919050565b8280546135d8906145aa565b90600052602060002090601f0160209004810192826135fa5760008555613641565b82601f1061361357803560ff1916838001178555613641565b82800160010185558215613641579182015b82811115613640578235825591602001919060010190613625565b5b50905061364e91906136d8565b5090565b82805461365e906145aa565b90600052602060002090601f01602090048101928261368057600085556136c7565b82601f1061369957805160ff19168380011785556136c7565b828001600101855582156136c7579182015b828111156136c65782518255916020019190600101906136ab565b5b5090506136d491906136d8565b5090565b5b808211156136f15760008160009055506001016136d9565b5090565b6000604051905090565b600080fd5b600080fd5b600073ffffffffffffffffffffffffffffffffffffffff82169050919050565b600061373482613709565b9050919050565b61374481613729565b811461374f57600080fd5b50565b6000813590506137618161373b565b92915050565b6000819050919050565b61377a81613767565b811461378557600080fd5b50565b60008135905061379781613771565b92915050565b600080604083850312156137b4576137b36136ff565b5b60006137c285828601613752565b92505060206137d385828601613788565b9150509250929050565b6137e681613767565b82525050565b600060208201905061380160008301846137dd565b92915050565b60007fffffffff0000000000000000000000000000000000000000000000000000000082169050919050565b61383c81613807565b811461384757600080fd5b50565b60008135905061385981613833565b92915050565b600060208284031215613875576138746136ff565b5b60006138838482850161384a565b91505092915050565b60008115159050919050565b6138a18161388c565b82525050565b60006020820190506138bc6000830184613898565b92915050565b6000602082840312156138d8576138d76136ff565b5b60006138e684828501613788565b91505092915050565b600081519050919050565b600082825260208201905092915050565b60005b8381101561392957808201518184015260208101905061390e565b83811115613938576000848401525b50505050565b6000601f19601f8301169050919050565b600061395a826138ef565b61396481856138fa565b935061397481856020860161390b565b61397d8161393e565b840191505092915050565b600060208201905081810360008301526139a2818461394f565b905092915050565b600080604083850312156139c1576139c06136ff565b5b60006139cf85828601613788565b92505060206139e085828601613752565b9150509250929050565b6139f381613729565b82525050565b6000602082019050613a0e60008301846139ea565b92915050565b600080fd5b600080fd5b7f4e487b7100000000000000000000000000000000000000000000000000000000600052604160045260246000fd5b613a568261393e565b810181811067ffffffffffffffff82111715613a7557613a74613a1e565b5b80604052505050565b6000613a886136f5565b9050613a948282613a4d565b919050565b600067ffffffffffffffff821115613ab457613ab3613a1e565b5b613abd8261393e565b9050602081019050919050565b82818337600083830152505050565b6000613aec613ae784613a99565b613a7e565b905082815260208101848484011115613b0857613b07613a19565b5b613b13848285613aca565b509392505050565b600082601f830112613b3057613b2f613a14565b5b8135613b40848260208601613ad9565b91505092915050565b600080600080600060a08688031215613b6557613b646136ff565b5b600086013567ffffffffffffffff811115613b8357613b82613704565b5b613b8f88828901613b1b565b9550506020613ba088828901613788565b9450506040613bb188828901613788565b9350506060613bc288828901613788565b925050608086013567ffffffffffffffff811115613be357613be2613704565b5b613bef88828901613b1b565b9150509295509295909350565b60008060408385031215613c1357613c126136ff565b5b600083013567ffffffffffffffff811115613c3157613c30613704565b5b613c3d85828601613b1b565b9250506020613c4e85828601613788565b9150509250929050565b600067ffffffffffffffff821115613c7357613c72613a1e565b5b602082029050602081019050919050565b600080fd5b6000613c9c613c9784613c58565b613a7e565b90508083825260208201905060208402830185811115613cbf57613cbe613c84565b5b835b81811015613ce85780613cd48882613788565b845260208401935050602081019050613cc1565b5050509392505050565b600082601f830112613d0757613d06613a14565b5b8135613d17848260208601613c89565b91505092915050565b600080600080600060a08688031215613d3c57613d3b6136ff565b5b6000613d4a88828901613752565b9550506020613d5b88828901613752565b945050604086013567ffffffffffffffff811115613d7c57613d7b613704565b5b613d8888828901613cf2565b935050606086013567ffffffffffffffff811115613da957613da8613704565b5b613db588828901613cf2565b925050608086013567ffffffffffffffff811115613dd657613dd5613704565b5b613de288828901613b1b565b9150509295509295909350565b613df88161388c565b8114613e0357600080fd5b50565b600081359050613e1581613def565b92915050565b60008060008060808587031215613e3557613e346136ff565b5b6000613e4387828801613752565b9450506020613e5487828801613788565b9350506040613e6587828801613e06565b9250506060613e7687828801613788565b91505092959194509250565b600067ffffffffffffffff821115613e9d57613e9c613a1e565b5b602082029050602081019050919050565b6000613ec1613ebc84613e82565b613a7e565b90508083825260208201905060208402830185811115613ee457613ee3613c84565b5b835b81811015613f0d5780613ef98882613752565b845260208401935050602081019050613ee6565b5050509392505050565b600082601f830112613f2c57613f2b613a14565b5b8135613f3c848260208601613eae565b91505092915050565b60008060408385031215613f5c57613f5b6136ff565b5b600083013567ffffffffffffffff811115613f7a57613f79613704565b5b613f8685828601613f17565b925050602083013567ffffffffffffffff811115613fa757613fa6613704565b5b613fb385828601613cf2565b9150509250929050565b600081519050919050565b600082825260208201905092915050565b6000819050602082019050919050565b613ff281613767565b82525050565b60006140048383613fe9565b60208301905092915050565b6000602082019050919050565b600061402882613fbd565b6140328185613fc8565b935061403d83613fd9565b8060005b8381101561406e5781516140558882613ff8565b975061406083614010565b925050600181019050614041565b5085935050505092915050565b60006020820190508181036000830152614095818461401d565b905092915050565b600081519050919050565b600082825260208201905092915050565b60006140c48261409d565b6140ce81856140a8565b93506140de81856020860161390b565b6140e78161393e565b840191505092915050565b6000602082019050818103600083015261410c81846140b9565b905092915050565b6000806040838503121561412b5761412a6136ff565b5b600061413985828601613788565b925050602061414a85828601613788565b9150509250929050565b6000806040838503121561416b5761416a6136ff565b5b600061417985828601613752565b925050602061418a85828601613e06565b9150509250929050565b600080fd5b60008083601f8401126141af576141ae613a14565b5b8235905067ffffffffffffffff8111156141cc576141cb614194565b5b6020830191508360208202830111156141e8576141e7613c84565b5b9250929050565b60008083601f84011261420557614204613a14565b5b8235905067ffffffffffffffff81111561422257614221614194565b5b60208301915083600182028301111561423e5761423d613c84565b5b9250929050565b60008060008060008060008060a0898b031215614265576142646136ff565b5b60006142738b828c01613752565b98505060206142848b828c01613752565b975050604089013567ffffffffffffffff8111156142a5576142a4613704565b5b6142b18b828c01614199565b9650965050606089013567ffffffffffffffff8111156142d4576142d3613704565b5b6142e08b828c01614199565b9450945050608089013567ffffffffffffffff81111561430357614302613704565b5b61430f8b828c016141ef565b92509250509295985092959890939650565b61432a81613807565b82525050565b60006020820190506143456000830184614321565b92915050565b60008060408385031215614362576143616136ff565b5b600061437085828601613752565b925050602061438185828601613752565b9150509250929050565b60008060008060008060a087890312156143a8576143a76136ff565b5b60006143b689828a01613752565b96505060206143c789828a01613752565b95505060406143d889828a01613788565b94505060606143e989828a01613788565b935050608087013567ffffffffffffffff81111561440a57614409613704565b5b61441689828a016141ef565b92509250509295509295509295565b600080600080600060a08688031215614441576144406136ff565b5b600061444f88828901613752565b955050602061446088828901613752565b945050604061447188828901613788565b935050606061448288828901613788565b925050608086013567ffffffffffffffff8111156144a3576144a2613704565b5b6144af88828901613b1b565b9150509295509295909350565b6000602082840312156144d2576144d16136ff565b5b60006144e084828501613752565b91505092915050565b7f455243313135353a2062616c616e636520717565727920666f7220746865207a60008201527f65726f2061646472657373000000000000000000000000000000000000000000602082015250565b6000614545602b836138fa565b9150614550826144e9565b604082019050919050565b6000602082019050818103600083015261457481614538565b9050919050565b7f4e487b7100000000000000000000000000000000000000000000000000000000600052602260045260246000fd5b600060028204905060018216806145c257607f821691505b602082108114156145d6576145d561457b565b5b50919050565b6000815190506145eb81613771565b92915050565b600060208284031215614607576146066136ff565b5b6000614615848285016145dc565b91505092915050565b7f4d696e20505220507269636520697320746f6f206c6f77000000000000000000600082015250565b60006146546017836138fa565b915061465f8261461e565b602082019050919050565b6000602082019050818103600083015261468381614647565b9050919050565b7f4e6f7420656e6f7567682045544820746f206d696e7420636f6e74656e740000600082015250565b60006146c0601e836138fa565b91506146cb8261468a565b602082019050919050565b600060208201905081810360008301526146ef816146b3565b9050919050565b7f546f74616c20537570706c7920746f6f206c6f77000000000000000000000000600082015250565b600061472c6014836138fa565b9150614737826146f6565b602082019050919050565b6000602082019050818103600083015261475b8161471f565b9050919050565b7f4f776e6572207374616b65206d757374206265206c657373207468616e20737560008201527f70706c7900000000000000000000000000000000000000000000000000000000602082015250565b60006147be6024836138fa565b91506147c982614762565b604082019050919050565b600060208201905081810360008301526147ed816147b1565b9050919050565b7f4e487b7100000000000000000000000000000000000000000000000000000000600052601160045260246000fd5b600061482e82613767565b915061483983613767565b92508282101561484c5761484b6147f4565b5b828203905092915050565b600060a082019050818103600083015261487181886140b9565b905061488060208301876137dd565b61488d60408301866137dd565b61489a60608301856137dd565b6148a760808301846137dd565b9695505050505050565b60006148c46148bf84613a99565b613a7e565b9050828152602081018484840111156148e0576148df613a19565b5b6148eb84828561390b565b509392505050565b600082601f83011261490857614907613a14565b5b81516149188482602086016148b1565b91505092915050565b600060208284031215614937576149366136ff565b5b600082015167ffffffffffffffff81111561495557614954613704565b5b614961848285016148f3565b91505092915050565b600060408201905061497f60008301856137dd565b61498c60208301846139ea565b9392505050565b600061499e82613767565b91506149a983613767565b9250827fffffffffffffffffffffffffffffffffffffffffffffffffffffffffffffffff038211156149de576149dd6147f4565b5b828201905092915050565b6000815190506149f881613def565b92915050565b600060208284031215614a1457614a136136ff565b5b6000614a22848285016149e9565b91505092915050565b7f436f6e747269627574696f6e73206172652063757272656e746c7920636c6f7360008201527f6564000000000000000000000000000000000000000000000000000000000000602082015250565b6000614a876022836138fa565b9150614a9282614a2b565b604082019050919050565b60006020820190508181036000830152614ab681614a7a565b9050919050565b7f436f6e74656e7420646f6573206e6f7420657869737400000000000000000000600082015250565b6000614af36016836138fa565b9150614afe82614abd565b602082019050919050565b60006020820190508181036000830152614b2281614ae6565b9050919050565b7f4554482056616c75652069732062656c6f77206d696e696d756d20505220707260008201527f6963650000000000000000000000000000000000000000000000000000000000602082015250565b6000614b856023836138fa565b9150614b9082614b29565b604082019050919050565b60006020820190508181036000830152614bb481614b78565b9050919050565b6000604082019050614bd060008301856139ea565b614bdd60208301846137dd565b9392505050565b7f416464726573732068617320616c7265616479207375626d697474656420612060008201527f505220666f72207468697320636f6e74656e742077697468696e20746869732060208201527f636f6e747269627574696f6e20706572696f6400000000000000000000000000604082015250565b6000614c666053836138fa565b9150614c7182614be4565b606082019050919050565b60006020820190508181036000830152614c9581614c59565b9050919050565b60006080820190508181036000830152614cb681876140b9565b9050614cc560208301866137dd565b614cd260408301856139ea565b614cdf60608301846137dd565b95945050505050565b6000606082019050614cfd60008301866139ea565b614d0a60208301856137dd565b614d1760408301846137dd565b949350505050565b7f455243313135353a207472616e736665722063616c6c6572206973206e6f742060008201527f6f776e6572206e6f7220617070726f7665640000000000000000000000000000602082015250565b6000614d7b6032836138fa565b9150614d8682614d1f565b604082019050919050565b60006020820190508181036000830152614daa81614d6e565b9050919050565b7f4d757374206861766520636f6e74656e7420617574686f727368697020746f6b60008201527f656e730000000000000000000000000000000000000000000000000000000000602082015250565b6000614e0d6023836138fa565b9150614e1882614db1565b604082019050919050565b60006020820190508181036000830152614e3c81614e00565b9050919050565b7f566f74696e672069732063757272656e746c7920636c6f736564000000000000600082015250565b6000614e79601a836138fa565b9150614e8482614e43565b602082019050919050565b60006020820190508181036000830152614ea881614e6c565b9050919050565b7f4e6f7420656e6f75676820766f74652063726564697473000000000000000000600082015250565b6000614ee56017836138fa565b9150614ef082614eaf565b602082019050919050565b60006020820190508181036000830152614f1481614ed8565b9050919050565b6000608082019050614f3060008301876139ea565b614f3d60208301866137dd565b614f4a6040830185613898565b614f5760608301846137dd565b95945050505050565b60008160011c9050919050565b6000808291508390505b6001851115614fb757808604811115614f9357614f926147f4565b5b6001851615614fa25780820291505b8081029050614fb085614f60565b9450614f77565b94509492505050565b600082614fd0576001905061508c565b81614fde576000905061508c565b8160018114614ff45760028114614ffe5761502d565b600191505061508c565b60ff8411156150105761500f6147f4565b5b8360020a915084821115615027576150266147f4565b5b5061508c565b5060208310610133831016604e8410600b84101617156150625782820a90508381111561505d5761505c6147f4565b5b61508c565b61506f8484846001614f6d565b92509050818404811115615086576150856147f4565b5b81810290505b9392505050565b600060ff82169050919050565b60006150ab82613767565b91506150b683615093565b92506150e37fffffffffffffffffffffffffffffffffffffffffffffffffffffffffffffffff8484614fc0565b905092915050565b600060a08201905061510060008301886139ea565b61510d60208301876139ea565b61511a60408301866137dd565b6151276060830185613898565b61513460808301846137dd565b9695505050505050565b7f455243313135353a206163636f756e747320616e6420696473206c656e67746860008201527f206d69736d617463680000000000000000000000000000000000000000000000602082015250565b600061519a6029836138fa565b91506151a58261513e565b604082019050919050565b600060208201905081810360008301526151c98161518d565b9050919050565b7f4e487b7100000000000000000000000000000000000000000000000000000000600052603260045260246000fd5b600061520a82613767565b91507fffffffffffffffffffffffffffffffffffffffffffffffffffffffffffffffff82141561523d5761523c6147f4565b5b600182019050919050565b7f4f776e61626c653a2063616c6c6572206973206e6f7420746865206f776e6572600082015250565b600061527e6020836138fa565b915061528982615248565b602082019050919050565b600060208201905081810360008301526152ad81615271565b9050919050565b7f566f74696e67206973207374696c6c206f70656e000000000000000000000000600082015250565b60006152ea6014836138fa565b91506152f5826152b4565b602082019050919050565b60006020820190508181036000830152615319816152dd565b9050919050565b7f436f6e747269627574696f6e73206172652063757272656e746c79206f70656e600082015250565b60006153566020836138fa565b915061536182615320565b602082019050919050565b6000602082019050818103600083015261538581615349565b9050919050565b60008151905061539b8161373b565b92915050565b6000602082840312156153b7576153b66136ff565b5b60006153c58482850161538c565b91505092915050565b7f455243313135353a2063616c6c6572206973206e6f74206f776e6572206e6f7260008201527f20617070726f7665640000000000000000000000000000000000000000000000602082015250565b600061542a6029836138fa565b9150615435826153ce565b604082019050919050565b600060208201905081810360008301526154598161541d565b9050919050565b7f4f776e61626c653a206e6577206f776e657220697320746865207a65726f206160008201527f6464726573730000000000000000000000000000000000000000000000000000602082015250565b60006154bc6026836138fa565b91506154c782615460565b604082019050919050565b600060208201905081810360008301526154eb816154af565b9050919050565b7f455243313135353a206d696e7420746f20746865207a65726f2061646472657360008201527f7300000000000000000000000000000000000000000000000000000000000000602082015250565b600061554e6021836138fa565b9150615559826154f2565b604082019050919050565b6000602082019050818103600083015261557d81615541565b9050919050565b600060408201905061559960008301856137dd565b6155a660208301846137dd565b9392505050565b7f4e487b7100000000000000000000000000000000000000000000000000000000600052601260045260246000fd5b60006155e782613767565b91506155f283613767565b925082615602576156016155ad565b5b828206905092915050565b7f546f6b656e4944206d757374206265206f776e65727368697020746f6b656e00600082015250565b6000615643601f836138fa565b915061564e8261560d565b602082019050919050565b6000602082019050818103600083015261567281615636565b9050919050565b7f455243313135353a2069647320616e6420616d6f756e7473206c656e6774682060008201527f6d69736d61746368000000000000000000000000000000000000000000000000602082015250565b60006156d56028836138fa565b91506156e082615679565b604082019050919050565b60006020820190508181036000830152615704816156c8565b9050919050565b7f455243313135353a207472616e7366657220746f20746865207a65726f20616460008201527f6472657373000000000000000000000000000000000000000000000000000000602082015250565b60006157676025836138fa565b91506157728261570b565b604082019050919050565b600060208201905081810360008301526157968161575a565b9050919050565b7f455243313135353a20696e73756666696369656e742062616c616e636520666f60008201527f72207472616e7366657200000000000000000000000000000000000000000000602082015250565b60006157f9602a836138fa565b91506158048261579d565b604082019050919050565b60006020820190508181036000830152615828816157ec565b9050919050565b60006040820190508181036000830152615849818561401d565b9050818103602083015261585d818461401d565b90509392505050565b7f455243313135353a2073657474696e6720617070726f76616c2073746174757360008201527f20666f722073656c660000000000000000000000000000000000000000000000602082015250565b60006158c26029836138fa565b91506158cd82615866565b604082019050919050565b600060208201905081810360008301526158f1816158b5565b9050919050565b600081905092915050565b60008190508160005260206000209050919050565b60008154615925816145aa565b61592f81866158f8565b9450600182166000811461594a576001811461595b5761598e565b60ff1983168652818601935061598e565b61596485615903565b60005b8381101561598657815481890152600182019150602081019050615967565b838801955050505b50505092915050565b7f2000000000000000000000000000000000000000000000000000000000000000815250565b60006159c88261409d565b6159d281856158f8565b93506159e281856020860161390b565b80840191505092915050565b60006159fa8285615918565b9150615a0582615997565b600182019150615a1582846159bd565b91508190509392505050565b6000606082019050615a3660008301866137dd565b615a4360208301856139ea565b615a5060408301846137dd565b949350505050565b600060a082019050615a6d60008301886139ea565b615a7a60208301876139ea565b615a8760408301866137dd565b615a9460608301856137dd565b8181036080830152615aa681846140b9565b90509695505050505050565b600081519050615ac181613833565b92915050565b600060208284031215615add57615adc6136ff565b5b6000615aeb84828501615ab2565b91505092915050565b60008160e01c9050919050565b600060033d1115615b205760046000803e615b1d600051615af4565b90505b90565b600060443d1015615b3357615bb6565b615b3b6136f5565b60043d036004823e80513d602482011167ffffffffffffffff82111715615b63575050615bb6565b808201805167ffffffffffffffff811115615b815750505050615bb6565b80602083010160043d038501811115615b9e575050505050615bb6565b615bad82602001850186613a4d565b82955050505050505b90565b7f455243313135353a207472616e7366657220746f206e6f6e204552433131353560008201527f526563656976657220696d706c656d656e746572000000000000000000000000602082015250565b6000615c156034836138fa565b9150615c2082615bb9565b604082019050919050565b60006020820190508181036000830152615c4481615c08565b9050919050565b7f455243313135353a204552433131353552656365697665722072656a6563746560008201527f6420746f6b656e73000000000000000000000000000000000000000000000000602082015250565b6000615ca76028836138fa565b9150615cb282615c4b565b604082019050919050565b60006020820190508181036000830152615cd681615c9a565b9050919050565b600060a082019050615cf260008301886139ea565b615cff60208301876139ea565b8181036040830152615d11818661401d565b90508181036060830152615d25818561401d565b90508181036080830152615d3981846140b9565b9050969550505050505056fea264697066735822122080a3befcfed00196670be02be2579c4c23b218fe419b1a56ed8e5281593c3d0664736f6c63430008090033608060405234801561001057600080fd5b5061002d61002261003260201b60201c565b61003a60201b60201c565b6100fe565b600033905090565b60008060009054906101000a900473ffffffffffffffffffffffffffffffffffffffff169050816000806101000a81548173ffffffffffffffffffffffffffffffffffffffff021916908373ffffffffffffffffffffffffffffffffffffffff1602179055508173ffffffffffffffffffffffffffffffffffffffff168173ffffffffffffffffffffffffffffffffffffffff167f8be0079c531659141344cd1fd0a4f28419497f9722a3daafe3b4186f6b6457e060405160405180910390a35050565b61206b806200010e6000396000f3fe6080604052600436106100dd5760003560e01c8063712023ed1161007f57806387bd45201161005957806387bd4520146102da5780638da5cb5b14610303578063efe433381461032e578063f2fde38b1461036b576100dd565b8063712023ed14610249578063715018a614610286578063761072e11461029d576100dd565b80634dfb83ca116100bb5780634dfb83ca146101715780635d6b494b146101b357806362a4321c146101f05780636f1ea8041461022d576100dd565b8063182983a2146100e2578063449e815d1461010b5780634d318b0e14610148575b600080fd5b3480156100ee57600080fd5b506101096004803603810190610104919061184e565b610394565b005b34801561011757600080fd5b50610132600480360381019061012d91906118b5565b61054a565b60405161013f9190611904565b60405180910390f35b34801561015457600080fd5b5061016f600480360381019061016a919061191f565b6105a8565b005b34801561017d57600080fd5b506101986004803603810190610193919061194c565b6108c7565b6040516101aa96959493929190611a25565b60405180910390f35b3480156101bf57600080fd5b506101da60048036038101906101d59190611a8d565b610998565b6040516101e79190611adc565b60405180910390f35b3480156101fc57600080fd5b50610217600480360381019061021291906118b5565b6109e6565b6040516102249190611af7565b60405180910390f35b61024760048036038101906102429190611c4e565b610acc565b005b34801561025557600080fd5b50610270600480360381019061026b91906118b5565b610cfd565b60405161027d9190611ce0565b60405180910390f35b34801561029257600080fd5b5061029b610d65565b005b3480156102a957600080fd5b506102c460048036038101906102bf919061194c565b610ded565b6040516102d19190611ce0565b60405180910390f35b3480156102e657600080fd5b5061030160048036038101906102fc919061191f565b610e1c565b005b34801561030f57600080fd5b50610318611059565b6040516103259190611adc565b60405180910390f35b34801561033a57600080fd5b506103556004803603810190610350919061191f565b611082565b6040516103629190611adc565b60405180910390f35b34801561037757600080fd5b50610392600480360381019061038d9190611cfb565b61148d565b005b61039c611585565b73ffffffffffffffffffffffffffffffffffffffff166103ba611059565b73ffffffffffffffffffffffffffffffffffffffff1614610410576040517f08c379a000000000000000000000000000000000000000000000000000000000815260040161040790611d85565b60405180910390fd5b6002600082815260200190815260200160002060008573ffffffffffffffffffffffffffffffffffffffff1673ffffffffffffffffffffffffffffffffffffffff16815260200190815260200160002060009054906101000a900460ff166104ad576040517f08c379a00000000000000000000000000000000000000000000000000000000081526004016104a490611df1565b60405180910390fd5b60006001600083815260200190815260200160002060008673ffffffffffffffffffffffffffffffffffffffff1673ffffffffffffffffffffffffffffffffffffffff16815260200190815260200160002090508215610527578381600201600082825461051b9190611e40565b92505081905550610543565b8381600301600082825461053b9190611e40565b925050819055505b5050505050565b60006001600083815260200190815260200160002060008473ffffffffffffffffffffffffffffffffffffffff1673ffffffffffffffffffffffffffffffffffffffff16815260200190815260200160002060050154905092915050565b6105b0611585565b73ffffffffffffffffffffffffffffffffffffffff166105ce611059565b73ffffffffffffffffffffffffffffffffffffffff1614610624576040517f08c379a000000000000000000000000000000000000000000000000000000000815260040161061b90611d85565b60405180910390fd5b6000600360008381526020019081526020016000208054806020026020016040519081016040528092919081815260200182805480156106b957602002820191906000526020600020905b8160009054906101000a900473ffffffffffffffffffffffffffffffffffffffff1673ffffffffffffffffffffffffffffffffffffffff168152602001906001019080831161066f575b5050505050905060005b81518110156108c25760006001600085815260200190815260200160002060008484815181106106f6576106f5611e96565b5b602002602001015173ffffffffffffffffffffffffffffffffffffffff1673ffffffffffffffffffffffffffffffffffffffff1681526020019081526020016000206040518060c001604052908160008201805461075390611ef4565b80601f016020809104026020016040519081016040528092919081815260200182805461077f90611ef4565b80156107cc5780601f106107a1576101008083540402835291602001916107cc565b820191906000526020600020905b8154815290600101906020018083116107af57829003601f168201915b505050505081526020016001820154815260200160028201548152602001600382015481526020016004820154815260200160058201548152505090506000816060015182604001511115610836578160600151826040015161082f9190611f26565b905061083b565b600090505b8060016000878152602001908152602001600020600086868151811061086457610863611e96565b5b602002602001015173ffffffffffffffffffffffffffffffffffffffff1673ffffffffffffffffffffffffffffffffffffffff16815260200190815260200160002060040181905550505080806108ba90611f5a565b9150506106c3565b505050565b6001602052816000526040600020602052806000526040600020600091509150508060000180546108f790611ef4565b80601f016020809104026020016040519081016040528092919081815260200182805461092390611ef4565b80156109705780601f1061094557610100808354040283529160200191610970565b820191906000526020600020905b81548152906001019060200180831161095357829003601f168201915b5050505050908060010154908060020154908060030154908060040154908060050154905086565b600360205281600052604060002081815481106109b457600080fd5b906000526020600020016000915091509054906101000a900473ffffffffffffffffffffffffffffffffffffffff1681565b60606001600083815260200190815260200160002060008473ffffffffffffffffffffffffffffffffffffffff1673ffffffffffffffffffffffffffffffffffffffff1681526020019081526020016000206000018054610a4690611ef4565b80601f0160208091040260200160405190810160405280929190818152602001828054610a7290611ef4565b8015610abf5780601f10610a9457610100808354040283529160200191610abf565b820191906000526020600020905b815481529060010190602001808311610aa257829003601f168201915b5050505050905092915050565b610ad4611585565b73ffffffffffffffffffffffffffffffffffffffff16610af2611059565b73ffffffffffffffffffffffffffffffffffffffff1614610b48576040517f08c379a0000000000000000000000000000000000000000000000000000000008152600401610b3f90611d85565b60405180910390fd5b60036000848152602001908152602001600020829080600181540180825580915050600190039060005260206000200160009091909190916101000a81548173ffffffffffffffffffffffffffffffffffffffff021916908373ffffffffffffffffffffffffffffffffffffffff1602179055506040518060c00160405280858152602001428152602001600081526020016000815260200160008152602001828152506001600085815260200190815260200160002060008473ffffffffffffffffffffffffffffffffffffffff1673ffffffffffffffffffffffffffffffffffffffff1681526020019081526020016000206000820151816000019080519060200190610c58929190611651565b506020820151816001015560408201518160020155606082015181600301556080820151816004015560a0820151816005015590505060016002600085815260200190815260200160002060008473ffffffffffffffffffffffffffffffffffffffff1673ffffffffffffffffffffffffffffffffffffffff16815260200190815260200160002060006101000a81548160ff02191690831515021790555050505050565b60006002600083815260200190815260200160002060008473ffffffffffffffffffffffffffffffffffffffff1673ffffffffffffffffffffffffffffffffffffffff16815260200190815260200160002060009054906101000a900460ff16905092915050565b610d6d611585565b73ffffffffffffffffffffffffffffffffffffffff16610d8b611059565b73ffffffffffffffffffffffffffffffffffffffff1614610de1576040517f08c379a0000000000000000000000000000000000000000000000000000000008152600401610dd890611d85565b60405180910390fd5b610deb600061158d565b565b60026020528160005260406000206020528060005260406000206000915091509054906101000a900460ff1681565b610e24611585565b73ffffffffffffffffffffffffffffffffffffffff16610e42611059565b73ffffffffffffffffffffffffffffffffffffffff1614610e98576040517f08c379a0000000000000000000000000000000000000000000000000000000008152600401610e8f90611d85565b60405180910390fd5b60005b6003600083815260200190815260200160002080549050811015611036576000600360008481526020019081526020016000208281548110610ee057610edf611e96565b5b9060005260206000200160009054906101000a900473ffffffffffffffffffffffffffffffffffffffff169050610f156116d7565b806001600086815260200190815260200160002060008473ffffffffffffffffffffffffffffffffffffffff1673ffffffffffffffffffffffffffffffffffffffff1681526020019081526020016000206000820151816000019080519060200190610f82929190611651565b506020820151816001015560408201518160020155606082015181600301556080820151816004015560a0820151816005015590505060006002600086815260200190815260200160002060008473ffffffffffffffffffffffffffffffffffffffff1673ffffffffffffffffffffffffffffffffffffffff16815260200190815260200160002060006101000a81548160ff0219169083151502179055505050808061102e90611f5a565b915050610e9b565b50600360008281526020019081526020016000206000611056919061170d565b50565b60008060009054906101000a900473ffffffffffffffffffffffffffffffffffffffff16905090565b600061108c611585565b73ffffffffffffffffffffffffffffffffffffffff166110aa611059565b73ffffffffffffffffffffffffffffffffffffffff1614611100576040517f08c379a00000000000000000000000000000000000000000000000000000000081526004016110f790611d85565b60405180910390fd5b6000806003600085815260200190815260200160002080548060200260200160405190810160405280929190818152602001828054801561119657602002820191906000526020600020905b8160009054906101000a900473ffffffffffffffffffffffffffffffffffffffff1673ffffffffffffffffffffffffffffffffffffffff168152602001906001019080831161114c575b5050505050905060005b81518110156112cd5760008114156111d4578181815181106111c5576111c4611e96565b5b602002602001015192506112ba565b6001600086815260200190815260200160002060008473ffffffffffffffffffffffffffffffffffffffff1673ffffffffffffffffffffffffffffffffffffffff168152602001908152602001600020600401546001600087815260200190815260200160002060008484815181106112505761124f611e96565b5b602002602001015173ffffffffffffffffffffffffffffffffffffffff1673ffffffffffffffffffffffffffffffffffffffff16815260200190815260200160002060040154106112b9578181815181106112ae576112ad611e96565b5b602002602001015192505b5b80806112c590611f5a565b9150506111a0565b506112d661172e565b60006001600087815260200190815260200160002060008573ffffffffffffffffffffffffffffffffffffffff1673ffffffffffffffffffffffffffffffffffffffff1681526020019081526020016000206004015490506000805b84518110156114375782600160008a8152602001908152602001600020600087848151811061136457611363611e96565b5b602002602001015173ffffffffffffffffffffffffffffffffffffffff1673ffffffffffffffffffffffffffffffffffffffff168152602001908152602001600020600401541415611424578481815181106113c3576113c2611e96565b5b60200260200101518483606481106113de576113dd611e96565b5b602002019073ffffffffffffffffffffffffffffffffffffffff16908173ffffffffffffffffffffffffffffffffffffffff1681525050818061142090611f5a565b9250505b808061142f90611f5a565b915050611332565b50600082111561147e5760018114611471578260006064811061145d5761145c611e96565b5b602002015194508495505050505050611488565b8495505050505050611488565b6000955050505050505b919050565b611495611585565b73ffffffffffffffffffffffffffffffffffffffff166114b3611059565b73ffffffffffffffffffffffffffffffffffffffff1614611509576040517f08c379a000000000000000000000000000000000000000000000000000000000815260040161150090611d85565b60405180910390fd5b600073ffffffffffffffffffffffffffffffffffffffff168173ffffffffffffffffffffffffffffffffffffffff161415611579576040517f08c379a000000000000000000000000000000000000000000000000000000000815260040161157090612015565b60405180910390fd5b6115828161158d565b50565b600033905090565b60008060009054906101000a900473ffffffffffffffffffffffffffffffffffffffff169050816000806101000a81548173ffffffffffffffffffffffffffffffffffffffff021916908373ffffffffffffffffffffffffffffffffffffffff1602179055508173ffffffffffffffffffffffffffffffffffffffff168173ffffffffffffffffffffffffffffffffffffffff167f8be0079c531659141344cd1fd0a4f28419497f9722a3daafe3b4186f6b6457e060405160405180910390a35050565b82805461165d90611ef4565b90600052602060002090601f01602090048101928261167f57600085556116c6565b82601f1061169857805160ff19168380011785556116c6565b828001600101855582156116c6579182015b828111156116c55782518255916020019190600101906116aa565b5b5090506116d39190611751565b5090565b6040518060c001604052806060815260200160008152602001600081526020016000815260200160008152602001600081525090565b508054600082559060005260206000209081019061172b9190611751565b50565b60405180610c800160405280606490602082028036833780820191505090505090565b5b8082111561176a576000816000905550600101611752565b5090565b6000604051905090565b600080fd5b600080fd5b600073ffffffffffffffffffffffffffffffffffffffff82169050919050565b60006117ad82611782565b9050919050565b6117bd816117a2565b81146117c857600080fd5b50565b6000813590506117da816117b4565b92915050565b6000819050919050565b6117f3816117e0565b81146117fe57600080fd5b50565b600081359050611810816117ea565b92915050565b60008115159050919050565b61182b81611816565b811461183657600080fd5b50565b60008135905061184881611822565b92915050565b6000806000806080858703121561186857611867611778565b5b6000611876878288016117cb565b945050602061188787828801611801565b935050604061189887828801611839565b92505060606118a987828801611801565b91505092959194509250565b600080604083850312156118cc576118cb611778565b5b60006118da858286016117cb565b92505060206118eb85828601611801565b9150509250929050565b6118fe816117e0565b82525050565b600060208201905061191960008301846118f5565b92915050565b60006020828403121561193557611934611778565b5b600061194384828501611801565b91505092915050565b6000806040838503121561196357611962611778565b5b600061197185828601611801565b9250506020611982858286016117cb565b9150509250929050565b600081519050919050565b600082825260208201905092915050565b60005b838110156119c65780820151818401526020810190506119ab565b838111156119d5576000848401525b50505050565b6000601f19601f8301169050919050565b60006119f78261198c565b611a018185611997565b9350611a118185602086016119a8565b611a1a816119db565b840191505092915050565b600060c0820190508181036000830152611a3f81896119ec565b9050611a4e60208301886118f5565b611a5b60408301876118f5565b611a6860608301866118f5565b611a7560808301856118f5565b611a8260a08301846118f5565b979650505050505050565b60008060408385031215611aa457611aa3611778565b5b6000611ab285828601611801565b9250506020611ac385828601611801565b9150509250929050565b611ad6816117a2565b82525050565b6000602082019050611af16000830184611acd565b92915050565b60006020820190508181036000830152611b1181846119ec565b905092915050565b600080fd5b600080fd5b7f4e487b7100000000000000000000000000000000000000000000000000000000600052604160045260246000fd5b611b5b826119db565b810181811067ffffffffffffffff82111715611b7a57611b79611b23565b5b80604052505050565b6000611b8d61176e565b9050611b998282611b52565b919050565b600067ffffffffffffffff821115611bb957611bb8611b23565b5b611bc2826119db565b9050602081019050919050565b82818337600083830152505050565b6000611bf1611bec84611b9e565b611b83565b905082815260208101848484011115611c0d57611c0c611b1e565b5b611c18848285611bcf565b509392505050565b600082601f830112611c3557611c34611b19565b5b8135611c45848260208601611bde565b91505092915050565b60008060008060808587031215611c6857611c67611778565b5b600085013567ffffffffffffffff811115611c8657611c8561177d565b5b611c9287828801611c20565b9450506020611ca387828801611801565b9350506040611cb4878288016117cb565b9250506060611cc587828801611801565b91505092959194509250565b611cda81611816565b82525050565b6000602082019050611cf56000830184611cd1565b92915050565b600060208284031215611d1157611d10611778565b5b6000611d1f848285016117cb565b91505092915050565b600082825260208201905092915050565b7f4f776e61626c653a2063616c6c6572206973206e6f7420746865206f776e6572600082015250565b6000611d6f602083611d28565b9150611d7a82611d39565b602082019050919050565b60006020820190508181036000830152611d9e81611d62565b9050919050565b7f505220646f6573206e6f74206578697374000000000000000000000000000000600082015250565b6000611ddb601183611d28565b9150611de682611da5565b602082019050919050565b60006020820190508181036000830152611e0a81611dce565b9050919050565b7f4e487b7100000000000000000000000000000000000000000000000000000000600052601160045260246000fd5b6000611e4b826117e0565b9150611e56836117e0565b9250827fffffffffffffffffffffffffffffffffffffffffffffffffffffffffffffffff03821115611e8b57611e8a611e11565b5b828201905092915050565b7f4e487b7100000000000000000000000000000000000000000000000000000000600052603260045260246000fd5b7f4e487b7100000000000000000000000000000000000000000000000000000000600052602260045260246000fd5b60006002820490506001821680611f0c57607f821691505b60208210811415611f2057611f1f611ec5565b5b50919050565b6000611f31826117e0565b9150611f3c836117e0565b925082821015611f4f57611f4e611e11565b5b828203905092915050565b6000611f65826117e0565b91507fffffffffffffffffffffffffffffffffffffffffffffffffffffffffffffffff821415611f9857611f97611e11565b5b600182019050919050565b7f4f776e61626c653a206e6577206f776e657220697320746865207a65726f206160008201527f6464726573730000000000000000000000000000000000000000000000000000602082015250565b6000611fff602683611d28565b915061200a82611fa3565b604082019050919050565b6000602082019050818103600083015261202e81611ff2565b905091905056fea2646970667358221220586410c8f969e5e544466581401df621c723e4c50965302ff740dcd17477c48064736f6c6343000809003360a060405234801561001057600080fd5b5060405161001d90610072565b604051809103906000f080158015610039573d6000803e3d6000fd5b5073ffffffffffffffffffffffffffffffffffffffff1660808173ffffffffffffffffffffffffffffffffffffffff168152505061007f565b610cfc8061188783390190565b6080516117ca6100bd600039600081816102fd015281816104d001528181610665015281816107720152818161087f0152610b8a01526117ca6000f3fe608060405234801561001057600080fd5b50600436106100935760003560e01c80639037e407116100665780639037e4071461014857806392ab723e14610178578063a251e13a146101a8578063b2d81b8d146101d8578063cf65de4a1461020857610093565b80630c8244dd1461009857806314ff5ea3146100cc57806371fe953d146100fc5780637b78bd3f14610118575b600080fd5b6100b260048036038101906100ad9190610ed3565b610238565b6040516100c3959493929190610fa8565b60405180910390f35b6100e660048036038101906100e19190610ed3565b6102f6565b6040516100f39190611002565b60405180910390f35b61011660048036038101906101119190611152565b610403565b005b610132600480360381019061012d9190610ed3565b6104c9565b60405161013f91906111e9565b60405180910390f35b610162600480360381019061015d9190610ed3565b61065e565b60405161016f9190611002565b60405180910390f35b610192600480360381019061018d9190610ed3565b61076b565b60405161019f9190611002565b60405180910390f35b6101c260048036038101906101bd9190611269565b610878565b6040516101cf9190611002565b60405180910390f35b6101f260048036038101906101ed9190610ed3565b610b83565b6040516101ff9190611002565b60405180910390f35b610222600480360381019061021d9190610ed3565b610c90565b60405161022f9190611002565b60405180910390f35b600160205280600052604060002060009150905080600001805461025b906112eb565b80601f0160208091040260200160405190810160405280929190818152602001828054610287906112eb565b80156102d45780601f106102a9576101008083540402835291602001916102d4565b820191906000526020600020905b8154815290600101906020018083116102b757829003601f168201915b5050505050908060010154908060020154908060030154908060040154905085565b60008160007f000000000000000000000000000000000000000000000000000000000000000073ffffffffffffffffffffffffffffffffffffffff166321a455c46040518163ffffffff1660e01b815260040160206040518083038186803b15801561036157600080fd5b505afa158015610375573d6000803e3d6000fd5b505050506040513d601f19601f820116820180604052508101906103999190611332565b826103a4919061138e565b146103e4576040517f08c379a00000000000000000000000000000000000000000000000000000000081526004016103db9061141c565b60405180910390fd5b6001600084815260200190815260200160002060010154915050919050565b61040b610db7565b858160000181905250848160200181815250508381604001818152505082816080018181525050818160600181815250508060016000878152602001908152602001600020600082015181600001908051906020019061046c929190610de6565b50602082015181600101556040820151816002015560608201518160030155608082015181600401559050508260008087815260200190815260200160002060008282546104ba919061146b565b92505081905550505050505050565b60608160007f000000000000000000000000000000000000000000000000000000000000000073ffffffffffffffffffffffffffffffffffffffff166321a455c46040518163ffffffff1660e01b815260040160206040518083038186803b15801561053457600080fd5b505afa158015610548573d6000803e3d6000fd5b505050506040513d601f19601f8201168201806040525081019061056c9190611332565b82610577919061138e565b146105b7576040517f08c379a00000000000000000000000000000000000000000000000000000000081526004016105ae9061141c565b60405180910390fd5b6001600084815260200190815260200160002060000180546105d8906112eb565b80601f0160208091040260200160405190810160405280929190818152602001828054610604906112eb565b80156106515780601f1061062657610100808354040283529160200191610651565b820191906000526020600020905b81548152906001019060200180831161063457829003601f168201915b5050505050915050919050565b60008160007f000000000000000000000000000000000000000000000000000000000000000073ffffffffffffffffffffffffffffffffffffffff166321a455c46040518163ffffffff1660e01b815260040160206040518083038186803b1580156106c957600080fd5b505afa1580156106dd573d6000803e3d6000fd5b505050506040513d601f19601f820116820180604052508101906107019190611332565b8261070c919061138e565b1461074c576040517f08c379a00000000000000000000000000000000000000000000000000000000081526004016107439061141c565b60405180910390fd5b6001600084815260200190815260200160002060040154915050919050565b60008160007f000000000000000000000000000000000000000000000000000000000000000073ffffffffffffffffffffffffffffffffffffffff166321a455c46040518163ffffffff1660e01b815260040160206040518083038186803b1580156107d657600080fd5b505afa1580156107ea573d6000803e3d6000fd5b505050506040513d601f19601f8201168201806040525081019061080e9190611332565b82610819919061138e565b14610859576040517f08c379a00000000000000000000000000000000000000000000000000000000081526004016108509061141c565b60405180910390fd5b6001600084815260200190815260200160002060020154915050919050565b60008160007f000000000000000000000000000000000000000000000000000000000000000073ffffffffffffffffffffffffffffffffffffffff166321a455c46040518163ffffffff1660e01b815260040160206040518083038186803b1580156108e357600080fd5b505afa1580156108f7573d6000803e3d6000fd5b505050506040513d601f19601f8201168201806040525081019061091b9190611332565b82610926919061138e565b14610966576040517f08c379a000000000000000000000000000000000000000000000000000000000815260040161095d9061141c565b60405180910390fd5b60016000848152602001908152602001600020600301548510156109bf576040517f08c379a00000000000000000000000000000000000000000000000000000000081526004016109b690611533565b60405180910390fd5b6000600a60016064610a25610a146127108b6109db9190611553565b6000808b815260200190815260200160002054600160008c815260200190815260200160002060020154610a0f91906115ad565b610ca8565b6001610a20919061146b565b610cf6565b610a2f91906115e1565b610a3991906115ad565b60016000878152602001908152602001600020600401546001600088815260200190815260200160002060020154610a7191906115ad565b610a7b9190611553565b610a8591906115e1565b905060016000858152602001908152602001600020600201548160008087815260200190815260200160002054610abc919061146b565b10610afc576040517f08c379a0000000000000000000000000000000000000000000000000000000008152600401610af390611684565b60405180910390fd5b806000808681526020019081526020016000206000828254610b1e919061146b565b925050819055507f18a9df754d582bf0fc3091d77d8a6e64b1c66c14df117fc189e245e7a017a1fc85858360016000898152602001908152602001600020600001604051610b6f9493929190611748565b60405180910390a180925050509392505050565b60008160007f000000000000000000000000000000000000000000000000000000000000000073ffffffffffffffffffffffffffffffffffffffff166321a455c46040518163ffffffff1660e01b815260040160206040518083038186803b158015610bee57600080fd5b505afa158015610c02573d6000803e3d6000fd5b505050506040513d601f19601f82011682018060405250810190610c269190611332565b82610c31919061138e565b14610c71576040517f08c379a0000000000000000000000000000000000000000000000000000000008152600401610c689061141c565b60405180910390fd5b6001600084815260200190815260200160002060030154915050919050565b60006020528060005260406000206000915090505481565b6000600282610cb791906115e1565b82610cc291906115ad565b8284610cce919061138e565b610cd891906115e1565b8284610ce491906115e1565b610cee919061146b565b905092915050565b600080610d0283610d32565b9050828182610d119190611553565b14610d2857600181610d23919061146b565b610d2a565b805b915050919050565b6000806001600284610d4491906115e1565b610d4e919061146b565b9050600060028285610d6091906115e1565b83610d6b919061146b565b610d7591906115e1565b90505b80821115610dad5780915060028285610d9191906115e1565b83610d9c919061146b565b610da691906115e1565b9050610d78565b8192505050919050565b6040518060a0016040528060608152602001600081526020016000815260200160008152602001600081525090565b828054610df2906112eb565b90600052602060002090601f016020900481019282610e145760008555610e5b565b82601f10610e2d57805160ff1916838001178555610e5b565b82800160010185558215610e5b579182015b82811115610e5a578251825591602001919060010190610e3f565b5b509050610e689190610e6c565b5090565b5b80821115610e85576000816000905550600101610e6d565b5090565b6000604051905090565b600080fd5b600080fd5b6000819050919050565b610eb081610e9d565b8114610ebb57600080fd5b50565b600081359050610ecd81610ea7565b92915050565b600060208284031215610ee957610ee8610e93565b5b6000610ef784828501610ebe565b91505092915050565b600081519050919050565b600082825260208201905092915050565b60005b83811015610f3a578082015181840152602081019050610f1f565b83811115610f49576000848401525b50505050565b6000601f19601f8301169050919050565b6000610f6b82610f00565b610f758185610f0b565b9350610f85818560208601610f1c565b610f8e81610f4f565b840191505092915050565b610fa281610e9d565b82525050565b600060a0820190508181036000830152610fc28188610f60565b9050610fd16020830187610f99565b610fde6040830186610f99565b610feb6060830185610f99565b610ff86080830184610f99565b9695505050505050565b60006020820190506110176000830184610f99565b92915050565b600080fd5b600080fd5b7f4e487b7100000000000000000000000000000000000000000000000000000000600052604160045260246000fd5b61105f82610f4f565b810181811067ffffffffffffffff8211171561107e5761107d611027565b5b80604052505050565b6000611091610e89565b905061109d8282611056565b919050565b600067ffffffffffffffff8211156110bd576110bc611027565b5b6110c682610f4f565b9050602081019050919050565b82818337600083830152505050565b60006110f56110f0846110a2565b611087565b90508281526020810184848401111561111157611110611022565b5b61111c8482856110d3565b509392505050565b600082601f8301126111395761113861101d565b5b81356111498482602086016110e2565b91505092915050565b600080600080600060a0868803121561116e5761116d610e93565b5b600086013567ffffffffffffffff81111561118c5761118b610e98565b5b61119888828901611124565b95505060206111a988828901610ebe565b94505060406111ba88828901610ebe565b93505060606111cb88828901610ebe565b92505060806111dc88828901610ebe565b9150509295509295909350565b600060208201905081810360008301526112038184610f60565b905092915050565b600073ffffffffffffffffffffffffffffffffffffffff82169050919050565b60006112368261120b565b9050919050565b6112468161122b565b811461125157600080fd5b50565b6000813590506112638161123d565b92915050565b60008060006060848603121561128257611281610e93565b5b600061129086828701610ebe565b93505060206112a186828701611254565b92505060406112b286828701610ebe565b9150509250925092565b7f4e487b7100000000000000000000000000000000000000000000000000000000600052602260045260246000fd5b6000600282049050600182168061130357607f821691505b60208210811415611317576113166112bc565b5b50919050565b60008151905061132c81610ea7565b92915050565b60006020828403121561134857611347610e93565b5b60006113568482850161131d565b91505092915050565b7f4e487b7100000000000000000000000000000000000000000000000000000000600052601260045260246000fd5b600061139982610e9d565b91506113a483610e9d565b9250826113b4576113b361135f565b5b828206905092915050565b600082825260208201905092915050565b7f4f776e65727368697020746f6b656e4944207265717569726564000000000000600082015250565b6000611406601a836113bf565b9150611411826113d0565b602082019050919050565b60006020820190508181036000830152611435816113f9565b9050919050565b7f4e487b7100000000000000000000000000000000000000000000000000000000600052601160045260246000fd5b600061147682610e9d565b915061148183610e9d565b9250827fffffffffffffffffffffffffffffffffffffffffffffffffffffffffffffffff038211156114b6576114b561143c565b5b828201905092915050565b7f42656c6f7720746865206d696e696d756d2076616c756520666f72207468652060008201527f70756c6c20726571756573740000000000000000000000000000000000000000602082015250565b600061151d602c836113bf565b9150611528826114c1565b604082019050919050565b6000602082019050818103600083015261154c81611510565b9050919050565b600061155e82610e9d565b915061156983610e9d565b9250817fffffffffffffffffffffffffffffffffffffffffffffffffffffffffffffffff04831182151516156115a2576115a161143c565b5b828202905092915050565b60006115b882610e9d565b91506115c383610e9d565b9250828210156115d6576115d561143c565b5b828203905092915050565b60006115ec82610e9d565b91506115f783610e9d565b9250826116075761160661135f565b5b828204905092915050565b7f4e6f206d6f726520746f6b656e7320666f722073616c652c20636865636b206260008201527f61636b206c617465722100000000000000000000000000000000000000000000602082015250565b600061166e602a836113bf565b915061167982611612565b604082019050919050565b6000602082019050818103600083015261169d81611661565b9050919050565b6116ad8161122b565b82525050565b60008190508160005260206000209050919050565b600081546116d5816112eb565b6116df8186610f0b565b945060018216600081146116fa576001811461170c5761173f565b60ff198316865260208601935061173f565b611715856116b3565b60005b8381101561173757815481890152600182019150602081019050611718565b808801955050505b50505092915050565b600060808201905061175d60008301876116a4565b61176a6020830186610f99565b6117776040830185610f99565b818103606083015261178981846116c8565b90509594505050505056fea2646970667358221220cd205fbaf05130a039dadb709f51376c6194a75315a161689e72c33f435338f964736f6c6343000809003360a060405234801561001057600080fd5b5061002d61002261007960201b60201c565b61008160201b60201c565b6002600381905550600180819055506001600281905550662386f26fc1000060048190555067016345785d8a000060058190555062989680600681905550601460808181525050610145565b600033905090565b60008060009054906101000a900473ffffffffffffffffffffffffffffffffffffffff169050816000806101000a81548173ffffffffffffffffffffffffffffffffffffffff021916908373ffffffffffffffffffffffffffffffffffffffff1602179055508173ffffffffffffffffffffffffffffffffffffffff168173ffffffffffffffffffffffffffffffffffffffff167f8be0079c531659141344cd1fd0a4f28419497f9722a3daafe3b4186f6b6457e060405160405180910390a35050565b608051610b9c610160600039600061066d0152610b9c6000f3fe608060405234801561001057600080fd5b50600436106100f55760003560e01c8063715018a6116100975780639117bd09116100665780639117bd0914610228578063a47954bb14610246578063ebbd051714610264578063f2fde38b14610280576100f5565b8063715018a6146101c85780637184302f146101d25780637275ee9b146101ee5780638da5cb5b1461020a576100f5565b80633230d549116100d35780633230d549146101545780633a8cdb651461017257806340140c481461018e57806351e75a8b146101aa576100f5565b806315d5f7e9146100fa57806321a455c4146101185780632f42091914610136575b600080fd5b61010261029c565b60405161010f9190610929565b60405180910390f35b6101206102a2565b60405161012d9190610929565b60405180910390f35b61013e6102a8565b60405161014b9190610929565b60405180910390f35b61015c6102ae565b6040516101699190610929565b60405180910390f35b61018c60048036038101906101879190610975565b6102b4565b005b6101a860048036038101906101a39190610975565b610371565b005b6101b2610430565b6040516101bf9190610929565b60405180910390f35b6101d0610436565b005b6101ec60048036038101906101e79190610975565b6104be565b005b61020860048036038101906102039190610975565b61057d565b005b61021261063c565b60405161021f91906109e3565b60405180910390f35b610230610665565b60405161023d9190610929565b60405180910390f35b61024e61066b565b60405161025b9190610929565b60405180910390f35b61027e60048036038101906102799190610975565b61068f565b005b61029a60048036038101906102959190610a2a565b61074c565b005b60025481565b60035481565b60065481565b60045481565b6102bc610844565b73ffffffffffffffffffffffffffffffffffffffff166102da61063c565b73ffffffffffffffffffffffffffffffffffffffff1614610330576040517f08c379a000000000000000000000000000000000000000000000000000000000815260040161032790610ab4565b60405180910390fd5b806002819055507f80b0f055593848ff65135150efc98d3945c2f2a132eb9e4b7a81696a72cd0001816040516103669190610929565b60405180910390a150565b610379610844565b73ffffffffffffffffffffffffffffffffffffffff1661039761063c565b73ffffffffffffffffffffffffffffffffffffffff16146103ed576040517f08c379a00000000000000000000000000000000000000000000000000000000081526004016103e490610ab4565b60405180910390fd5b806005819055507fc907b159b3ab953a9e54ac7bd5dce2bf6745664a92ac1ca0d21dda07ce052e2a6005546040516104259190610929565b60405180910390a150565b60055481565b61043e610844565b73ffffffffffffffffffffffffffffffffffffffff1661045c61063c565b73ffffffffffffffffffffffffffffffffffffffff16146104b2576040517f08c379a00000000000000000000000000000000000000000000000000000000081526004016104a990610ab4565b60405180910390fd5b6104bc600061084c565b565b6104c6610844565b73ffffffffffffffffffffffffffffffffffffffff166104e461063c565b73ffffffffffffffffffffffffffffffffffffffff161461053a576040517f08c379a000000000000000000000000000000000000000000000000000000000815260040161053190610ab4565b60405180910390fd5b806004819055507f8de4e09146330265d90dc43c484b706c38da69d576ee558a530dc144a3eb4bc76004546040516105729190610929565b60405180910390a150565b610585610844565b73ffffffffffffffffffffffffffffffffffffffff166105a361063c565b73ffffffffffffffffffffffffffffffffffffffff16146105f9576040517f08c379a00000000000000000000000000000000000000000000000000000000081526004016105f090610ab4565b60405180910390fd5b806006819055507f2452fcc6b5b09a25f18d7a95a3968c84a78d98aa87f7dc49fe76c83a36ab69fa6006546040516106319190610929565b60405180910390a150565b60008060009054906101000a900473ffffffffffffffffffffffffffffffffffffffff16905090565b60015481565b7f000000000000000000000000000000000000000000000000000000000000000081565b610697610844565b73ffffffffffffffffffffffffffffffffffffffff166106b561063c565b73ffffffffffffffffffffffffffffffffffffffff161461070b576040517f08c379a000000000000000000000000000000000000000000000000000000000815260040161070290610ab4565b60405180910390fd5b806001819055507fa1f814123f839834f7de198e1a5ec961e26474d2cb72b82cdf94309e59905dc8816040516107419190610929565b60405180910390a150565b610754610844565b73ffffffffffffffffffffffffffffffffffffffff1661077261063c565b73ffffffffffffffffffffffffffffffffffffffff16146107c8576040517f08c379a00000000000000000000000000000000000000000000000000000000081526004016107bf90610ab4565b60405180910390fd5b600073ffffffffffffffffffffffffffffffffffffffff168173ffffffffffffffffffffffffffffffffffffffff161415610838576040517f08c379a000000000000000000000000000000000000000000000000000000000815260040161082f90610b46565b60405180910390fd5b6108418161084c565b50565b600033905090565b60008060009054906101000a900473ffffffffffffffffffffffffffffffffffffffff169050816000806101000a81548173ffffffffffffffffffffffffffffffffffffffff021916908373ffffffffffffffffffffffffffffffffffffffff1602179055508173ffffffffffffffffffffffffffffffffffffffff168173ffffffffffffffffffffffffffffffffffffffff167f8be0079c531659141344cd1fd0a4f28419497f9722a3daafe3b4186f6b6457e060405160405180910390a35050565b6000819050919050565b61092381610910565b82525050565b600060208201905061093e600083018461091a565b92915050565b600080fd5b61095281610910565b811461095d57600080fd5b50565b60008135905061096f81610949565b92915050565b60006020828403121561098b5761098a610944565b5b600061099984828501610960565b91505092915050565b600073ffffffffffffffffffffffffffffffffffffffff82169050919050565b60006109cd826109a2565b9050919050565b6109dd816109c2565b82525050565b60006020820190506109f860008301846109d4565b92915050565b610a07816109c2565b8114610a1257600080fd5b50565b600081359050610a24816109fe565b92915050565b600060208284031215610a4057610a3f610944565b5b6000610a4e84828501610a15565b91505092915050565b600082825260208201905092915050565b7f4f776e61626c653a2063616c6c6572206973206e6f7420746865206f776e6572600082015250565b6000610a9e602083610a57565b9150610aa982610a68565b602082019050919050565b60006020820190508181036000830152610acd81610a91565b9050919050565b7f4f776e61626c653a206e6577206f776e657220697320746865207a65726f206160008201527f6464726573730000000000000000000000000000000000000000000000000000602082015250565b6000610b30602683610a57565b9150610b3b82610ad4565b604082019050919050565b60006020820190508181036000830152610b5f81610b23565b905091905056fea2646970667358221220872843e1d220309512d3a220d0f58d178d3bc0b861db07d33868fe984114b26264736f6c63430008090033",
  "linkReferences": {},
  "deployedLinkReferences": {}
}