{
  "_format": "hh-sol-artifact-1",
  "contractName": "AdminProxy",
  "sourceName": "contracts/AdminProxy.sol",
  "abi": [
    {
      "inputs": [],
      "stateMutability": "nonpayable",
      "type": "constructor"
    },
    {
      "anonymous": false,
      "inputs": [],
      "name": "ContributionsOpen",
      "type": "event"
    },
    {
      "anonymous": false,
      "inputs": [
        {
          "indexed": true,
          "internalType": "address",
          "name": "previousOwner",
          "type": "address"
        },
        {
          "indexed": true,
          "internalType": "address",
          "name": "newOwner",
          "type": "address"
        }
      ],
      "name": "OwnershipTransferred",
      "type": "event"
    },
    {
      "anonymous": false,
      "inputs": [],
      "name": "VotingOpen",
      "type": "event"
    },
    {
      "inputs": [],
      "name": "contentAddress",
      "outputs": [
        {
          "internalType": "address",
          "name": "",
          "type": "address"
        }
      ],
      "stateMutability": "view",
      "type": "function"
    },
    {
      "inputs": [],
      "name": "contentContract",
      "outputs": [
        {
          "internalType": "contract Content",
          "name": "",
          "type": "address"
        }
      ],
      "stateMutability": "view",
      "type": "function"
    },
    {
      "inputs": [],
      "name": "contributionsOpen",
      "outputs": [
        {
          "internalType": "bool",
          "name": "",
          "type": "bool"
        }
      ],
      "stateMutability": "view",
      "type": "function"
    },
    {
      "inputs": [],
      "name": "endRound",
      "outputs": [],
      "stateMutability": "nonpayable",
      "type": "function"
    },
    {
      "inputs": [],
      "name": "owner",
      "outputs": [
        {
          "internalType": "address",
          "name": "",
          "type": "address"
        }
      ],
      "stateMutability": "view",
      "type": "function"
    },
    {
      "inputs": [],
      "name": "renounceOwnership",
      "outputs": [],
      "stateMutability": "nonpayable",
      "type": "function"
    },
    {
      "inputs": [],
      "name": "settings",
      "outputs": [
        {
          "internalType": "contract Settings",
          "name": "",
          "type": "address"
        }
      ],
      "stateMutability": "view",
      "type": "function"
    },
    {
      "inputs": [],
      "name": "settingsAddress",
      "outputs": [
        {
          "internalType": "address",
          "name": "",
          "type": "address"
        }
      ],
      "stateMutability": "view",
      "type": "function"
    },
    {
      "inputs": [],
      "name": "startContributionPeriod",
      "outputs": [],
      "stateMutability": "nonpayable",
      "type": "function"
    },
    {
      "inputs": [],
      "name": "startVotingPeriod",
      "outputs": [],
      "stateMutability": "nonpayable",
      "type": "function"
    },
    {
      "inputs": [
        {
          "internalType": "address",
          "name": "newOwner",
          "type": "address"
        }
      ],
      "name": "transferOwnership",
      "outputs": [],
      "stateMutability": "nonpayable",
      "type": "function"
    },
    {
      "inputs": [],
      "name": "votingOpen",
      "outputs": [
        {
          "internalType": "bool",
          "name": "",
          "type": "bool"
        }
      ],
      "stateMutability": "view",
      "type": "function"
    }
  ],
  "bytecode": "0x60c06040523480156200001157600080fd5b506200003262000026620001ed60201b60201c565b620001f560201b60201c565b6040516200004090620002b9565b604051809103906000f0801580156200005d573d6000803e3d6000fd5b50600260006101000a81548173ffffffffffffffffffffffffffffffffffffffff021916908373ffffffffffffffffffffffffffffffffffffffff160217905550600260009054906101000a900473ffffffffffffffffffffffffffffffffffffffff1673ffffffffffffffffffffffffffffffffffffffff1660a08173ffffffffffffffffffffffffffffffffffffffff168152505030600260009054906101000a900473ffffffffffffffffffffffffffffffffffffffff166040516200012690620002c7565b620001339291906200031a565b604051809103906000f08015801562000150573d6000803e3d6000fd5b50600160006101000a81548173ffffffffffffffffffffffffffffffffffffffff021916908373ffffffffffffffffffffffffffffffffffffffff160217905550600160009054906101000a900473ffffffffffffffffffffffffffffffffffffffff1673ffffffffffffffffffffffffffffffffffffffff1660808173ffffffffffffffffffffffffffffffffffffffff168152505062000347565b600033905090565b60008060009054906101000a900473ffffffffffffffffffffffffffffffffffffffff169050816000806101000a81548173ffffffffffffffffffffffffffffffffffffffff021916908373ffffffffffffffffffffffffffffffffffffffff1602179055508173ffffffffffffffffffffffffffffffffffffffff168173ffffffffffffffffffffffffffffffffffffffff167f8be0079c531659141344cd1fd0a4f28419497f9722a3daafe3b4186f6b6457e060405160405180910390a35050565b610cfc806200159583390190565b61aba8806200229183390190565b600073ffffffffffffffffffffffffffffffffffffffff82169050919050565b60006200030282620002d5565b9050919050565b6200031481620002f5565b82525050565b600060408201905062000331600083018562000309565b62000340602083018462000309565b9392505050565b60805160a0516112286200036d600039600061021b015260006101d101526112286000f3fe608060405234801561001057600080fd5b50600436106100b45760003560e01c80638da5cb5b116100715780638da5cb5b14610145578063a95824b414610163578063ba555b1f14610181578063c64482ab1461018b578063e06174e414610195578063f2fde38b146101b3576100b4565b8063129b9775146100b95780632cb7d92f146100d757806340373c86146100f55780637115486114610113578063715018a614610131578063749aa2d91461013b575b600080fd5b6100c16101cf565b6040516100ce9190610bbc565b60405180910390f35b6100df6101f3565b6040516100ec9190610c36565b60405180910390f35b6100fd610219565b60405161010a9190610bbc565b60405180910390f35b61011b61023d565b6040516101289190610c6c565b60405180910390f35b610139610250565b005b6101436102d8565b005b61014d610548565b60405161015a9190610bbc565b60405180910390f35b61016b610571565b6040516101789190610c6c565b60405180910390f35b610189610584565b005b6101936106d3565b005b61019d610991565b6040516101aa9190610ca8565b60405180910390f35b6101cd60048036038101906101c89190610cf4565b6109b7565b005b7f000000000000000000000000000000000000000000000000000000000000000081565b600160009054906101000a900473ffffffffffffffffffffffffffffffffffffffff1681565b7f000000000000000000000000000000000000000000000000000000000000000081565b600060149054906101000a900460ff1681565b610258610aaf565b73ffffffffffffffffffffffffffffffffffffffff16610276610548565b73ffffffffffffffffffffffffffffffffffffffff16146102cc576040517f08c379a00000000000000000000000000000000000000000000000000000000081526004016102c390610d7e565b60405180910390fd5b6102d66000610ab7565b565b6102e0610aaf565b73ffffffffffffffffffffffffffffffffffffffff166102fe610548565b73ffffffffffffffffffffffffffffffffffffffff1614610354576040517f08c379a000000000000000000000000000000000000000000000000000000000815260040161034b90610d7e565b60405180910390fd5b600060149054906101000a900460ff1615801561037d5750600060159054906101000a900460ff165b6103bc576040517f08c379a00000000000000000000000000000000000000000000000000000000081526004016103b390610e10565b60405180910390fd5b600260009054906101000a900473ffffffffffffffffffffffffffffffffffffffff1673ffffffffffffffffffffffffffffffffffffffff16639117bd096040518163ffffffff1660e01b815260040160206040518083038186803b15801561042457600080fd5b505afa158015610438573d6000803e3d6000fd5b505050506040513d601f19601f8201168201806040525081019061045c9190610e66565b6004546104699190610ec2565b42116104aa576040517f08c379a00000000000000000000000000000000000000000000000000000000081526004016104a190610f8a565b60405180910390fd5b60008060156101000a81548160ff021916908315150217905550600160009054906101000a900473ffffffffffffffffffffffffffffffffffffffff1673ffffffffffffffffffffffffffffffffffffffff1663ccd7b04e6040518163ffffffff1660e01b8152600401600060405180830381600087803b15801561052e57600080fd5b505af1158015610542573d6000803e3d6000fd5b50505050565b60008060009054906101000a900473ffffffffffffffffffffffffffffffffffffffff16905090565b600060159054906101000a900460ff1681565b61058c610aaf565b73ffffffffffffffffffffffffffffffffffffffff166105aa610548565b73ffffffffffffffffffffffffffffffffffffffff1614610600576040517f08c379a00000000000000000000000000000000000000000000000000000000081526004016105f790610d7e565b60405180910390fd5b600060149054906101000a900460ff1615801561062a5750600060159054906101000a900460ff16155b610669576040517f08c379a00000000000000000000000000000000000000000000000000000000081526004016106609061101c565b60405180910390fd5b6001600060146101000a81548160ff02191690831515021790555060008060156101000a81548160ff021916908315150217905550426005819055507fd2b56b98dab4b6d8724538b2afb755d67b5cd09d0645f8e8eb2fea1993986a5d60405160405180910390a1565b6106db610aaf565b73ffffffffffffffffffffffffffffffffffffffff166106f9610548565b73ffffffffffffffffffffffffffffffffffffffff161461074f576040517f08c379a000000000000000000000000000000000000000000000000000000000815260040161074690610d7e565b60405180910390fd5b600060149054906101000a900460ff1680156107785750600060159054906101000a900460ff16155b6107b7576040517f08c379a00000000000000000000000000000000000000000000000000000000081526004016107ae906110ae565b60405180910390fd5b600260009054906101000a900473ffffffffffffffffffffffffffffffffffffffff1673ffffffffffffffffffffffffffffffffffffffff166315d5f7e96040518163ffffffff1660e01b815260040160206040518083038186803b15801561081f57600080fd5b505afa158015610833573d6000803e3d6000fd5b505050506040513d601f19601f820116820180604052508101906108579190610e66565b6005546108649190610ec2565b42116108a5576040517f08c379a000000000000000000000000000000000000000000000000000000000815260040161089c90611140565b60405180910390fd5b600160009054906101000a900473ffffffffffffffffffffffffffffffffffffffff1673ffffffffffffffffffffffffffffffffffffffff16638e1138346040518163ffffffff1660e01b8152600401600060405180830381600087803b15801561090f57600080fd5b505af1158015610923573d6000803e3d6000fd5b5050505060008060146101000a81548160ff0219169083151502179055506001600060156101000a81548160ff021916908315150217905550426004819055507f8089789a86616a2428e26766961eaaa205ab084aac14a9cb98704e59af2b89e660405160405180910390a1565b600260009054906101000a900473ffffffffffffffffffffffffffffffffffffffff1681565b6109bf610aaf565b73ffffffffffffffffffffffffffffffffffffffff166109dd610548565b73ffffffffffffffffffffffffffffffffffffffff1614610a33576040517f08c379a0000000000000000000000000000000000000000000000000000000008152600401610a2a90610d7e565b60405180910390fd5b600073ffffffffffffffffffffffffffffffffffffffff168173ffffffffffffffffffffffffffffffffffffffff161415610aa3576040517f08c379a0000000000000000000000000000000000000000000000000000000008152600401610a9a906111d2565b60405180910390fd5b610aac81610ab7565b50565b600033905090565b60008060009054906101000a900473ffffffffffffffffffffffffffffffffffffffff169050816000806101000a81548173ffffffffffffffffffffffffffffffffffffffff021916908373ffffffffffffffffffffffffffffffffffffffff1602179055508173ffffffffffffffffffffffffffffffffffffffff168173ffffffffffffffffffffffffffffffffffffffff167f8be0079c531659141344cd1fd0a4f28419497f9722a3daafe3b4186f6b6457e060405160405180910390a35050565b600073ffffffffffffffffffffffffffffffffffffffff82169050919050565b6000610ba682610b7b565b9050919050565b610bb681610b9b565b82525050565b6000602082019050610bd16000830184610bad565b92915050565b6000819050919050565b6000610bfc610bf7610bf284610b7b565b610bd7565b610b7b565b9050919050565b6000610c0e82610be1565b9050919050565b6000610c2082610c03565b9050919050565b610c3081610c15565b82525050565b6000602082019050610c4b6000830184610c27565b92915050565b60008115159050919050565b610c6681610c51565b82525050565b6000602082019050610c816000830184610c5d565b92915050565b6000610c9282610c03565b9050919050565b610ca281610c87565b82525050565b6000602082019050610cbd6000830184610c99565b92915050565b600080fd5b610cd181610b9b565b8114610cdc57600080fd5b50565b600081359050610cee81610cc8565b92915050565b600060208284031215610d0a57610d09610cc3565b5b6000610d1884828501610cdf565b91505092915050565b600082825260208201905092915050565b7f4f776e61626c653a2063616c6c6572206973206e6f7420746865206f776e6572600082015250565b6000610d68602083610d21565b9150610d7382610d32565b602082019050919050565b60006020820190508181036000830152610d9781610d5b565b9050919050565b7f526f756e64206d75737420656e6420616674657220766f74696e67207065726960008201527f6f64000000000000000000000000000000000000000000000000000000000000602082015250565b6000610dfa602283610d21565b9150610e0582610d9e565b604082019050919050565b60006020820190508181036000830152610e2981610ded565b9050919050565b6000819050919050565b610e4381610e30565b8114610e4e57600080fd5b50565b600081519050610e6081610e3a565b92915050565b600060208284031215610e7c57610e7b610cc3565b5b6000610e8a84828501610e51565b91505092915050565b7f4e487b7100000000000000000000000000000000000000000000000000000000600052601160045260246000fd5b6000610ecd82610e30565b9150610ed883610e30565b9250827fffffffffffffffffffffffffffffffffffffffffffffffffffffffffffffffff03821115610f0d57610f0c610e93565b5b828201905092915050565b7f526f756e642063616e6e6f7420656e6420756e74696c20656e64206f6620766f60008201527f74696e672074696d650000000000000000000000000000000000000000000000602082015250565b6000610f74602983610d21565b9150610f7f82610f18565b604082019050919050565b60006020820190508181036000830152610fa381610f67565b9050919050565b7f436f6e747269627574696f6e732063616e6e6f7420626567696e20756e74696c60008201527f206c61737420726f756e642068617320656e6465640000000000000000000000602082015250565b6000611006603583610d21565b915061101182610faa565b604082019050919050565b6000602082019050818103600083015261103581610ff9565b9050919050565b7f566f74696e67206d75737420626567696e20616674657220636f6e747269627560008201527f74696f6e20706572696f64000000000000000000000000000000000000000000602082015250565b6000611098602b83610d21565b91506110a38261103c565b604082019050919050565b600060208201905081810360008301526110c78161108b565b9050919050565b7f566f74696e672063616e6e6f7420626567696e20756e74696c20656e64206f6660008201527f20636f6e747269627574696f6e2074696d650000000000000000000000000000602082015250565b600061112a603283610d21565b9150611135826110ce565b604082019050919050565b600060208201905081810360008301526111598161111d565b9050919050565b7f4f776e61626c653a206e6577206f776e657220697320746865207a65726f206160008201527f6464726573730000000000000000000000000000000000000000000000000000602082015250565b60006111bc602683610d21565b91506111c782611160565b604082019050919050565b600060208201905081810360008301526111eb816111af565b905091905056fea26469706673582212208c81ec7ea504d72049d13e4178f66716d12b912f21321ca121af48fe5eda3ebe64736f6c6343000809003360a060405234801561001057600080fd5b5061002d61002261007960201b60201c565b61008160201b60201c565b6002600381905550600180819055506001600281905550662386f26fc1000060048190555067016345785d8a000060058190555062989680600681905550601460808181525050610145565b600033905090565b60008060009054906101000a900473ffffffffffffffffffffffffffffffffffffffff169050816000806101000a81548173ffffffffffffffffffffffffffffffffffffffff021916908373ffffffffffffffffffffffffffffffffffffffff1602179055508173ffffffffffffffffffffffffffffffffffffffff168173ffffffffffffffffffffffffffffffffffffffff167f8be0079c531659141344cd1fd0a4f28419497f9722a3daafe3b4186f6b6457e060405160405180910390a35050565b608051610b9c610160600039600061066d0152610b9c6000f3fe608060405234801561001057600080fd5b50600436106100f55760003560e01c8063715018a6116100975780639117bd09116100665780639117bd0914610228578063a47954bb14610246578063ebbd051714610264578063f2fde38b14610280576100f5565b8063715018a6146101c85780637184302f146101d25780637275ee9b146101ee5780638da5cb5b1461020a576100f5565b80633230d549116100d35780633230d549146101545780633a8cdb651461017257806340140c481461018e57806351e75a8b146101aa576100f5565b806315d5f7e9146100fa57806321a455c4146101185780632f42091914610136575b600080fd5b61010261029c565b60405161010f9190610929565b60405180910390f35b6101206102a2565b60405161012d9190610929565b60405180910390f35b61013e6102a8565b60405161014b9190610929565b60405180910390f35b61015c6102ae565b6040516101699190610929565b60405180910390f35b61018c60048036038101906101879190610975565b6102b4565b005b6101a860048036038101906101a39190610975565b610371565b005b6101b2610430565b6040516101bf9190610929565b60405180910390f35b6101d0610436565b005b6101ec60048036038101906101e79190610975565b6104be565b005b61020860048036038101906102039190610975565b61057d565b005b61021261063c565b60405161021f91906109e3565b60405180910390f35b610230610665565b60405161023d9190610929565b60405180910390f35b61024e61066b565b60405161025b9190610929565b60405180910390f35b61027e60048036038101906102799190610975565b61068f565b005b61029a60048036038101906102959190610a2a565b61074c565b005b60025481565b60035481565b60065481565b60045481565b6102bc610844565b73ffffffffffffffffffffffffffffffffffffffff166102da61063c565b73ffffffffffffffffffffffffffffffffffffffff1614610330576040517f08c379a000000000000000000000000000000000000000000000000000000000815260040161032790610ab4565b60405180910390fd5b806002819055507f80b0f055593848ff65135150efc98d3945c2f2a132eb9e4b7a81696a72cd0001816040516103669190610929565b60405180910390a150565b610379610844565b73ffffffffffffffffffffffffffffffffffffffff1661039761063c565b73ffffffffffffffffffffffffffffffffffffffff16146103ed576040517f08c379a00000000000000000000000000000000000000000000000000000000081526004016103e490610ab4565b60405180910390fd5b806005819055507fc907b159b3ab953a9e54ac7bd5dce2bf6745664a92ac1ca0d21dda07ce052e2a6005546040516104259190610929565b60405180910390a150565b60055481565b61043e610844565b73ffffffffffffffffffffffffffffffffffffffff1661045c61063c565b73ffffffffffffffffffffffffffffffffffffffff16146104b2576040517f08c379a00000000000000000000000000000000000000000000000000000000081526004016104a990610ab4565b60405180910390fd5b6104bc600061084c565b565b6104c6610844565b73ffffffffffffffffffffffffffffffffffffffff166104e461063c565b73ffffffffffffffffffffffffffffffffffffffff161461053a576040517f08c379a000000000000000000000000000000000000000000000000000000000815260040161053190610ab4565b60405180910390fd5b806004819055507f8de4e09146330265d90dc43c484b706c38da69d576ee558a530dc144a3eb4bc76004546040516105729190610929565b60405180910390a150565b610585610844565b73ffffffffffffffffffffffffffffffffffffffff166105a361063c565b73ffffffffffffffffffffffffffffffffffffffff16146105f9576040517f08c379a00000000000000000000000000000000000000000000000000000000081526004016105f090610ab4565b60405180910390fd5b806006819055507f2452fcc6b5b09a25f18d7a95a3968c84a78d98aa87f7dc49fe76c83a36ab69fa6006546040516106319190610929565b60405180910390a150565b60008060009054906101000a900473ffffffffffffffffffffffffffffffffffffffff16905090565b60015481565b7f000000000000000000000000000000000000000000000000000000000000000081565b610697610844565b73ffffffffffffffffffffffffffffffffffffffff166106b561063c565b73ffffffffffffffffffffffffffffffffffffffff161461070b576040517f08c379a000000000000000000000000000000000000000000000000000000000815260040161070290610ab4565b60405180910390fd5b806001819055507fa1f814123f839834f7de198e1a5ec961e26474d2cb72b82cdf94309e59905dc8816040516107419190610929565b60405180910390a150565b610754610844565b73ffffffffffffffffffffffffffffffffffffffff1661077261063c565b73ffffffffffffffffffffffffffffffffffffffff16146107c8576040517f08c379a00000000000000000000000000000000000000000000000000000000081526004016107bf90610ab4565b60405180910390fd5b600073ffffffffffffffffffffffffffffffffffffffff168173ffffffffffffffffffffffffffffffffffffffff161415610838576040517f08c379a000000000000000000000000000000000000000000000000000000000815260040161082f90610b46565b60405180910390fd5b6108418161084c565b50565b600033905090565b60008060009054906101000a900473ffffffffffffffffffffffffffffffffffffffff169050816000806101000a81548173ffffffffffffffffffffffffffffffffffffffff021916908373ffffffffffffffffffffffffffffffffffffffff1602179055508173ffffffffffffffffffffffffffffffffffffffff168173ffffffffffffffffffffffffffffffffffffffff167f8be0079c531659141344cd1fd0a4f28419497f9722a3daafe3b4186f6b6457e060405160405180910390a35050565b6000819050919050565b61092381610910565b82525050565b600060208201905061093e600083018461091a565b92915050565b600080fd5b61095281610910565b811461095d57600080fd5b50565b60008135905061096f81610949565b92915050565b60006020828403121561098b5761098a610944565b5b600061099984828501610960565b91505092915050565b600073ffffffffffffffffffffffffffffffffffffffff82169050919050565b60006109cd826109a2565b9050919050565b6109dd816109c2565b82525050565b60006020820190506109f860008301846109d4565b92915050565b610a07816109c2565b8114610a1257600080fd5b50565b600081359050610a24816109fe565b92915050565b600060208284031215610a4057610a3f610944565b5b6000610a4e84828501610a15565b91505092915050565b600082825260208201905092915050565b7f4f776e61626c653a2063616c6c6572206973206e6f7420746865206f776e6572600082015250565b6000610a9e602083610a57565b9150610aa982610a68565b602082019050919050565b60006020820190508181036000830152610acd81610a91565b9050919050565b7f4f776e61626c653a206e6577206f776e657220697320746865207a65726f206160008201527f6464726573730000000000000000000000000000000000000000000000000000602082015250565b6000610b30602683610a57565b9150610b3b82610ad4565b604082019050919050565b60006020820190508181036000830152610b5f81610b23565b905091905056fea26469706673582212201bdfbeb426b82df4b0147bb0f87553b2f024cbfac9112f72c84b5084e7b07bf964736f6c6343000809003361010060405260016008553480156200001757600080fd5b506040516200aba83803806200aba883398181016040528101906200003d9190620004d7565b604051806020016040528060008152506200005e81620002b760201b60201c565b506200007f62000073620002d360201b60201c565b620002db60201b60201c565b6040516200008d90620003a1565b604051809103906000f080158015620000aa573d6000803e3d6000fd5b5073ffffffffffffffffffffffffffffffffffffffff1660c08173ffffffffffffffffffffffffffffffffffffffff168152505060c051600760006101000a81548173ffffffffffffffffffffffffffffffffffffffff021916908373ffffffffffffffffffffffffffffffffffffffff1602179055508073ffffffffffffffffffffffffffffffffffffffff1660a08173ffffffffffffffffffffffffffffffffffffffff168152505060a051600660006101000a81548173ffffffffffffffffffffffffffffffffffffffff021916908373ffffffffffffffffffffffffffffffffffffffff1602179055508173ffffffffffffffffffffffffffffffffffffffff1660808173ffffffffffffffffffffffffffffffffffffffff1681525050604051620001da90620003af565b604051809103906000f080158015620001f7573d6000803e3d6000fd5b5073ffffffffffffffffffffffffffffffffffffffff1660e08173ffffffffffffffffffffffffffffffffffffffff168152505060e051600560006101000a81548173ffffffffffffffffffffffffffffffffffffffff021916908373ffffffffffffffffffffffffffffffffffffffff16021790555030600460006101000a81548173ffffffffffffffffffffffffffffffffffffffff021916908373ffffffffffffffffffffffffffffffffffffffff160217905550505062000583565b8060029080519060200190620002cf929190620003bd565b5050565b600033905090565b6000600360009054906101000a900473ffffffffffffffffffffffffffffffffffffffff16905081600360006101000a81548173ffffffffffffffffffffffffffffffffffffffff021916908373ffffffffffffffffffffffffffffffffffffffff1602179055508173ffffffffffffffffffffffffffffffffffffffff168173ffffffffffffffffffffffffffffffffffffffff167f8be0079c531659141344cd1fd0a4f28419497f9722a3daafe3b4186f6b6457e060405160405180910390a35050565b61217980620064ac83390190565b612583806200862583390190565b828054620003cb906200054d565b90600052602060002090601f016020900481019282620003ef57600085556200043b565b82601f106200040a57805160ff19168380011785556200043b565b828001600101855582156200043b579182015b828111156200043a5782518255916020019190600101906200041d565b5b5090506200044a91906200044e565b5090565b5b80821115620004695760008160009055506001016200044f565b5090565b600080fd5b600073ffffffffffffffffffffffffffffffffffffffff82169050919050565b60006200049f8262000472565b9050919050565b620004b18162000492565b8114620004bd57600080fd5b50565b600081519050620004d181620004a6565b92915050565b60008060408385031215620004f157620004f06200046d565b5b60006200050185828601620004c0565b92505060206200051485828601620004c0565b9150509250929050565b7f4e487b7100000000000000000000000000000000000000000000000000000000600052602260045260246000fd5b600060028204905060018216806200056657607f821691505b602082108114156200057d576200057c6200051e565b5b50919050565b60805160a05160c05160e051615e786200063460003960008181610cf701528181610ddc01528181610e93015281816111990152612f120152600081816112900152818161137b015281816116a901528181611f93015281816120200152818161217f01528181612d430152612df7015260008181610a1401528181610af401528181610bd40152610f9b0152600081816110780152818161153901528181611d9c0152611e7a0152615e786000f3fe6080604052600436106101b65760003560e01c80634e65501e116100ec578063bc197c811161008a578063e985e9c511610064578063e985e9c514610617578063f23a6e6114610654578063f242432a14610691578063f2fde38b146106ba576101b6565b8063bc197c8114610598578063bfff4e4c146105d5578063ccd7b04e14610600576101b6565b806384a9312d116100c657806384a9312d146105025780638da5cb5b1461052d5780638e11383414610558578063a22cb4651461056f576101b6565b80634e65501e14610471578063715018a6146104ae5780637b8a96bc146104c5576101b6565b806316c920161161015957806336b79ae01161013357806336b79ae0146103b557806340373c86146103de578063421e108c146104095780634e1273f414610434576101b6565b806316c92016146103335780631f8d78cd146103705780632eb2c2d61461038c576101b6565b80630e89341c116101955780630e89341c1461027257806311e5ffbd146102af578063129b9775146102ec578063140ce03414610317576101b6565b8062fdd58e146101bb57806301ffc9a7146101f85780630b7ad54c14610235575b600080fd5b3480156101c757600080fd5b506101e260048036038101906101dd919061389a565b6106e3565b6040516101ef91906138e9565b60405180910390f35b34801561020457600080fd5b5061021f600480360381019061021a919061395c565b6107ac565b60405161022c91906139a4565b60405180910390f35b34801561024157600080fd5b5061025c600480360381019061025791906139bf565b61088e565b6040516102699190613a85565b60405180910390f35b34801561027e57600080fd5b50610299600480360381019061029491906139bf565b610933565b6040516102a69190613afc565b60405180910390f35b3480156102bb57600080fd5b506102d660048036038101906102d19190613b1e565b6109c7565b6040516102e391906138e9565b60405180910390f35b3480156102f857600080fd5b506103016109ec565b60405161030e9190613b6d565b60405180910390f35b610331600480360381019061032c9190613cbd565b610a12565b005b34801561033f57600080fd5b5061035a600480360381019061035591906139bf565b611056565b60405161036791906139a4565b60405180910390f35b61038a60048036038101906103859190613d70565b611076565b005b34801561039857600080fd5b506103b360048036038101906103ae9190613e94565b611449565b005b3480156103c157600080fd5b506103dc60048036038101906103d79190613f8f565b6114ea565b005b3480156103ea57600080fd5b506103f3611809565b6040516104009190613b6d565b60405180910390f35b34801561041557600080fd5b5061041e61182f565b60405161042b9190613b6d565b60405180910390f35b34801561044057600080fd5b5061045b600480360381019061045691906140b9565b611855565b60405161046891906141ef565b60405180910390f35b34801561047d57600080fd5b50610498600480360381019061049391906139bf565b61196e565b6040516104a59190613a85565b60405180910390f35b3480156104ba57600080fd5b506104c3611a0e565b005b3480156104d157600080fd5b506104ec60048036038101906104e79190614211565b611a96565b6040516104f99190613b6d565b60405180910390f35b34801561050e57600080fd5b50610517611ae4565b6040516105249190613b6d565b60405180910390f35b34801561053957600080fd5b50610542611b0a565b60405161054f9190613b6d565b60405180910390f35b34801561056457600080fd5b5061056d611b34565b005b34801561057b57600080fd5b5061059660048036038101906105919190614251565b611cf4565b005b3480156105a457600080fd5b506105bf60048036038101906105ba9190614342565b611d0a565b6040516105cc919061442d565b60405180910390f35b3480156105e157600080fd5b506105ea611d18565b6040516105f791906138e9565b60405180910390f35b34801561060c57600080fd5b50610615611d1e565b005b34801561062357600080fd5b5061063e60048036038101906106399190614448565b612220565b60405161064b91906139a4565b60405180910390f35b34801561066057600080fd5b5061067b60048036038101906106769190614488565b6122b4565b604051610688919061442d565b60405180910390f35b34801561069d57600080fd5b506106b860048036038101906106b39190614522565b612306565b005b3480156106c657600080fd5b506106e160048036038101906106dc91906145b9565b6123a7565b005b60008073ffffffffffffffffffffffffffffffffffffffff168373ffffffffffffffffffffffffffffffffffffffff161415610754576040517f08c379a000000000000000000000000000000000000000000000000000000000815260040161074b90614658565b60405180910390fd5b60008083815260200190815260200160002060008473ffffffffffffffffffffffffffffffffffffffff1673ffffffffffffffffffffffffffffffffffffffff16815260200190815260200160002054905092915050565b60007fd9b67a26000000000000000000000000000000000000000000000000000000007bffffffffffffffffffffffffffffffffffffffffffffffffffffffff1916827bffffffffffffffffffffffffffffffffffffffffffffffffffffffff1916148061087757507f0e89341c000000000000000000000000000000000000000000000000000000007bffffffffffffffffffffffffffffffffffffffffffffffffffffffff1916827bffffffffffffffffffffffffffffffffffffffffffffffffffffffff1916145b8061088757506108868261249f565b5b9050919050565b60606009600083815260200190815260200160002080546108ae906146a7565b80601f01602080910402602001604051908101604052809291908181526020018280546108da906146a7565b80156109275780601f106108fc57610100808354040283529160200191610927565b820191906000526020600020905b81548152906001019060200180831161090a57829003601f168201915b50505050509050919050565b606060028054610942906146a7565b80601f016020809104026020016040519081016040528092919081815260200182805461096e906146a7565b80156109bb5780601f10610990576101008083540402835291602001916109bb565b820191906000526020600020905b81548152906001019060200180831161099e57829003601f168201915b50505050509050919050565b600c602052816000526040600020602052806000526040600020600091509150505481565b600460009054906101000a900473ffffffffffffffffffffffffffffffffffffffff1681565b7f000000000000000000000000000000000000000000000000000000000000000073ffffffffffffffffffffffffffffffffffffffff16633230d5496040518163ffffffff1660e01b815260040160206040518083038186803b158015610a7857600080fd5b505afa158015610a8c573d6000803e3d6000fd5b505050506040513d601f19601f82011682018060405250810190610ab091906146ee565b821015610af2576040517f08c379a0000000000000000000000000000000000000000000000000000000008152600401610ae990614767565b60405180910390fd5b7f000000000000000000000000000000000000000000000000000000000000000073ffffffffffffffffffffffffffffffffffffffff166351e75a8b6040518163ffffffff1660e01b815260040160206040518083038186803b158015610b5857600080fd5b505afa158015610b6c573d6000803e3d6000fd5b505050506040513d601f19601f82011682018060405250810190610b9091906146ee565b341015610bd2576040517f08c379a0000000000000000000000000000000000000000000000000000000008152600401610bc9906147d3565b60405180910390fd5b7f000000000000000000000000000000000000000000000000000000000000000073ffffffffffffffffffffffffffffffffffffffff16632f4209196040518163ffffffff1660e01b815260040160206040518083038186803b158015610c3857600080fd5b505afa158015610c4c573d6000803e3d6000fd5b505050506040513d601f19601f82011682018060405250810190610c7091906146ee565b841015610cb2576040517f08c379a0000000000000000000000000000000000000000000000000000000008152600401610ca99061483f565b60405180910390fd5b83831115610cf5576040517f08c379a0000000000000000000000000000000000000000000000000000000008152600401610cec906148d1565b60405180910390fd5b7f000000000000000000000000000000000000000000000000000000000000000073ffffffffffffffffffffffffffffffffffffffff166371fe953d866001600854610d419190614920565b8787876040518663ffffffff1660e01b8152600401610d64959493929190614954565b600060405180830381600087803b158015610d7e57600080fd5b505af1158015610d92573d6000803e3d6000fd5b50505050610dc7600460009054906101000a900473ffffffffffffffffffffffffffffffffffffffff16600854600184612509565b610f52336001600854610dda9190614920565b7f000000000000000000000000000000000000000000000000000000000000000073ffffffffffffffffffffffffffffffffffffffff16639037e4076001600854610e259190614920565b6040518263ffffffff1660e01b8152600401610e4191906138e9565b60206040518083038186803b158015610e5957600080fd5b505afa158015610e6d573d6000803e3d6000fd5b505050506040513d601f19601f82011682018060405250810190610e9191906146ee565b7f000000000000000000000000000000000000000000000000000000000000000073ffffffffffffffffffffffffffffffffffffffff16637b78bd3f6001600854610edc9190614920565b6040518263ffffffff1660e01b8152600401610ef891906138e9565b60006040518083038186803b158015610f1057600080fd5b505afa158015610f24573d6000803e3d6000fd5b505050506040513d6000823e3d601f19601f82011682018060405250810190610f4d9190614a1e565b61269f565b7fa609ac751607689b5174c45e554eaded8d9e7d0b8f2243dbbcd7c8863371948f6001600854610f829190614920565b33604051610f91929190614a67565b60405180910390a17f000000000000000000000000000000000000000000000000000000000000000073ffffffffffffffffffffffffffffffffffffffff166321a455c46040518163ffffffff1660e01b815260040160206040518083038186803b158015610fff57600080fd5b505afa158015611013573d6000803e3d6000fd5b505050506040513d601f19601f8201168201806040525081019061103791906146ee565b600860008282546110489190614a90565b925050819055505050505050565b600a6020528060005260406000206000915054906101000a900460ff1681565b7f000000000000000000000000000000000000000000000000000000000000000073ffffffffffffffffffffffffffffffffffffffff1663711548616040518163ffffffff1660e01b815260040160206040518083038186803b1580156110dc57600080fd5b505afa1580156110f0573d6000803e3d6000fd5b505050506040513d601f19601f820116820180604052508101906111149190614afb565b611153576040517f08c379a000000000000000000000000000000000000000000000000000000000815260040161114a90614b9a565b60405180910390fd5b6008548110611197576040517f08c379a000000000000000000000000000000000000000000000000000000000815260040161118e90614c06565b60405180910390fd5b7f000000000000000000000000000000000000000000000000000000000000000073ffffffffffffffffffffffffffffffffffffffff1663b2d81b8d6001836111e09190614920565b6040518263ffffffff1660e01b81526004016111fc91906138e9565b60206040518083038186803b15801561121457600080fd5b505afa158015611228573d6000803e3d6000fd5b505050506040513d601f19601f8201168201806040525081019061124c91906146ee565b34101561128e576040517f08c379a000000000000000000000000000000000000000000000000000000000815260040161128590614c98565b60405180910390fd5b7f000000000000000000000000000000000000000000000000000000000000000073ffffffffffffffffffffffffffffffffffffffff1663712023ed33836040518363ffffffff1660e01b81526004016112e9929190614cb8565b60206040518083038186803b15801561130157600080fd5b505afa158015611315573d6000803e3d6000fd5b505050506040513d601f19601f820116820180604052508101906113399190614afb565b15611379576040517f08c379a000000000000000000000000000000000000000000000000000000000815260040161137090614d79565b60405180910390fd5b7f000000000000000000000000000000000000000000000000000000000000000073ffffffffffffffffffffffffffffffffffffffff16636f1ea804838333346040518563ffffffff1660e01b81526004016113d89493929190614d99565b600060405180830381600087803b1580156113f257600080fd5b505af1158015611406573d6000803e3d6000fd5b505050507f2064f4e53d6cd6d05d4b4f039c702aa7ef2a7220a77126c45c4371dfb1f7ca8633823460405161143d93929190614de5565b60405180910390a15050565b611451612774565b73ffffffffffffffffffffffffffffffffffffffff168573ffffffffffffffffffffffffffffffffffffffff161480611497575061149685611491612774565b612220565b5b6114d6576040517f08c379a00000000000000000000000000000000000000000000000000000000081526004016114cd90614e8e565b60405180910390fd5b6114e3858585858561277c565b5050505050565b8060006114f733836106e3565b11611537576040517f08c379a000000000000000000000000000000000000000000000000000000000815260040161152e90614f20565b60405180910390fd5b7f000000000000000000000000000000000000000000000000000000000000000073ffffffffffffffffffffffffffffffffffffffff1663a95824b46040518163ffffffff1660e01b815260040160206040518083038186803b15801561159d57600080fd5b505afa1580156115b1573d6000803e3d6000fd5b505050506040513d601f19601f820116820180604052508101906115d59190614afb565b611614576040517f08c379a000000000000000000000000000000000000000000000000000000000815260040161160b90614f8c565b60405180910390fd5b600c600083815260200190815260200160002060003373ffffffffffffffffffffffffffffffffffffffff1673ffffffffffffffffffffffffffffffffffffffff168152602001908152602001600020548411156116a7576040517f08c379a000000000000000000000000000000000000000000000000000000000815260040161169e90614ff8565b60405180910390fd5b7f000000000000000000000000000000000000000000000000000000000000000073ffffffffffffffffffffffffffffffffffffffff1663182983a28686866001876116f39190614a90565b6040518563ffffffff1660e01b81526004016117129493929190615018565b600060405180830381600087803b15801561172c57600080fd5b505af1158015611740573d6000803e3d6000fd5b50505050600284611751919061519d565b600c600084815260200190815260200160002060003373ffffffffffffffffffffffffffffffffffffffff1673ffffffffffffffffffffffffffffffffffffffff16815260200190815260200160002060008282546117b09190614920565b925050819055507ffc3d96492ee0868f630e39b70772f85e95ae6c91df8fafedc9eeeb86fffd317e338686866001876117e99190614a90565b6040516117fa9594939291906151e8565b60405180910390a15050505050565b600660009054906101000a900473ffffffffffffffffffffffffffffffffffffffff1681565b600560009054906101000a900473ffffffffffffffffffffffffffffffffffffffff1681565b6060815183511461189b576040517f08c379a0000000000000000000000000000000000000000000000000000000008152600401611892906152ad565b60405180910390fd5b6000835167ffffffffffffffff8111156118b8576118b7613b92565b5b6040519080825280602002602001820160405280156118e65781602001602082028036833780820191505090505b50905060005b84518110156119635761193385828151811061190b5761190a6152cd565b5b6020026020010151858381518110611926576119256152cd565b5b60200260200101516106e3565b828281518110611946576119456152cd565b5b6020026020010181815250508061195c906152fc565b90506118ec565b508091505092915050565b6009602052806000526040600020600091509050805461198d906146a7565b80601f01602080910402602001604051908101604052809291908181526020018280546119b9906146a7565b8015611a065780601f106119db57610100808354040283529160200191611a06565b820191906000526020600020905b8154815290600101906020018083116119e957829003601f168201915b505050505081565b611a16612774565b73ffffffffffffffffffffffffffffffffffffffff16611a34611b0a565b73ffffffffffffffffffffffffffffffffffffffff1614611a8a576040517f08c379a0000000000000000000000000000000000000000000000000000000008152600401611a8190615391565b60405180910390fd5b611a946000612a90565b565b600b6020528160005260406000208181548110611ab257600080fd5b906000526020600020016000915091509054906101000a900473ffffffffffffffffffffffffffffffffffffffff1681565b600760009054906101000a900473ffffffffffffffffffffffffffffffffffffffff1681565b6000600360009054906101000a900473ffffffffffffffffffffffffffffffffffffffff16905090565b611b3c612774565b73ffffffffffffffffffffffffffffffffffffffff16611b5a611b0a565b73ffffffffffffffffffffffffffffffffffffffff1614611bb0576040517f08c379a0000000000000000000000000000000000000000000000000000000008152600401611ba790615391565b60405180910390fd5b60005b600854811015611cc55760005b600b600083815260200190815260200160002080549050811015611cb0576000600b60008481526020019081526020016000208281548110611c0557611c046152cd565b5b9060005260206000200160009054906101000a900473ffffffffffffffffffffffffffffffffffffffff1690506002611c3e82856106e3565b611c48919061519d565b600c600085815260200190815260200160002060008373ffffffffffffffffffffffffffffffffffffffff1673ffffffffffffffffffffffffffffffffffffffff16815260200190815260200160002081905550508080611ca8906152fc565b915050611bc0565b50600281611cbe9190614a90565b9050611bb3565b507f856dc14686aa00737e95d2d734cc40eeaafb38e23a9142e576d7881adae958e260405160405180910390a1565b611d06611cff612774565b8383612b56565b5050565b600098975050505050505050565b60085481565b611d26612774565b73ffffffffffffffffffffffffffffffffffffffff16611d44611b0a565b73ffffffffffffffffffffffffffffffffffffffff1614611d9a576040517f08c379a0000000000000000000000000000000000000000000000000000000008152600401611d9190615391565b60405180910390fd5b7f000000000000000000000000000000000000000000000000000000000000000073ffffffffffffffffffffffffffffffffffffffff1663a95824b46040518163ffffffff1660e01b815260040160206040518083038186803b158015611e0057600080fd5b505afa158015611e14573d6000803e3d6000fd5b505050506040513d601f19601f82011682018060405250810190611e389190614afb565b15611e78576040517f08c379a0000000000000000000000000000000000000000000000000000000008152600401611e6f906153fd565b60405180910390fd5b7f000000000000000000000000000000000000000000000000000000000000000073ffffffffffffffffffffffffffffffffffffffff1663711548616040518163ffffffff1660e01b815260040160206040518083038186803b158015611ede57600080fd5b505afa158015611ef2573d6000803e3d6000fd5b505050506040513d601f19601f82011682018060405250810190611f169190614afb565b15611f56576040517f08c379a0000000000000000000000000000000000000000000000000000000008152600401611f4d90615469565b60405180910390fd5b6000600190505b6000611f8b600460009054906101000a900473ffffffffffffffffffffffffffffffffffffffff16836106e3565b111561221d577f000000000000000000000000000000000000000000000000000000000000000073ffffffffffffffffffffffffffffffffffffffff16634d318b0e826040518263ffffffff1660e01b8152600401611fea91906138e9565b600060405180830381600087803b15801561200457600080fd5b505af1158015612018573d6000803e3d6000fd5b5050505060007f000000000000000000000000000000000000000000000000000000000000000073ffffffffffffffffffffffffffffffffffffffff1663efe43338836040518263ffffffff1660e01b815260040161207791906138e9565b60206040518083038186803b15801561208f57600080fd5b505afa1580156120a3573d6000803e3d6000fd5b505050506040513d601f19601f820116820180604052508101906120c7919061549e565b9050600073ffffffffffffffffffffffffffffffffffffffff168173ffffffffffffffffffffffffffffffffffffffff1614612145576121078282612cc3565b7f8d511c583493088fc8d8e4c8e5ae0269cbe8211be1714065e49166e7f04b698f8282604051612138929190614a67565b60405180910390a161217d565b7fda296beb22d6e14ae09fe0e95cd0d2091e17b1d83f03e284cf19836447dff6c28260405161217491906138e9565b60405180910390a15b7f000000000000000000000000000000000000000000000000000000000000000073ffffffffffffffffffffffffffffffffffffffff166387bd4520836040518263ffffffff1660e01b81526004016121d691906138e9565b600060405180830381600087803b1580156121f057600080fd5b505af1158015612204573d6000803e3d6000fd5b505050506002826122159190614a90565b915050611f5d565b50565b6000600160008473ffffffffffffffffffffffffffffffffffffffff1673ffffffffffffffffffffffffffffffffffffffff16815260200190815260200160002060008373ffffffffffffffffffffffffffffffffffffffff1673ffffffffffffffffffffffffffffffffffffffff16815260200190815260200160002060009054906101000a900460ff16905092915050565b600082826009600088815260200190815260200160002091906122d89291906136c9565b507ff23a6e612e1ff4830e658fe43f4e3cb4a5f8170bd5d9e69fb5d7a7fa9e4fdf9790509695505050505050565b61230e612774565b73ffffffffffffffffffffffffffffffffffffffff168573ffffffffffffffffffffffffffffffffffffffff16148061235457506123538561234e612774565b612220565b5b612393576040517f08c379a000000000000000000000000000000000000000000000000000000000815260040161238a9061553d565b60405180910390fd5b6123a08585858585612fe4565b5050505050565b6123af612774565b73ffffffffffffffffffffffffffffffffffffffff166123cd611b0a565b73ffffffffffffffffffffffffffffffffffffffff1614612423576040517f08c379a000000000000000000000000000000000000000000000000000000000815260040161241a90615391565b60405180910390fd5b600073ffffffffffffffffffffffffffffffffffffffff168173ffffffffffffffffffffffffffffffffffffffff161415612493576040517f08c379a000000000000000000000000000000000000000000000000000000000815260040161248a906155cf565b60405180910390fd5b61249c81612a90565b50565b60007f01ffc9a7000000000000000000000000000000000000000000000000000000007bffffffffffffffffffffffffffffffffffffffffffffffffffffffff1916827bffffffffffffffffffffffffffffffffffffffffffffffffffffffff1916149050919050565b600073ffffffffffffffffffffffffffffffffffffffff168473ffffffffffffffffffffffffffffffffffffffff161415612579576040517f08c379a000000000000000000000000000000000000000000000000000000000815260040161257090615661565b60405180910390fd5b6000612583612774565b90506125a48160008761259588613266565b61259e88613266565b876132e0565b8260008086815260200190815260200160002060008773ffffffffffffffffffffffffffffffffffffffff1673ffffffffffffffffffffffffffffffffffffffff16815260200190815260200160002060008282546126039190614a90565b925050819055508473ffffffffffffffffffffffffffffffffffffffff16600073ffffffffffffffffffffffffffffffffffffffff168273ffffffffffffffffffffffffffffffffffffffff167fc3d58168c5ae7397731d063d5bbf3d657854427343f4c083240f7aacaa2d0f628787604051612681929190615681565b60405180910390a4612698816000878787876132e8565b5050505050565b60006002846126ae91906156d9565b146126ee576040517f08c379a00000000000000000000000000000000000000000000000000000000081526004016126e590615756565b60405180910390fd5b6126fa84848484612509565b600b6000848152602001908152602001600020849080600181540180825580915050600190039060005260206000200160009091909190916101000a81548173ffffffffffffffffffffffffffffffffffffffff021916908373ffffffffffffffffffffffffffffffffffffffff16021790555050505050565b600033905090565b81518351146127c0576040517f08c379a00000000000000000000000000000000000000000000000000000000081526004016127b7906157e8565b60405180910390fd5b600073ffffffffffffffffffffffffffffffffffffffff168473ffffffffffffffffffffffffffffffffffffffff161415612830576040517f08c379a00000000000000000000000000000000000000000000000000000000081526004016128279061587a565b60405180910390fd5b600061283a612774565b905061284a8187878787876132e0565b60005b84518110156129fb57600085828151811061286b5761286a6152cd565b5b60200260200101519050600085838151811061288a576128896152cd565b5b60200260200101519050600080600084815260200190815260200160002060008b73ffffffffffffffffffffffffffffffffffffffff1673ffffffffffffffffffffffffffffffffffffffff1681526020019081526020016000205490508181101561292b576040517f08c379a00000000000000000000000000000000000000000000000000000000081526004016129229061590c565b60405180910390fd5b81810360008085815260200190815260200160002060008c73ffffffffffffffffffffffffffffffffffffffff1673ffffffffffffffffffffffffffffffffffffffff168152602001908152602001600020819055508160008085815260200190815260200160002060008b73ffffffffffffffffffffffffffffffffffffffff1673ffffffffffffffffffffffffffffffffffffffff16815260200190815260200160002060008282546129e09190614a90565b92505081905550505050806129f4906152fc565b905061284d565b508473ffffffffffffffffffffffffffffffffffffffff168673ffffffffffffffffffffffffffffffffffffffff168273ffffffffffffffffffffffffffffffffffffffff167f4a39dc06d4c0dbc64b70af90fd698a233a518aa5d07e595d983b8c0526c8f7fb8787604051612a7292919061592c565b60405180910390a4612a888187878787876134cf565b505050505050565b6000600360009054906101000a900473ffffffffffffffffffffffffffffffffffffffff16905081600360006101000a81548173ffffffffffffffffffffffffffffffffffffffff021916908373ffffffffffffffffffffffffffffffffffffffff1602179055508173ffffffffffffffffffffffffffffffffffffffff168173ffffffffffffffffffffffffffffffffffffffff167f8be0079c531659141344cd1fd0a4f28419497f9722a3daafe3b4186f6b6457e060405160405180910390a35050565b8173ffffffffffffffffffffffffffffffffffffffff168373ffffffffffffffffffffffffffffffffffffffff161415612bc5576040517f08c379a0000000000000000000000000000000000000000000000000000000008152600401612bbc906159d5565b60405180910390fd5b80600160008573ffffffffffffffffffffffffffffffffffffffff1673ffffffffffffffffffffffffffffffffffffffff16815260200190815260200160002060008473ffffffffffffffffffffffffffffffffffffffff1673ffffffffffffffffffffffffffffffffffffffff16815260200190815260200160002060006101000a81548160ff0219169083151502179055508173ffffffffffffffffffffffffffffffffffffffff168373ffffffffffffffffffffffffffffffffffffffff167f17307eab39ab6107e8899845ad3d59bd9653f200f220920489ca2b5937696c3183604051612cb691906139a4565b60405180910390a3505050565b612ccb612774565b73ffffffffffffffffffffffffffffffffffffffff16612ce9611b0a565b73ffffffffffffffffffffffffffffffffffffffff1614612d3f576040517f08c379a0000000000000000000000000000000000000000000000000000000008152600401612d3690615391565b60405180910390fd5b60007f000000000000000000000000000000000000000000000000000000000000000073ffffffffffffffffffffffffffffffffffffffff166362a4321c83856040518363ffffffff1660e01b8152600401612d9c929190614cb8565b60006040518083038186803b158015612db457600080fd5b505afa158015612dc8573d6000803e3d6000fd5b505050506040513d6000823e3d601f19601f82011682018060405250810190612df19190614a1e565b905060007f000000000000000000000000000000000000000000000000000000000000000073ffffffffffffffffffffffffffffffffffffffff1663449e815d84866040518363ffffffff1660e01b8152600401612e50929190614cb8565b60206040518083038186803b158015612e6857600080fd5b505afa158015612e7c573d6000803e3d6000fd5b505050506040513d601f19601f82011682018060405250810190612ea091906146ee565b90506009600085815260200190815260200160002082604051602001612ec7929190615aeb565b604051602081830303815290604052600960008681526020019081526020016000209080519060200190612efc92919061374f565b506000600185612f0c9190614920565b905060007f000000000000000000000000000000000000000000000000000000000000000073ffffffffffffffffffffffffffffffffffffffff1663a251e13a8487856040518463ffffffff1660e01b8152600401612f6d93929190615b1e565b602060405180830381600087803b158015612f8757600080fd5b505af1158015612f9b573d6000803e3d6000fd5b505050506040513d601f19601f82011682018060405250810190612fbf91906146ee565b9050612fdc8583836040518060200160405280600081525061269f565b505050505050565b600073ffffffffffffffffffffffffffffffffffffffff168473ffffffffffffffffffffffffffffffffffffffff161415613054576040517f08c379a000000000000000000000000000000000000000000000000000000000815260040161304b9061587a565b60405180910390fd5b600061305e612774565b905061307e81878761306f88613266565b61307888613266565b876132e0565b600080600086815260200190815260200160002060008873ffffffffffffffffffffffffffffffffffffffff1673ffffffffffffffffffffffffffffffffffffffff16815260200190815260200160002054905083811015613115576040517f08c379a000000000000000000000000000000000000000000000000000000000815260040161310c9061590c565b60405180910390fd5b83810360008087815260200190815260200160002060008973ffffffffffffffffffffffffffffffffffffffff1673ffffffffffffffffffffffffffffffffffffffff168152602001908152602001600020819055508360008087815260200190815260200160002060008873ffffffffffffffffffffffffffffffffffffffff1673ffffffffffffffffffffffffffffffffffffffff16815260200190815260200160002060008282546131ca9190614a90565b925050819055508573ffffffffffffffffffffffffffffffffffffffff168773ffffffffffffffffffffffffffffffffffffffff168373ffffffffffffffffffffffffffffffffffffffff167fc3d58168c5ae7397731d063d5bbf3d657854427343f4c083240f7aacaa2d0f628888604051613247929190615681565b60405180910390a461325d8288888888886132e8565b50505050505050565b60606000600167ffffffffffffffff81111561328557613284613b92565b5b6040519080825280602002602001820160405280156132b35781602001602082028036833780820191505090505b50905082816000815181106132cb576132ca6152cd565b5b60200260200101818152505080915050919050565b505050505050565b6133078473ffffffffffffffffffffffffffffffffffffffff166136b6565b156134c7578373ffffffffffffffffffffffffffffffffffffffff1663f23a6e6187878686866040518663ffffffff1660e01b815260040161334d959493929190615b55565b602060405180830381600087803b15801561336757600080fd5b505af192505050801561339857506040513d601f19601f820116820180604052508101906133959190615bc4565b60015b61343e576133a4615bfe565b806308c379a0141561340157506133b9615c20565b806133c45750613403565b806040517f08c379a00000000000000000000000000000000000000000000000000000000081526004016133f89190613afc565b60405180910390fd5b505b6040517f08c379a000000000000000000000000000000000000000000000000000000000815260040161343590615d28565b60405180910390fd5b63f23a6e6160e01b7bffffffffffffffffffffffffffffffffffffffffffffffffffffffff1916817bffffffffffffffffffffffffffffffffffffffffffffffffffffffff1916146134c5576040517f08c379a00000000000000000000000000000000000000000000000000000000081526004016134bc90615dba565b60405180910390fd5b505b505050505050565b6134ee8473ffffffffffffffffffffffffffffffffffffffff166136b6565b156136ae578373ffffffffffffffffffffffffffffffffffffffff1663bc197c8187878686866040518663ffffffff1660e01b8152600401613534959493929190615dda565b602060405180830381600087803b15801561354e57600080fd5b505af192505050801561357f57506040513d601f19601f8201168201806040525081019061357c9190615bc4565b60015b6136255761358b615bfe565b806308c379a014156135e857506135a0615c20565b806135ab57506135ea565b806040517f08c379a00000000000000000000000000000000000000000000000000000000081526004016135df9190613afc565b60405180910390fd5b505b6040517f08c379a000000000000000000000000000000000000000000000000000000000815260040161361c90615d28565b60405180910390fd5b63bc197c8160e01b7bffffffffffffffffffffffffffffffffffffffffffffffffffffffff1916817bffffffffffffffffffffffffffffffffffffffffffffffffffffffff1916146136ac576040517f08c379a00000000000000000000000000000000000000000000000000000000081526004016136a390615dba565b60405180910390fd5b505b505050505050565b600080823b905060008111915050919050565b8280546136d5906146a7565b90600052602060002090601f0160209004810192826136f7576000855561373e565b82601f1061371057803560ff191683800117855561373e565b8280016001018555821561373e579182015b8281111561373d578235825591602001919060010190613722565b5b50905061374b91906137d5565b5090565b82805461375b906146a7565b90600052602060002090601f01602090048101928261377d57600085556137c4565b82601f1061379657805160ff19168380011785556137c4565b828001600101855582156137c4579182015b828111156137c35782518255916020019190600101906137a8565b5b5090506137d191906137d5565b5090565b5b808211156137ee5760008160009055506001016137d6565b5090565b6000604051905090565b600080fd5b600080fd5b600073ffffffffffffffffffffffffffffffffffffffff82169050919050565b600061383182613806565b9050919050565b61384181613826565b811461384c57600080fd5b50565b60008135905061385e81613838565b92915050565b6000819050919050565b61387781613864565b811461388257600080fd5b50565b6000813590506138948161386e565b92915050565b600080604083850312156138b1576138b06137fc565b5b60006138bf8582860161384f565b92505060206138d085828601613885565b9150509250929050565b6138e381613864565b82525050565b60006020820190506138fe60008301846138da565b92915050565b60007fffffffff0000000000000000000000000000000000000000000000000000000082169050919050565b61393981613904565b811461394457600080fd5b50565b60008135905061395681613930565b92915050565b600060208284031215613972576139716137fc565b5b600061398084828501613947565b91505092915050565b60008115159050919050565b61399e81613989565b82525050565b60006020820190506139b96000830184613995565b92915050565b6000602082840312156139d5576139d46137fc565b5b60006139e384828501613885565b91505092915050565b600081519050919050565b600082825260208201905092915050565b60005b83811015613a26578082015181840152602081019050613a0b565b83811115613a35576000848401525b50505050565b6000601f19601f8301169050919050565b6000613a57826139ec565b613a6181856139f7565b9350613a71818560208601613a08565b613a7a81613a3b565b840191505092915050565b60006020820190508181036000830152613a9f8184613a4c565b905092915050565b600081519050919050565b600082825260208201905092915050565b6000613ace82613aa7565b613ad88185613ab2565b9350613ae8818560208601613a08565b613af181613a3b565b840191505092915050565b60006020820190508181036000830152613b168184613ac3565b905092915050565b60008060408385031215613b3557613b346137fc565b5b6000613b4385828601613885565b9250506020613b548582860161384f565b9150509250929050565b613b6781613826565b82525050565b6000602082019050613b826000830184613b5e565b92915050565b600080fd5b600080fd5b7f4e487b7100000000000000000000000000000000000000000000000000000000600052604160045260246000fd5b613bca82613a3b565b810181811067ffffffffffffffff82111715613be957613be8613b92565b5b80604052505050565b6000613bfc6137f2565b9050613c088282613bc1565b919050565b600067ffffffffffffffff821115613c2857613c27613b92565b5b613c3182613a3b565b9050602081019050919050565b82818337600083830152505050565b6000613c60613c5b84613c0d565b613bf2565b905082815260208101848484011115613c7c57613c7b613b8d565b5b613c87848285613c3e565b509392505050565b600082601f830112613ca457613ca3613b88565b5b8135613cb4848260208601613c4d565b91505092915050565b600080600080600060a08688031215613cd957613cd86137fc565b5b600086013567ffffffffffffffff811115613cf757613cf6613801565b5b613d0388828901613c8f565b9550506020613d1488828901613885565b9450506040613d2588828901613885565b9350506060613d3688828901613885565b925050608086013567ffffffffffffffff811115613d5757613d56613801565b5b613d6388828901613c8f565b9150509295509295909350565b60008060408385031215613d8757613d866137fc565b5b600083013567ffffffffffffffff811115613da557613da4613801565b5b613db185828601613c8f565b9250506020613dc285828601613885565b9150509250929050565b600067ffffffffffffffff821115613de757613de6613b92565b5b602082029050602081019050919050565b600080fd5b6000613e10613e0b84613dcc565b613bf2565b90508083825260208201905060208402830185811115613e3357613e32613df8565b5b835b81811015613e5c5780613e488882613885565b845260208401935050602081019050613e35565b5050509392505050565b600082601f830112613e7b57613e7a613b88565b5b8135613e8b848260208601613dfd565b91505092915050565b600080600080600060a08688031215613eb057613eaf6137fc565b5b6000613ebe8882890161384f565b9550506020613ecf8882890161384f565b945050604086013567ffffffffffffffff811115613ef057613eef613801565b5b613efc88828901613e66565b935050606086013567ffffffffffffffff811115613f1d57613f1c613801565b5b613f2988828901613e66565b925050608086013567ffffffffffffffff811115613f4a57613f49613801565b5b613f5688828901613c8f565b9150509295509295909350565b613f6c81613989565b8114613f7757600080fd5b50565b600081359050613f8981613f63565b92915050565b60008060008060808587031215613fa957613fa86137fc565b5b6000613fb78782880161384f565b9450506020613fc887828801613885565b9350506040613fd987828801613f7a565b9250506060613fea87828801613885565b91505092959194509250565b600067ffffffffffffffff82111561401157614010613b92565b5b602082029050602081019050919050565b600061403561403084613ff6565b613bf2565b9050808382526020820190506020840283018581111561405857614057613df8565b5b835b81811015614081578061406d888261384f565b84526020840193505060208101905061405a565b5050509392505050565b600082601f8301126140a05761409f613b88565b5b81356140b0848260208601614022565b91505092915050565b600080604083850312156140d0576140cf6137fc565b5b600083013567ffffffffffffffff8111156140ee576140ed613801565b5b6140fa8582860161408b565b925050602083013567ffffffffffffffff81111561411b5761411a613801565b5b61412785828601613e66565b9150509250929050565b600081519050919050565b600082825260208201905092915050565b6000819050602082019050919050565b61416681613864565b82525050565b6000614178838361415d565b60208301905092915050565b6000602082019050919050565b600061419c82614131565b6141a6818561413c565b93506141b18361414d565b8060005b838110156141e25781516141c9888261416c565b97506141d483614184565b9250506001810190506141b5565b5085935050505092915050565b600060208201905081810360008301526142098184614191565b905092915050565b60008060408385031215614228576142276137fc565b5b600061423685828601613885565b925050602061424785828601613885565b9150509250929050565b60008060408385031215614268576142676137fc565b5b60006142768582860161384f565b925050602061428785828601613f7a565b9150509250929050565b600080fd5b60008083601f8401126142ac576142ab613b88565b5b8235905067ffffffffffffffff8111156142c9576142c8614291565b5b6020830191508360208202830111156142e5576142e4613df8565b5b9250929050565b60008083601f84011261430257614301613b88565b5b8235905067ffffffffffffffff81111561431f5761431e614291565b5b60208301915083600182028301111561433b5761433a613df8565b5b9250929050565b60008060008060008060008060a0898b031215614362576143616137fc565b5b60006143708b828c0161384f565b98505060206143818b828c0161384f565b975050604089013567ffffffffffffffff8111156143a2576143a1613801565b5b6143ae8b828c01614296565b9650965050606089013567ffffffffffffffff8111156143d1576143d0613801565b5b6143dd8b828c01614296565b9450945050608089013567ffffffffffffffff811115614400576143ff613801565b5b61440c8b828c016142ec565b92509250509295985092959890939650565b61442781613904565b82525050565b6000602082019050614442600083018461441e565b92915050565b6000806040838503121561445f5761445e6137fc565b5b600061446d8582860161384f565b925050602061447e8582860161384f565b9150509250929050565b60008060008060008060a087890312156144a5576144a46137fc565b5b60006144b389828a0161384f565b96505060206144c489828a0161384f565b95505060406144d589828a01613885565b94505060606144e689828a01613885565b935050608087013567ffffffffffffffff81111561450757614506613801565b5b61451389828a016142ec565b92509250509295509295509295565b600080600080600060a0868803121561453e5761453d6137fc565b5b600061454c8882890161384f565b955050602061455d8882890161384f565b945050604061456e88828901613885565b935050606061457f88828901613885565b925050608086013567ffffffffffffffff8111156145a05761459f613801565b5b6145ac88828901613c8f565b9150509295509295909350565b6000602082840312156145cf576145ce6137fc565b5b60006145dd8482850161384f565b91505092915050565b7f455243313135353a2062616c616e636520717565727920666f7220746865207a60008201527f65726f2061646472657373000000000000000000000000000000000000000000602082015250565b6000614642602b83613ab2565b915061464d826145e6565b604082019050919050565b6000602082019050818103600083015261467181614635565b9050919050565b7f4e487b7100000000000000000000000000000000000000000000000000000000600052602260045260246000fd5b600060028204905060018216806146bf57607f821691505b602082108114156146d3576146d2614678565b5b50919050565b6000815190506146e88161386e565b92915050565b600060208284031215614704576147036137fc565b5b6000614712848285016146d9565b91505092915050565b7f4d696e20505220507269636520697320746f6f206c6f77000000000000000000600082015250565b6000614751601783613ab2565b915061475c8261471b565b602082019050919050565b6000602082019050818103600083015261478081614744565b9050919050565b7f4e6f7420656e6f7567682045544820746f206d696e7420636f6e74656e740000600082015250565b60006147bd601e83613ab2565b91506147c882614787565b602082019050919050565b600060208201905081810360008301526147ec816147b0565b9050919050565b7f546f74616c20537570706c7920746f6f206c6f77000000000000000000000000600082015250565b6000614829601483613ab2565b9150614834826147f3565b602082019050919050565b600060208201905081810360008301526148588161481c565b9050919050565b7f4f776e6572207374616b65206d757374206265206c657373207468616e20737560008201527f70706c7900000000000000000000000000000000000000000000000000000000602082015250565b60006148bb602483613ab2565b91506148c68261485f565b604082019050919050565b600060208201905081810360008301526148ea816148ae565b9050919050565b7f4e487b7100000000000000000000000000000000000000000000000000000000600052601160045260246000fd5b600061492b82613864565b915061493683613864565b925082821015614949576149486148f1565b5b828203905092915050565b600060a082019050818103600083015261496e8188613a4c565b905061497d60208301876138da565b61498a60408301866138da565b61499760608301856138da565b6149a460808301846138da565b9695505050505050565b60006149c16149bc84613c0d565b613bf2565b9050828152602081018484840111156149dd576149dc613b8d565b5b6149e8848285613a08565b509392505050565b600082601f830112614a0557614a04613b88565b5b8151614a158482602086016149ae565b91505092915050565b600060208284031215614a3457614a336137fc565b5b600082015167ffffffffffffffff811115614a5257614a51613801565b5b614a5e848285016149f0565b91505092915050565b6000604082019050614a7c60008301856138da565b614a896020830184613b5e565b9392505050565b6000614a9b82613864565b9150614aa683613864565b9250827fffffffffffffffffffffffffffffffffffffffffffffffffffffffffffffffff03821115614adb57614ada6148f1565b5b828201905092915050565b600081519050614af581613f63565b92915050565b600060208284031215614b1157614b106137fc565b5b6000614b1f84828501614ae6565b91505092915050565b7f436f6e747269627574696f6e73206172652063757272656e746c7920636c6f7360008201527f6564000000000000000000000000000000000000000000000000000000000000602082015250565b6000614b84602283613ab2565b9150614b8f82614b28565b604082019050919050565b60006020820190508181036000830152614bb381614b77565b9050919050565b7f436f6e74656e7420646f6573206e6f7420657869737400000000000000000000600082015250565b6000614bf0601683613ab2565b9150614bfb82614bba565b602082019050919050565b60006020820190508181036000830152614c1f81614be3565b9050919050565b7f4554482056616c75652069732062656c6f77206d696e696d756d20505220707260008201527f6963650000000000000000000000000000000000000000000000000000000000602082015250565b6000614c82602383613ab2565b9150614c8d82614c26565b604082019050919050565b60006020820190508181036000830152614cb181614c75565b9050919050565b6000604082019050614ccd6000830185613b5e565b614cda60208301846138da565b9392505050565b7f416464726573732068617320616c7265616479207375626d697474656420612060008201527f505220666f72207468697320636f6e74656e742077697468696e20746869732060208201527f636f6e747269627574696f6e20706572696f6400000000000000000000000000604082015250565b6000614d63605383613ab2565b9150614d6e82614ce1565b606082019050919050565b60006020820190508181036000830152614d9281614d56565b9050919050565b60006080820190508181036000830152614db38187613a4c565b9050614dc260208301866138da565b614dcf6040830185613b5e565b614ddc60608301846138da565b95945050505050565b6000606082019050614dfa6000830186613b5e565b614e0760208301856138da565b614e1460408301846138da565b949350505050565b7f455243313135353a207472616e736665722063616c6c6572206973206e6f742060008201527f6f776e6572206e6f7220617070726f7665640000000000000000000000000000602082015250565b6000614e78603283613ab2565b9150614e8382614e1c565b604082019050919050565b60006020820190508181036000830152614ea781614e6b565b9050919050565b7f4d757374206861766520636f6e74656e7420617574686f727368697020746f6b60008201527f656e730000000000000000000000000000000000000000000000000000000000602082015250565b6000614f0a602383613ab2565b9150614f1582614eae565b604082019050919050565b60006020820190508181036000830152614f3981614efd565b9050919050565b7f566f74696e672069732063757272656e746c7920636c6f736564000000000000600082015250565b6000614f76601a83613ab2565b9150614f8182614f40565b602082019050919050565b60006020820190508181036000830152614fa581614f69565b9050919050565b7f4e6f7420656e6f75676820766f74652063726564697473000000000000000000600082015250565b6000614fe2601783613ab2565b9150614fed82614fac565b602082019050919050565b6000602082019050818103600083015261501181614fd5565b9050919050565b600060808201905061502d6000830187613b5e565b61503a60208301866138da565b6150476040830185613995565b61505460608301846138da565b95945050505050565b60008160011c9050919050565b6000808291508390505b60018511156150b4578086048111156150905761508f6148f1565b5b600185161561509f5780820291505b80810290506150ad8561505d565b9450615074565b94509492505050565b6000826150cd5760019050615189565b816150db5760009050615189565b81600181146150f157600281146150fb5761512a565b6001915050615189565b60ff84111561510d5761510c6148f1565b5b8360020a915084821115615124576151236148f1565b5b50615189565b5060208310610133831016604e8410600b841016171561515f5782820a90508381111561515a576151596148f1565b5b615189565b61516c848484600161506a565b92509050818404811115615183576151826148f1565b5b81810290505b9392505050565b600060ff82169050919050565b60006151a882613864565b91506151b383615190565b92506151e07fffffffffffffffffffffffffffffffffffffffffffffffffffffffffffffffff84846150bd565b905092915050565b600060a0820190506151fd6000830188613b5e565b61520a6020830187613b5e565b61521760408301866138da565b6152246060830185613995565b61523160808301846138da565b9695505050505050565b7f455243313135353a206163636f756e747320616e6420696473206c656e67746860008201527f206d69736d617463680000000000000000000000000000000000000000000000602082015250565b6000615297602983613ab2565b91506152a28261523b565b604082019050919050565b600060208201905081810360008301526152c68161528a565b9050919050565b7f4e487b7100000000000000000000000000000000000000000000000000000000600052603260045260246000fd5b600061530782613864565b91507fffffffffffffffffffffffffffffffffffffffffffffffffffffffffffffffff82141561533a576153396148f1565b5b600182019050919050565b7f4f776e61626c653a2063616c6c6572206973206e6f7420746865206f776e6572600082015250565b600061537b602083613ab2565b915061538682615345565b602082019050919050565b600060208201905081810360008301526153aa8161536e565b9050919050565b7f566f74696e67206973207374696c6c206f70656e000000000000000000000000600082015250565b60006153e7601483613ab2565b91506153f2826153b1565b602082019050919050565b60006020820190508181036000830152615416816153da565b9050919050565b7f436f6e747269627574696f6e73206172652063757272656e746c79206f70656e600082015250565b6000615453602083613ab2565b915061545e8261541d565b602082019050919050565b6000602082019050818103600083015261548281615446565b9050919050565b60008151905061549881613838565b92915050565b6000602082840312156154b4576154b36137fc565b5b60006154c284828501615489565b91505092915050565b7f455243313135353a2063616c6c6572206973206e6f74206f776e6572206e6f7260008201527f20617070726f7665640000000000000000000000000000000000000000000000602082015250565b6000615527602983613ab2565b9150615532826154cb565b604082019050919050565b600060208201905081810360008301526155568161551a565b9050919050565b7f4f776e61626c653a206e6577206f776e657220697320746865207a65726f206160008201527f6464726573730000000000000000000000000000000000000000000000000000602082015250565b60006155b9602683613ab2565b91506155c48261555d565b604082019050919050565b600060208201905081810360008301526155e8816155ac565b9050919050565b7f455243313135353a206d696e7420746f20746865207a65726f2061646472657360008201527f7300000000000000000000000000000000000000000000000000000000000000602082015250565b600061564b602183613ab2565b9150615656826155ef565b604082019050919050565b6000602082019050818103600083015261567a8161563e565b9050919050565b600060408201905061569660008301856138da565b6156a360208301846138da565b9392505050565b7f4e487b7100000000000000000000000000000000000000000000000000000000600052601260045260246000fd5b60006156e482613864565b91506156ef83613864565b9250826156ff576156fe6156aa565b5b828206905092915050565b7f546f6b656e4944206d757374206265206f776e65727368697020746f6b656e00600082015250565b6000615740601f83613ab2565b915061574b8261570a565b602082019050919050565b6000602082019050818103600083015261576f81615733565b9050919050565b7f455243313135353a2069647320616e6420616d6f756e7473206c656e6774682060008201527f6d69736d61746368000000000000000000000000000000000000000000000000602082015250565b60006157d2602883613ab2565b91506157dd82615776565b604082019050919050565b60006020820190508181036000830152615801816157c5565b9050919050565b7f455243313135353a207472616e7366657220746f20746865207a65726f20616460008201527f6472657373000000000000000000000000000000000000000000000000000000602082015250565b6000615864602583613ab2565b915061586f82615808565b604082019050919050565b6000602082019050818103600083015261589381615857565b9050919050565b7f455243313135353a20696e73756666696369656e742062616c616e636520666f60008201527f72207472616e7366657200000000000000000000000000000000000000000000602082015250565b60006158f6602a83613ab2565b91506159018261589a565b604082019050919050565b60006020820190508181036000830152615925816158e9565b9050919050565b600060408201905081810360008301526159468185614191565b9050818103602083015261595a8184614191565b90509392505050565b7f455243313135353a2073657474696e6720617070726f76616c2073746174757360008201527f20666f722073656c660000000000000000000000000000000000000000000000602082015250565b60006159bf602983613ab2565b91506159ca82615963565b604082019050919050565b600060208201905081810360008301526159ee816159b2565b9050919050565b600081905092915050565b60008190508160005260206000209050919050565b60008154615a22816146a7565b615a2c81866159f5565b94506001821660008114615a475760018114615a5857615a8b565b60ff19831686528186019350615a8b565b615a6185615a00565b60005b83811015615a8357815481890152600182019150602081019050615a64565b838801955050505b50505092915050565b7f2000000000000000000000000000000000000000000000000000000000000000815250565b6000615ac5826139ec565b615acf81856159f5565b9350615adf818560208601613a08565b80840191505092915050565b6000615af78285615a15565b9150615b0282615a94565b600182019150615b128284615aba565b91508190509392505050565b6000606082019050615b3360008301866138da565b615b406020830185613b5e565b615b4d60408301846138da565b949350505050565b600060a082019050615b6a6000830188613b5e565b615b776020830187613b5e565b615b8460408301866138da565b615b9160608301856138da565b8181036080830152615ba38184613a4c565b90509695505050505050565b600081519050615bbe81613930565b92915050565b600060208284031215615bda57615bd96137fc565b5b6000615be884828501615baf565b91505092915050565b60008160e01c9050919050565b600060033d1115615c1d5760046000803e615c1a600051615bf1565b90505b90565b600060443d1015615c3057615cb3565b615c386137f2565b60043d036004823e80513d602482011167ffffffffffffffff82111715615c60575050615cb3565b808201805167ffffffffffffffff811115615c7e5750505050615cb3565b80602083010160043d038501811115615c9b575050505050615cb3565b615caa82602001850186613bc1565b82955050505050505b90565b7f455243313135353a207472616e7366657220746f206e6f6e204552433131353560008201527f526563656976657220696d706c656d656e746572000000000000000000000000602082015250565b6000615d12603483613ab2565b9150615d1d82615cb6565b604082019050919050565b60006020820190508181036000830152615d4181615d05565b9050919050565b7f455243313135353a204552433131353552656365697665722072656a6563746560008201527f6420746f6b656e73000000000000000000000000000000000000000000000000602082015250565b6000615da4602883613ab2565b9150615daf82615d48565b604082019050919050565b60006020820190508181036000830152615dd381615d97565b9050919050565b600060a082019050615def6000830188613b5e565b615dfc6020830187613b5e565b8181036040830152615e0e8186614191565b90508181036060830152615e228185614191565b90508181036080830152615e368184613a4c565b9050969550505050505056fea2646970667358221220423bd5fc937e0be4d7c13e11873903901f8b5a294a1edbd04fb8116d8042d6f864736f6c63430008090033608060405234801561001057600080fd5b5061002d61002261003260201b60201c565b61003a60201b60201c565b6100fe565b600033905090565b60008060009054906101000a900473ffffffffffffffffffffffffffffffffffffffff169050816000806101000a81548173ffffffffffffffffffffffffffffffffffffffff021916908373ffffffffffffffffffffffffffffffffffffffff1602179055508173ffffffffffffffffffffffffffffffffffffffff168173ffffffffffffffffffffffffffffffffffffffff167f8be0079c531659141344cd1fd0a4f28419497f9722a3daafe3b4186f6b6457e060405160405180910390a35050565b61206b806200010e6000396000f3fe6080604052600436106100dd5760003560e01c8063712023ed1161007f57806387bd45201161005957806387bd4520146102da5780638da5cb5b14610303578063efe433381461032e578063f2fde38b1461036b576100dd565b8063712023ed14610249578063715018a614610286578063761072e11461029d576100dd565b80634dfb83ca116100bb5780634dfb83ca146101715780635d6b494b146101b357806362a4321c146101f05780636f1ea8041461022d576100dd565b8063182983a2146100e2578063449e815d1461010b5780634d318b0e14610148575b600080fd5b3480156100ee57600080fd5b506101096004803603810190610104919061184e565b610394565b005b34801561011757600080fd5b50610132600480360381019061012d91906118b5565b61054a565b60405161013f9190611904565b60405180910390f35b34801561015457600080fd5b5061016f600480360381019061016a919061191f565b6105a8565b005b34801561017d57600080fd5b506101986004803603810190610193919061194c565b6108c7565b6040516101aa96959493929190611a25565b60405180910390f35b3480156101bf57600080fd5b506101da60048036038101906101d59190611a8d565b610998565b6040516101e79190611adc565b60405180910390f35b3480156101fc57600080fd5b50610217600480360381019061021291906118b5565b6109e6565b6040516102249190611af7565b60405180910390f35b61024760048036038101906102429190611c4e565b610acc565b005b34801561025557600080fd5b50610270600480360381019061026b91906118b5565b610cfd565b60405161027d9190611ce0565b60405180910390f35b34801561029257600080fd5b5061029b610d65565b005b3480156102a957600080fd5b506102c460048036038101906102bf919061194c565b610ded565b6040516102d19190611ce0565b60405180910390f35b3480156102e657600080fd5b5061030160048036038101906102fc919061191f565b610e1c565b005b34801561030f57600080fd5b50610318611059565b6040516103259190611adc565b60405180910390f35b34801561033a57600080fd5b506103556004803603810190610350919061191f565b611082565b6040516103629190611adc565b60405180910390f35b34801561037757600080fd5b50610392600480360381019061038d9190611cfb565b61148d565b005b61039c611585565b73ffffffffffffffffffffffffffffffffffffffff166103ba611059565b73ffffffffffffffffffffffffffffffffffffffff1614610410576040517f08c379a000000000000000000000000000000000000000000000000000000000815260040161040790611d85565b60405180910390fd5b6002600082815260200190815260200160002060008573ffffffffffffffffffffffffffffffffffffffff1673ffffffffffffffffffffffffffffffffffffffff16815260200190815260200160002060009054906101000a900460ff166104ad576040517f08c379a00000000000000000000000000000000000000000000000000000000081526004016104a490611df1565b60405180910390fd5b60006001600083815260200190815260200160002060008673ffffffffffffffffffffffffffffffffffffffff1673ffffffffffffffffffffffffffffffffffffffff16815260200190815260200160002090508215610527578381600201600082825461051b9190611e40565b92505081905550610543565b8381600301600082825461053b9190611e40565b925050819055505b5050505050565b60006001600083815260200190815260200160002060008473ffffffffffffffffffffffffffffffffffffffff1673ffffffffffffffffffffffffffffffffffffffff16815260200190815260200160002060050154905092915050565b6105b0611585565b73ffffffffffffffffffffffffffffffffffffffff166105ce611059565b73ffffffffffffffffffffffffffffffffffffffff1614610624576040517f08c379a000000000000000000000000000000000000000000000000000000000815260040161061b90611d85565b60405180910390fd5b6000600360008381526020019081526020016000208054806020026020016040519081016040528092919081815260200182805480156106b957602002820191906000526020600020905b8160009054906101000a900473ffffffffffffffffffffffffffffffffffffffff1673ffffffffffffffffffffffffffffffffffffffff168152602001906001019080831161066f575b5050505050905060005b81518110156108c25760006001600085815260200190815260200160002060008484815181106106f6576106f5611e96565b5b602002602001015173ffffffffffffffffffffffffffffffffffffffff1673ffffffffffffffffffffffffffffffffffffffff1681526020019081526020016000206040518060c001604052908160008201805461075390611ef4565b80601f016020809104026020016040519081016040528092919081815260200182805461077f90611ef4565b80156107cc5780601f106107a1576101008083540402835291602001916107cc565b820191906000526020600020905b8154815290600101906020018083116107af57829003601f168201915b505050505081526020016001820154815260200160028201548152602001600382015481526020016004820154815260200160058201548152505090506000816060015182604001511115610836578160600151826040015161082f9190611f26565b905061083b565b600090505b8060016000878152602001908152602001600020600086868151811061086457610863611e96565b5b602002602001015173ffffffffffffffffffffffffffffffffffffffff1673ffffffffffffffffffffffffffffffffffffffff16815260200190815260200160002060040181905550505080806108ba90611f5a565b9150506106c3565b505050565b6001602052816000526040600020602052806000526040600020600091509150508060000180546108f790611ef4565b80601f016020809104026020016040519081016040528092919081815260200182805461092390611ef4565b80156109705780601f1061094557610100808354040283529160200191610970565b820191906000526020600020905b81548152906001019060200180831161095357829003601f168201915b5050505050908060010154908060020154908060030154908060040154908060050154905086565b600360205281600052604060002081815481106109b457600080fd5b906000526020600020016000915091509054906101000a900473ffffffffffffffffffffffffffffffffffffffff1681565b60606001600083815260200190815260200160002060008473ffffffffffffffffffffffffffffffffffffffff1673ffffffffffffffffffffffffffffffffffffffff1681526020019081526020016000206000018054610a4690611ef4565b80601f0160208091040260200160405190810160405280929190818152602001828054610a7290611ef4565b8015610abf5780601f10610a9457610100808354040283529160200191610abf565b820191906000526020600020905b815481529060010190602001808311610aa257829003601f168201915b5050505050905092915050565b610ad4611585565b73ffffffffffffffffffffffffffffffffffffffff16610af2611059565b73ffffffffffffffffffffffffffffffffffffffff1614610b48576040517f08c379a0000000000000000000000000000000000000000000000000000000008152600401610b3f90611d85565b60405180910390fd5b60036000848152602001908152602001600020829080600181540180825580915050600190039060005260206000200160009091909190916101000a81548173ffffffffffffffffffffffffffffffffffffffff021916908373ffffffffffffffffffffffffffffffffffffffff1602179055506040518060c00160405280858152602001428152602001600081526020016000815260200160008152602001828152506001600085815260200190815260200160002060008473ffffffffffffffffffffffffffffffffffffffff1673ffffffffffffffffffffffffffffffffffffffff1681526020019081526020016000206000820151816000019080519060200190610c58929190611651565b506020820151816001015560408201518160020155606082015181600301556080820151816004015560a0820151816005015590505060016002600085815260200190815260200160002060008473ffffffffffffffffffffffffffffffffffffffff1673ffffffffffffffffffffffffffffffffffffffff16815260200190815260200160002060006101000a81548160ff02191690831515021790555050505050565b60006002600083815260200190815260200160002060008473ffffffffffffffffffffffffffffffffffffffff1673ffffffffffffffffffffffffffffffffffffffff16815260200190815260200160002060009054906101000a900460ff16905092915050565b610d6d611585565b73ffffffffffffffffffffffffffffffffffffffff16610d8b611059565b73ffffffffffffffffffffffffffffffffffffffff1614610de1576040517f08c379a0000000000000000000000000000000000000000000000000000000008152600401610dd890611d85565b60405180910390fd5b610deb600061158d565b565b60026020528160005260406000206020528060005260406000206000915091509054906101000a900460ff1681565b610e24611585565b73ffffffffffffffffffffffffffffffffffffffff16610e42611059565b73ffffffffffffffffffffffffffffffffffffffff1614610e98576040517f08c379a0000000000000000000000000000000000000000000000000000000008152600401610e8f90611d85565b60405180910390fd5b60005b6003600083815260200190815260200160002080549050811015611036576000600360008481526020019081526020016000208281548110610ee057610edf611e96565b5b9060005260206000200160009054906101000a900473ffffffffffffffffffffffffffffffffffffffff169050610f156116d7565b806001600086815260200190815260200160002060008473ffffffffffffffffffffffffffffffffffffffff1673ffffffffffffffffffffffffffffffffffffffff1681526020019081526020016000206000820151816000019080519060200190610f82929190611651565b506020820151816001015560408201518160020155606082015181600301556080820151816004015560a0820151816005015590505060006002600086815260200190815260200160002060008473ffffffffffffffffffffffffffffffffffffffff1673ffffffffffffffffffffffffffffffffffffffff16815260200190815260200160002060006101000a81548160ff0219169083151502179055505050808061102e90611f5a565b915050610e9b565b50600360008281526020019081526020016000206000611056919061170d565b50565b60008060009054906101000a900473ffffffffffffffffffffffffffffffffffffffff16905090565b600061108c611585565b73ffffffffffffffffffffffffffffffffffffffff166110aa611059565b73ffffffffffffffffffffffffffffffffffffffff1614611100576040517f08c379a00000000000000000000000000000000000000000000000000000000081526004016110f790611d85565b60405180910390fd5b6000806003600085815260200190815260200160002080548060200260200160405190810160405280929190818152602001828054801561119657602002820191906000526020600020905b8160009054906101000a900473ffffffffffffffffffffffffffffffffffffffff1673ffffffffffffffffffffffffffffffffffffffff168152602001906001019080831161114c575b5050505050905060005b81518110156112cd5760008114156111d4578181815181106111c5576111c4611e96565b5b602002602001015192506112ba565b6001600086815260200190815260200160002060008473ffffffffffffffffffffffffffffffffffffffff1673ffffffffffffffffffffffffffffffffffffffff168152602001908152602001600020600401546001600087815260200190815260200160002060008484815181106112505761124f611e96565b5b602002602001015173ffffffffffffffffffffffffffffffffffffffff1673ffffffffffffffffffffffffffffffffffffffff16815260200190815260200160002060040154106112b9578181815181106112ae576112ad611e96565b5b602002602001015192505b5b80806112c590611f5a565b9150506111a0565b506112d661172e565b60006001600087815260200190815260200160002060008573ffffffffffffffffffffffffffffffffffffffff1673ffffffffffffffffffffffffffffffffffffffff1681526020019081526020016000206004015490506000805b84518110156114375782600160008a8152602001908152602001600020600087848151811061136457611363611e96565b5b602002602001015173ffffffffffffffffffffffffffffffffffffffff1673ffffffffffffffffffffffffffffffffffffffff168152602001908152602001600020600401541415611424578481815181106113c3576113c2611e96565b5b60200260200101518483606481106113de576113dd611e96565b5b602002019073ffffffffffffffffffffffffffffffffffffffff16908173ffffffffffffffffffffffffffffffffffffffff1681525050818061142090611f5a565b9250505b808061142f90611f5a565b915050611332565b50600082111561147e5760018114611471578260006064811061145d5761145c611e96565b5b602002015194508495505050505050611488565b8495505050505050611488565b6000955050505050505b919050565b611495611585565b73ffffffffffffffffffffffffffffffffffffffff166114b3611059565b73ffffffffffffffffffffffffffffffffffffffff1614611509576040517f08c379a000000000000000000000000000000000000000000000000000000000815260040161150090611d85565b60405180910390fd5b600073ffffffffffffffffffffffffffffffffffffffff168173ffffffffffffffffffffffffffffffffffffffff161415611579576040517f08c379a000000000000000000000000000000000000000000000000000000000815260040161157090612015565b60405180910390fd5b6115828161158d565b50565b600033905090565b60008060009054906101000a900473ffffffffffffffffffffffffffffffffffffffff169050816000806101000a81548173ffffffffffffffffffffffffffffffffffffffff021916908373ffffffffffffffffffffffffffffffffffffffff1602179055508173ffffffffffffffffffffffffffffffffffffffff168173ffffffffffffffffffffffffffffffffffffffff167f8be0079c531659141344cd1fd0a4f28419497f9722a3daafe3b4186f6b6457e060405160405180910390a35050565b82805461165d90611ef4565b90600052602060002090601f01602090048101928261167f57600085556116c6565b82601f1061169857805160ff19168380011785556116c6565b828001600101855582156116c6579182015b828111156116c55782518255916020019190600101906116aa565b5b5090506116d39190611751565b5090565b6040518060c001604052806060815260200160008152602001600081526020016000815260200160008152602001600081525090565b508054600082559060005260206000209081019061172b9190611751565b50565b60405180610c800160405280606490602082028036833780820191505090505090565b5b8082111561176a576000816000905550600101611752565b5090565b6000604051905090565b600080fd5b600080fd5b600073ffffffffffffffffffffffffffffffffffffffff82169050919050565b60006117ad82611782565b9050919050565b6117bd816117a2565b81146117c857600080fd5b50565b6000813590506117da816117b4565b92915050565b6000819050919050565b6117f3816117e0565b81146117fe57600080fd5b50565b600081359050611810816117ea565b92915050565b60008115159050919050565b61182b81611816565b811461183657600080fd5b50565b60008135905061184881611822565b92915050565b6000806000806080858703121561186857611867611778565b5b6000611876878288016117cb565b945050602061188787828801611801565b935050604061189887828801611839565b92505060606118a987828801611801565b91505092959194509250565b600080604083850312156118cc576118cb611778565b5b60006118da858286016117cb565b92505060206118eb85828601611801565b9150509250929050565b6118fe816117e0565b82525050565b600060208201905061191960008301846118f5565b92915050565b60006020828403121561193557611934611778565b5b600061194384828501611801565b91505092915050565b6000806040838503121561196357611962611778565b5b600061197185828601611801565b9250506020611982858286016117cb565b9150509250929050565b600081519050919050565b600082825260208201905092915050565b60005b838110156119c65780820151818401526020810190506119ab565b838111156119d5576000848401525b50505050565b6000601f19601f8301169050919050565b60006119f78261198c565b611a018185611997565b9350611a118185602086016119a8565b611a1a816119db565b840191505092915050565b600060c0820190508181036000830152611a3f81896119ec565b9050611a4e60208301886118f5565b611a5b60408301876118f5565b611a6860608301866118f5565b611a7560808301856118f5565b611a8260a08301846118f5565b979650505050505050565b60008060408385031215611aa457611aa3611778565b5b6000611ab285828601611801565b9250506020611ac385828601611801565b9150509250929050565b611ad6816117a2565b82525050565b6000602082019050611af16000830184611acd565b92915050565b60006020820190508181036000830152611b1181846119ec565b905092915050565b600080fd5b600080fd5b7f4e487b7100000000000000000000000000000000000000000000000000000000600052604160045260246000fd5b611b5b826119db565b810181811067ffffffffffffffff82111715611b7a57611b79611b23565b5b80604052505050565b6000611b8d61176e565b9050611b998282611b52565b919050565b600067ffffffffffffffff821115611bb957611bb8611b23565b5b611bc2826119db565b9050602081019050919050565b82818337600083830152505050565b6000611bf1611bec84611b9e565b611b83565b905082815260208101848484011115611c0d57611c0c611b1e565b5b611c18848285611bcf565b509392505050565b600082601f830112611c3557611c34611b19565b5b8135611c45848260208601611bde565b91505092915050565b60008060008060808587031215611c6857611c67611778565b5b600085013567ffffffffffffffff811115611c8657611c8561177d565b5b611c9287828801611c20565b9450506020611ca387828801611801565b9350506040611cb4878288016117cb565b9250506060611cc587828801611801565b91505092959194509250565b611cda81611816565b82525050565b6000602082019050611cf56000830184611cd1565b92915050565b600060208284031215611d1157611d10611778565b5b6000611d1f848285016117cb565b91505092915050565b600082825260208201905092915050565b7f4f776e61626c653a2063616c6c6572206973206e6f7420746865206f776e6572600082015250565b6000611d6f602083611d28565b9150611d7a82611d39565b602082019050919050565b60006020820190508181036000830152611d9e81611d62565b9050919050565b7f505220646f6573206e6f74206578697374000000000000000000000000000000600082015250565b6000611ddb601183611d28565b9150611de682611da5565b602082019050919050565b60006020820190508181036000830152611e0a81611dce565b9050919050565b7f4e487b7100000000000000000000000000000000000000000000000000000000600052601160045260246000fd5b6000611e4b826117e0565b9150611e56836117e0565b9250827fffffffffffffffffffffffffffffffffffffffffffffffffffffffffffffffff03821115611e8b57611e8a611e11565b5b828201905092915050565b7f4e487b7100000000000000000000000000000000000000000000000000000000600052603260045260246000fd5b7f4e487b7100000000000000000000000000000000000000000000000000000000600052602260045260246000fd5b60006002820490506001821680611f0c57607f821691505b60208210811415611f2057611f1f611ec5565b5b50919050565b6000611f31826117e0565b9150611f3c836117e0565b925082821015611f4f57611f4e611e11565b5b828203905092915050565b6000611f65826117e0565b91507fffffffffffffffffffffffffffffffffffffffffffffffffffffffffffffffff821415611f9857611f97611e11565b5b600182019050919050565b7f4f776e61626c653a206e6577206f776e657220697320746865207a65726f206160008201527f6464726573730000000000000000000000000000000000000000000000000000602082015250565b6000611fff602683611d28565b915061200a82611fa3565b604082019050919050565b6000602082019050818103600083015261202e81611ff2565b905091905056fea2646970667358221220586410c8f969e5e544466581401df621c723e4c50965302ff740dcd17477c48064736f6c6343000809003360a060405234801561001057600080fd5b5060405161001d90610072565b604051809103906000f080158015610039573d6000803e3d6000fd5b5073ffffffffffffffffffffffffffffffffffffffff1660808173ffffffffffffffffffffffffffffffffffffffff168152505061007f565b610cfc8061188783390190565b6080516117ca6100bd600039600081816102fd015281816104d001528181610665015281816107720152818161087f0152610b8a01526117ca6000f3fe608060405234801561001057600080fd5b50600436106100935760003560e01c80639037e407116100665780639037e4071461014857806392ab723e14610178578063a251e13a146101a8578063b2d81b8d146101d8578063cf65de4a1461020857610093565b80630c8244dd1461009857806314ff5ea3146100cc57806371fe953d146100fc5780637b78bd3f14610118575b600080fd5b6100b260048036038101906100ad9190610ed3565b610238565b6040516100c3959493929190610fa8565b60405180910390f35b6100e660048036038101906100e19190610ed3565b6102f6565b6040516100f39190611002565b60405180910390f35b61011660048036038101906101119190611152565b610403565b005b610132600480360381019061012d9190610ed3565b6104c9565b60405161013f91906111e9565b60405180910390f35b610162600480360381019061015d9190610ed3565b61065e565b60405161016f9190611002565b60405180910390f35b610192600480360381019061018d9190610ed3565b61076b565b60405161019f9190611002565b60405180910390f35b6101c260048036038101906101bd9190611269565b610878565b6040516101cf9190611002565b60405180910390f35b6101f260048036038101906101ed9190610ed3565b610b83565b6040516101ff9190611002565b60405180910390f35b610222600480360381019061021d9190610ed3565b610c90565b60405161022f9190611002565b60405180910390f35b600160205280600052604060002060009150905080600001805461025b906112eb565b80601f0160208091040260200160405190810160405280929190818152602001828054610287906112eb565b80156102d45780601f106102a9576101008083540402835291602001916102d4565b820191906000526020600020905b8154815290600101906020018083116102b757829003601f168201915b5050505050908060010154908060020154908060030154908060040154905085565b60008160007f000000000000000000000000000000000000000000000000000000000000000073ffffffffffffffffffffffffffffffffffffffff166321a455c46040518163ffffffff1660e01b815260040160206040518083038186803b15801561036157600080fd5b505afa158015610375573d6000803e3d6000fd5b505050506040513d601f19601f820116820180604052508101906103999190611332565b826103a4919061138e565b146103e4576040517f08c379a00000000000000000000000000000000000000000000000000000000081526004016103db9061141c565b60405180910390fd5b6001600084815260200190815260200160002060010154915050919050565b61040b610db7565b858160000181905250848160200181815250508381604001818152505082816080018181525050818160600181815250508060016000878152602001908152602001600020600082015181600001908051906020019061046c929190610de6565b50602082015181600101556040820151816002015560608201518160030155608082015181600401559050508260008087815260200190815260200160002060008282546104ba919061146b565b92505081905550505050505050565b60608160007f000000000000000000000000000000000000000000000000000000000000000073ffffffffffffffffffffffffffffffffffffffff166321a455c46040518163ffffffff1660e01b815260040160206040518083038186803b15801561053457600080fd5b505afa158015610548573d6000803e3d6000fd5b505050506040513d601f19601f8201168201806040525081019061056c9190611332565b82610577919061138e565b146105b7576040517f08c379a00000000000000000000000000000000000000000000000000000000081526004016105ae9061141c565b60405180910390fd5b6001600084815260200190815260200160002060000180546105d8906112eb565b80601f0160208091040260200160405190810160405280929190818152602001828054610604906112eb565b80156106515780601f1061062657610100808354040283529160200191610651565b820191906000526020600020905b81548152906001019060200180831161063457829003601f168201915b5050505050915050919050565b60008160007f000000000000000000000000000000000000000000000000000000000000000073ffffffffffffffffffffffffffffffffffffffff166321a455c46040518163ffffffff1660e01b815260040160206040518083038186803b1580156106c957600080fd5b505afa1580156106dd573d6000803e3d6000fd5b505050506040513d601f19601f820116820180604052508101906107019190611332565b8261070c919061138e565b1461074c576040517f08c379a00000000000000000000000000000000000000000000000000000000081526004016107439061141c565b60405180910390fd5b6001600084815260200190815260200160002060040154915050919050565b60008160007f000000000000000000000000000000000000000000000000000000000000000073ffffffffffffffffffffffffffffffffffffffff166321a455c46040518163ffffffff1660e01b815260040160206040518083038186803b1580156107d657600080fd5b505afa1580156107ea573d6000803e3d6000fd5b505050506040513d601f19601f8201168201806040525081019061080e9190611332565b82610819919061138e565b14610859576040517f08c379a00000000000000000000000000000000000000000000000000000000081526004016108509061141c565b60405180910390fd5b6001600084815260200190815260200160002060020154915050919050565b60008160007f000000000000000000000000000000000000000000000000000000000000000073ffffffffffffffffffffffffffffffffffffffff166321a455c46040518163ffffffff1660e01b815260040160206040518083038186803b1580156108e357600080fd5b505afa1580156108f7573d6000803e3d6000fd5b505050506040513d601f19601f8201168201806040525081019061091b9190611332565b82610926919061138e565b14610966576040517f08c379a000000000000000000000000000000000000000000000000000000000815260040161095d9061141c565b60405180910390fd5b60016000848152602001908152602001600020600301548510156109bf576040517f08c379a00000000000000000000000000000000000000000000000000000000081526004016109b690611533565b60405180910390fd5b6000600a60016064610a25610a146127108b6109db9190611553565b6000808b815260200190815260200160002054600160008c815260200190815260200160002060020154610a0f91906115ad565b610ca8565b6001610a20919061146b565b610cf6565b610a2f91906115e1565b610a3991906115ad565b60016000878152602001908152602001600020600401546001600088815260200190815260200160002060020154610a7191906115ad565b610a7b9190611553565b610a8591906115e1565b905060016000858152602001908152602001600020600201548160008087815260200190815260200160002054610abc919061146b565b10610afc576040517f08c379a0000000000000000000000000000000000000000000000000000000008152600401610af390611684565b60405180910390fd5b806000808681526020019081526020016000206000828254610b1e919061146b565b925050819055507f18a9df754d582bf0fc3091d77d8a6e64b1c66c14df117fc189e245e7a017a1fc85858360016000898152602001908152602001600020600001604051610b6f9493929190611748565b60405180910390a180925050509392505050565b60008160007f000000000000000000000000000000000000000000000000000000000000000073ffffffffffffffffffffffffffffffffffffffff166321a455c46040518163ffffffff1660e01b815260040160206040518083038186803b158015610bee57600080fd5b505afa158015610c02573d6000803e3d6000fd5b505050506040513d601f19601f82011682018060405250810190610c269190611332565b82610c31919061138e565b14610c71576040517f08c379a0000000000000000000000000000000000000000000000000000000008152600401610c689061141c565b60405180910390fd5b6001600084815260200190815260200160002060030154915050919050565b60006020528060005260406000206000915090505481565b6000600282610cb791906115e1565b82610cc291906115ad565b8284610cce919061138e565b610cd891906115e1565b8284610ce491906115e1565b610cee919061146b565b905092915050565b600080610d0283610d32565b9050828182610d119190611553565b14610d2857600181610d23919061146b565b610d2a565b805b915050919050565b6000806001600284610d4491906115e1565b610d4e919061146b565b9050600060028285610d6091906115e1565b83610d6b919061146b565b610d7591906115e1565b90505b80821115610dad5780915060028285610d9191906115e1565b83610d9c919061146b565b610da691906115e1565b9050610d78565b8192505050919050565b6040518060a0016040528060608152602001600081526020016000815260200160008152602001600081525090565b828054610df2906112eb565b90600052602060002090601f016020900481019282610e145760008555610e5b565b82601f10610e2d57805160ff1916838001178555610e5b565b82800160010185558215610e5b579182015b82811115610e5a578251825591602001919060010190610e3f565b5b509050610e689190610e6c565b5090565b5b80821115610e85576000816000905550600101610e6d565b5090565b6000604051905090565b600080fd5b600080fd5b6000819050919050565b610eb081610e9d565b8114610ebb57600080fd5b50565b600081359050610ecd81610ea7565b92915050565b600060208284031215610ee957610ee8610e93565b5b6000610ef784828501610ebe565b91505092915050565b600081519050919050565b600082825260208201905092915050565b60005b83811015610f3a578082015181840152602081019050610f1f565b83811115610f49576000848401525b50505050565b6000601f19601f8301169050919050565b6000610f6b82610f00565b610f758185610f0b565b9350610f85818560208601610f1c565b610f8e81610f4f565b840191505092915050565b610fa281610e9d565b82525050565b600060a0820190508181036000830152610fc28188610f60565b9050610fd16020830187610f99565b610fde6040830186610f99565b610feb6060830185610f99565b610ff86080830184610f99565b9695505050505050565b60006020820190506110176000830184610f99565b92915050565b600080fd5b600080fd5b7f4e487b7100000000000000000000000000000000000000000000000000000000600052604160045260246000fd5b61105f82610f4f565b810181811067ffffffffffffffff8211171561107e5761107d611027565b5b80604052505050565b6000611091610e89565b905061109d8282611056565b919050565b600067ffffffffffffffff8211156110bd576110bc611027565b5b6110c682610f4f565b9050602081019050919050565b82818337600083830152505050565b60006110f56110f0846110a2565b611087565b90508281526020810184848401111561111157611110611022565b5b61111c8482856110d3565b509392505050565b600082601f8301126111395761113861101d565b5b81356111498482602086016110e2565b91505092915050565b600080600080600060a0868803121561116e5761116d610e93565b5b600086013567ffffffffffffffff81111561118c5761118b610e98565b5b61119888828901611124565b95505060206111a988828901610ebe565b94505060406111ba88828901610ebe565b93505060606111cb88828901610ebe565b92505060806111dc88828901610ebe565b9150509295509295909350565b600060208201905081810360008301526112038184610f60565b905092915050565b600073ffffffffffffffffffffffffffffffffffffffff82169050919050565b60006112368261120b565b9050919050565b6112468161122b565b811461125157600080fd5b50565b6000813590506112638161123d565b92915050565b60008060006060848603121561128257611281610e93565b5b600061129086828701610ebe565b93505060206112a186828701611254565b92505060406112b286828701610ebe565b9150509250925092565b7f4e487b7100000000000000000000000000000000000000000000000000000000600052602260045260246000fd5b6000600282049050600182168061130357607f821691505b60208210811415611317576113166112bc565b5b50919050565b60008151905061132c81610ea7565b92915050565b60006020828403121561134857611347610e93565b5b60006113568482850161131d565b91505092915050565b7f4e487b7100000000000000000000000000000000000000000000000000000000600052601260045260246000fd5b600061139982610e9d565b91506113a483610e9d565b9250826113b4576113b361135f565b5b828206905092915050565b600082825260208201905092915050565b7f4f776e65727368697020746f6b656e4944207265717569726564000000000000600082015250565b6000611406601a836113bf565b9150611411826113d0565b602082019050919050565b60006020820190508181036000830152611435816113f9565b9050919050565b7f4e487b7100000000000000000000000000000000000000000000000000000000600052601160045260246000fd5b600061147682610e9d565b915061148183610e9d565b9250827fffffffffffffffffffffffffffffffffffffffffffffffffffffffffffffffff038211156114b6576114b561143c565b5b828201905092915050565b7f42656c6f7720746865206d696e696d756d2076616c756520666f72207468652060008201527f70756c6c20726571756573740000000000000000000000000000000000000000602082015250565b600061151d602c836113bf565b9150611528826114c1565b604082019050919050565b6000602082019050818103600083015261154c81611510565b9050919050565b600061155e82610e9d565b915061156983610e9d565b9250817fffffffffffffffffffffffffffffffffffffffffffffffffffffffffffffffff04831182151516156115a2576115a161143c565b5b828202905092915050565b60006115b882610e9d565b91506115c383610e9d565b9250828210156115d6576115d561143c565b5b828203905092915050565b60006115ec82610e9d565b91506115f783610e9d565b9250826116075761160661135f565b5b828204905092915050565b7f4e6f206d6f726520746f6b656e7320666f722073616c652c20636865636b206260008201527f61636b206c617465722100000000000000000000000000000000000000000000602082015250565b600061166e602a836113bf565b915061167982611612565b604082019050919050565b6000602082019050818103600083015261169d81611661565b9050919050565b6116ad8161122b565b82525050565b60008190508160005260206000209050919050565b600081546116d5816112eb565b6116df8186610f0b565b945060018216600081146116fa576001811461170c5761173f565b60ff198316865260208601935061173f565b611715856116b3565b60005b8381101561173757815481890152600182019150602081019050611718565b808801955050505b50505092915050565b600060808201905061175d60008301876116a4565b61176a6020830186610f99565b6117776040830185610f99565b818103606083015261178981846116c8565b90509594505050505056fea2646970667358221220bfe5a905e1c9975c477cf82eb6b621c38e05a31c020c0a7765fe3ff544a7174264736f6c6343000809003360a060405234801561001057600080fd5b5061002d61002261007960201b60201c565b61008160201b60201c565b6002600381905550600180819055506001600281905550662386f26fc1000060048190555067016345785d8a000060058190555062989680600681905550601460808181525050610145565b600033905090565b60008060009054906101000a900473ffffffffffffffffffffffffffffffffffffffff169050816000806101000a81548173ffffffffffffffffffffffffffffffffffffffff021916908373ffffffffffffffffffffffffffffffffffffffff1602179055508173ffffffffffffffffffffffffffffffffffffffff168173ffffffffffffffffffffffffffffffffffffffff167f8be0079c531659141344cd1fd0a4f28419497f9722a3daafe3b4186f6b6457e060405160405180910390a35050565b608051610b9c610160600039600061066d0152610b9c6000f3fe608060405234801561001057600080fd5b50600436106100f55760003560e01c8063715018a6116100975780639117bd09116100665780639117bd0914610228578063a47954bb14610246578063ebbd051714610264578063f2fde38b14610280576100f5565b8063715018a6146101c85780637184302f146101d25780637275ee9b146101ee5780638da5cb5b1461020a576100f5565b80633230d549116100d35780633230d549146101545780633a8cdb651461017257806340140c481461018e57806351e75a8b146101aa576100f5565b806315d5f7e9146100fa57806321a455c4146101185780632f42091914610136575b600080fd5b61010261029c565b60405161010f9190610929565b60405180910390f35b6101206102a2565b60405161012d9190610929565b60405180910390f35b61013e6102a8565b60405161014b9190610929565b60405180910390f35b61015c6102ae565b6040516101699190610929565b60405180910390f35b61018c60048036038101906101879190610975565b6102b4565b005b6101a860048036038101906101a39190610975565b610371565b005b6101b2610430565b6040516101bf9190610929565b60405180910390f35b6101d0610436565b005b6101ec60048036038101906101e79190610975565b6104be565b005b61020860048036038101906102039190610975565b61057d565b005b61021261063c565b60405161021f91906109e3565b60405180910390f35b610230610665565b60405161023d9190610929565b60405180910390f35b61024e61066b565b60405161025b9190610929565b60405180910390f35b61027e60048036038101906102799190610975565b61068f565b005b61029a60048036038101906102959190610a2a565b61074c565b005b60025481565b60035481565b60065481565b60045481565b6102bc610844565b73ffffffffffffffffffffffffffffffffffffffff166102da61063c565b73ffffffffffffffffffffffffffffffffffffffff1614610330576040517f08c379a000000000000000000000000000000000000000000000000000000000815260040161032790610ab4565b60405180910390fd5b806002819055507f80b0f055593848ff65135150efc98d3945c2f2a132eb9e4b7a81696a72cd0001816040516103669190610929565b60405180910390a150565b610379610844565b73ffffffffffffffffffffffffffffffffffffffff1661039761063c565b73ffffffffffffffffffffffffffffffffffffffff16146103ed576040517f08c379a00000000000000000000000000000000000000000000000000000000081526004016103e490610ab4565b60405180910390fd5b806005819055507fc907b159b3ab953a9e54ac7bd5dce2bf6745664a92ac1ca0d21dda07ce052e2a6005546040516104259190610929565b60405180910390a150565b60055481565b61043e610844565b73ffffffffffffffffffffffffffffffffffffffff1661045c61063c565b73ffffffffffffffffffffffffffffffffffffffff16146104b2576040517f08c379a00000000000000000000000000000000000000000000000000000000081526004016104a990610ab4565b60405180910390fd5b6104bc600061084c565b565b6104c6610844565b73ffffffffffffffffffffffffffffffffffffffff166104e461063c565b73ffffffffffffffffffffffffffffffffffffffff161461053a576040517f08c379a000000000000000000000000000000000000000000000000000000000815260040161053190610ab4565b60405180910390fd5b806004819055507f8de4e09146330265d90dc43c484b706c38da69d576ee558a530dc144a3eb4bc76004546040516105729190610929565b60405180910390a150565b610585610844565b73ffffffffffffffffffffffffffffffffffffffff166105a361063c565b73ffffffffffffffffffffffffffffffffffffffff16146105f9576040517f08c379a00000000000000000000000000000000000000000000000000000000081526004016105f090610ab4565b60405180910390fd5b806006819055507f2452fcc6b5b09a25f18d7a95a3968c84a78d98aa87f7dc49fe76c83a36ab69fa6006546040516106319190610929565b60405180910390a150565b60008060009054906101000a900473ffffffffffffffffffffffffffffffffffffffff16905090565b60015481565b7f000000000000000000000000000000000000000000000000000000000000000081565b610697610844565b73ffffffffffffffffffffffffffffffffffffffff166106b561063c565b73ffffffffffffffffffffffffffffffffffffffff161461070b576040517f08c379a000000000000000000000000000000000000000000000000000000000815260040161070290610ab4565b60405180910390fd5b806001819055507fa1f814123f839834f7de198e1a5ec961e26474d2cb72b82cdf94309e59905dc8816040516107419190610929565b60405180910390a150565b610754610844565b73ffffffffffffffffffffffffffffffffffffffff1661077261063c565b73ffffffffffffffffffffffffffffffffffffffff16146107c8576040517f08c379a00000000000000000000000000000000000000000000000000000000081526004016107bf90610ab4565b60405180910390fd5b600073ffffffffffffffffffffffffffffffffffffffff168173ffffffffffffffffffffffffffffffffffffffff161415610838576040517f08c379a000000000000000000000000000000000000000000000000000000000815260040161082f90610b46565b60405180910390fd5b6108418161084c565b50565b600033905090565b60008060009054906101000a900473ffffffffffffffffffffffffffffffffffffffff169050816000806101000a81548173ffffffffffffffffffffffffffffffffffffffff021916908373ffffffffffffffffffffffffffffffffffffffff1602179055508173ffffffffffffffffffffffffffffffffffffffff168173ffffffffffffffffffffffffffffffffffffffff167f8be0079c531659141344cd1fd0a4f28419497f9722a3daafe3b4186f6b6457e060405160405180910390a35050565b6000819050919050565b61092381610910565b82525050565b600060208201905061093e600083018461091a565b92915050565b600080fd5b61095281610910565b811461095d57600080fd5b50565b60008135905061096f81610949565b92915050565b60006020828403121561098b5761098a610944565b5b600061099984828501610960565b91505092915050565b600073ffffffffffffffffffffffffffffffffffffffff82169050919050565b60006109cd826109a2565b9050919050565b6109dd816109c2565b82525050565b60006020820190506109f860008301846109d4565b92915050565b610a07816109c2565b8114610a1257600080fd5b50565b600081359050610a24816109fe565b92915050565b600060208284031215610a4057610a3f610944565b5b6000610a4e84828501610a15565b91505092915050565b600082825260208201905092915050565b7f4f776e61626c653a2063616c6c6572206973206e6f7420746865206f776e6572600082015250565b6000610a9e602083610a57565b9150610aa982610a68565b602082019050919050565b60006020820190508181036000830152610acd81610a91565b9050919050565b7f4f776e61626c653a206e6577206f776e657220697320746865207a65726f206160008201527f6464726573730000000000000000000000000000000000000000000000000000602082015250565b6000610b30602683610a57565b9150610b3b82610ad4565b604082019050919050565b60006020820190508181036000830152610b5f81610b23565b905091905056fea26469706673582212201bdfbeb426b82df4b0147bb0f87553b2f024cbfac9112f72c84b5084e7b07bf964736f6c63430008090033",
  "linkReferences": {},
  "deployedLinkReferences": {}
}