{
  "_format": "hh-sol-artifact-1",
  "contractName": "BondingCurve",
  "sourceName": "contracts/BondingCurve.sol",
  "abi": [
    {
      "inputs": [],
      "stateMutability": "nonpayable",
      "type": "constructor"
    },
    {
      "anonymous": false,
      "inputs": [
        {
          "indexed": false,
          "internalType": "address",
          "name": "owner",
          "type": "address"
        },
        {
          "indexed": false,
          "internalType": "uint256",
          "name": "tokenID",
          "type": "uint256"
        },
        {
          "indexed": false,
          "internalType": "uint256",
          "name": "amount",
          "type": "uint256"
        },
        {
          "indexed": false,
          "internalType": "bytes",
          "name": "tokenSymbol",
          "type": "bytes"
        }
      ],
      "name": "FungibleTokensEmitted",
      "type": "event"
    },
    {
      "inputs": [
        {
          "internalType": "uint256",
          "name": "",
          "type": "uint256"
        }
      ],
      "name": "bondingCurveParams",
      "outputs": [
        {
          "internalType": "bytes",
          "name": "tokenSymbol",
          "type": "bytes"
        },
        {
          "internalType": "uint256",
          "name": "tokenID",
          "type": "uint256"
        },
        {
          "internalType": "uint256",
          "name": "totalSupply",
          "type": "uint256"
        },
        {
          "internalType": "uint256",
          "name": "minPRPrice",
          "type": "uint256"
        },
        {
          "internalType": "uint256",
          "name": "ownerStake",
          "type": "uint256"
        }
      ],
      "stateMutability": "view",
      "type": "function"
    },
    {
      "inputs": [
        {
          "internalType": "uint256",
          "name": "price",
          "type": "uint256"
        },
        {
          "internalType": "address",
          "name": "creator_address",
          "type": "address"
        },
        {
          "internalType": "uint256",
          "name": "_ownershipTokenId",
          "type": "uint256"
        }
      ],
      "name": "calculatePurchaseReturn",
      "outputs": [
        {
          "internalType": "uint256",
          "name": "",
          "type": "uint256"
        }
      ],
      "stateMutability": "nonpayable",
      "type": "function"
    },
    {
      "inputs": [
        {
          "internalType": "uint256",
          "name": "_ownershipTokenId",
          "type": "uint256"
        }
      ],
      "name": "getMinPRPrice",
      "outputs": [
        {
          "internalType": "uint256",
          "name": "",
          "type": "uint256"
        }
      ],
      "stateMutability": "view",
      "type": "function"
    },
    {
      "inputs": [
        {
          "internalType": "uint256",
          "name": "_ownershipTokenId",
          "type": "uint256"
        }
      ],
      "name": "getOwnerStake",
      "outputs": [
        {
          "internalType": "uint256",
          "name": "",
          "type": "uint256"
        }
      ],
      "stateMutability": "view",
      "type": "function"
    },
    {
      "inputs": [
        {
          "internalType": "uint256",
          "name": "_ownershipTokenId",
          "type": "uint256"
        }
      ],
      "name": "getTokenId",
      "outputs": [
        {
          "internalType": "uint256",
          "name": "",
          "type": "uint256"
        }
      ],
      "stateMutability": "view",
      "type": "function"
    },
    {
      "inputs": [
        {
          "internalType": "uint256",
          "name": "_ownershipTokenId",
          "type": "uint256"
        }
      ],
      "name": "getTokenSymbol",
      "outputs": [
        {
          "internalType": "bytes",
          "name": "",
          "type": "bytes"
        }
      ],
      "stateMutability": "view",
      "type": "function"
    },
    {
      "inputs": [
        {
          "internalType": "uint256",
          "name": "_ownershipTokenId",
          "type": "uint256"
        }
      ],
      "name": "getTotalSupply",
      "outputs": [
        {
          "internalType": "uint256",
          "name": "",
          "type": "uint256"
        }
      ],
      "stateMutability": "view",
      "type": "function"
    },
    {
      "inputs": [
        {
          "internalType": "uint256",
          "name": "",
          "type": "uint256"
        }
      ],
      "name": "reserveCounter",
      "outputs": [
        {
          "internalType": "uint256",
          "name": "",
          "type": "uint256"
        }
      ],
      "stateMutability": "view",
      "type": "function"
    },
    {
      "inputs": [
        {
          "internalType": "bytes",
          "name": "_tokenSymbol",
          "type": "bytes"
        },
        {
          "internalType": "uint256",
          "name": "_tokenID",
          "type": "uint256"
        },
        {
          "internalType": "uint256",
          "name": "_totalSupply",
          "type": "uint256"
        },
        {
          "internalType": "uint256",
          "name": "_ownerStake",
          "type": "uint256"
        },
        {
          "internalType": "uint256",
          "name": "_minPRPrice",
          "type": "uint256"
        }
      ],
      "name": "setCurveParams",
      "outputs": [],
      "stateMutability": "nonpayable",
      "type": "function"
    }
  ],
  "bytecode": "0x60a060405234801561001057600080fd5b5060405161001d90610072565b604051809103906000f080158015610039573d6000803e3d6000fd5b5073ffffffffffffffffffffffffffffffffffffffff1660808173ffffffffffffffffffffffffffffffffffffffff168152505061007f565b610cfc8061188783390190565b6080516117ca6100bd600039600081816102fd015281816104d001528181610665015281816107720152818161087f0152610b8a01526117ca6000f3fe608060405234801561001057600080fd5b50600436106100935760003560e01c80639037e407116100665780639037e4071461014857806392ab723e14610178578063a251e13a146101a8578063b2d81b8d146101d8578063cf65de4a1461020857610093565b80630c8244dd1461009857806314ff5ea3146100cc57806371fe953d146100fc5780637b78bd3f14610118575b600080fd5b6100b260048036038101906100ad9190610ed3565b610238565b6040516100c3959493929190610fa8565b60405180910390f35b6100e660048036038101906100e19190610ed3565b6102f6565b6040516100f39190611002565b60405180910390f35b61011660048036038101906101119190611152565b610403565b005b610132600480360381019061012d9190610ed3565b6104c9565b60405161013f91906111e9565b60405180910390f35b610162600480360381019061015d9190610ed3565b61065e565b60405161016f9190611002565b60405180910390f35b610192600480360381019061018d9190610ed3565b61076b565b60405161019f9190611002565b60405180910390f35b6101c260048036038101906101bd9190611269565b610878565b6040516101cf9190611002565b60405180910390f35b6101f260048036038101906101ed9190610ed3565b610b83565b6040516101ff9190611002565b60405180910390f35b610222600480360381019061021d9190610ed3565b610c90565b60405161022f9190611002565b60405180910390f35b600160205280600052604060002060009150905080600001805461025b906112eb565b80601f0160208091040260200160405190810160405280929190818152602001828054610287906112eb565b80156102d45780601f106102a9576101008083540402835291602001916102d4565b820191906000526020600020905b8154815290600101906020018083116102b757829003601f168201915b5050505050908060010154908060020154908060030154908060040154905085565b60008160007f000000000000000000000000000000000000000000000000000000000000000073ffffffffffffffffffffffffffffffffffffffff166321a455c46040518163ffffffff1660e01b815260040160206040518083038186803b15801561036157600080fd5b505afa158015610375573d6000803e3d6000fd5b505050506040513d601f19601f820116820180604052508101906103999190611332565b826103a4919061138e565b146103e4576040517f08c379a00000000000000000000000000000000000000000000000000000000081526004016103db9061141c565b60405180910390fd5b6001600084815260200190815260200160002060010154915050919050565b61040b610db7565b858160000181905250848160200181815250508381604001818152505082816080018181525050818160600181815250508060016000878152602001908152602001600020600082015181600001908051906020019061046c929190610de6565b50602082015181600101556040820151816002015560608201518160030155608082015181600401559050508260008087815260200190815260200160002060008282546104ba919061146b565b92505081905550505050505050565b60608160007f000000000000000000000000000000000000000000000000000000000000000073ffffffffffffffffffffffffffffffffffffffff166321a455c46040518163ffffffff1660e01b815260040160206040518083038186803b15801561053457600080fd5b505afa158015610548573d6000803e3d6000fd5b505050506040513d601f19601f8201168201806040525081019061056c9190611332565b82610577919061138e565b146105b7576040517f08c379a00000000000000000000000000000000000000000000000000000000081526004016105ae9061141c565b60405180910390fd5b6001600084815260200190815260200160002060000180546105d8906112eb565b80601f0160208091040260200160405190810160405280929190818152602001828054610604906112eb565b80156106515780601f1061062657610100808354040283529160200191610651565b820191906000526020600020905b81548152906001019060200180831161063457829003601f168201915b5050505050915050919050565b60008160007f000000000000000000000000000000000000000000000000000000000000000073ffffffffffffffffffffffffffffffffffffffff166321a455c46040518163ffffffff1660e01b815260040160206040518083038186803b1580156106c957600080fd5b505afa1580156106dd573d6000803e3d6000fd5b505050506040513d601f19601f820116820180604052508101906107019190611332565b8261070c919061138e565b1461074c576040517f08c379a00000000000000000000000000000000000000000000000000000000081526004016107439061141c565b60405180910390fd5b6001600084815260200190815260200160002060040154915050919050565b60008160007f000000000000000000000000000000000000000000000000000000000000000073ffffffffffffffffffffffffffffffffffffffff166321a455c46040518163ffffffff1660e01b815260040160206040518083038186803b1580156107d657600080fd5b505afa1580156107ea573d6000803e3d6000fd5b505050506040513d601f19601f8201168201806040525081019061080e9190611332565b82610819919061138e565b14610859576040517f08c379a00000000000000000000000000000000000000000000000000000000081526004016108509061141c565b60405180910390fd5b6001600084815260200190815260200160002060020154915050919050565b60008160007f000000000000000000000000000000000000000000000000000000000000000073ffffffffffffffffffffffffffffffffffffffff166321a455c46040518163ffffffff1660e01b815260040160206040518083038186803b1580156108e357600080fd5b505afa1580156108f7573d6000803e3d6000fd5b505050506040513d601f19601f8201168201806040525081019061091b9190611332565b82610926919061138e565b14610966576040517f08c379a000000000000000000000000000000000000000000000000000000000815260040161095d9061141c565b60405180910390fd5b60016000848152602001908152602001600020600301548510156109bf576040517f08c379a00000000000000000000000000000000000000000000000000000000081526004016109b690611533565b60405180910390fd5b6000600a60016064610a25610a146127108b6109db9190611553565b6000808b815260200190815260200160002054600160008c815260200190815260200160002060020154610a0f91906115ad565b610ca8565b6001610a20919061146b565b610cf6565b610a2f91906115e1565b610a3991906115ad565b60016000878152602001908152602001600020600401546001600088815260200190815260200160002060020154610a7191906115ad565b610a7b9190611553565b610a8591906115e1565b905060016000858152602001908152602001600020600201548160008087815260200190815260200160002054610abc919061146b565b10610afc576040517f08c379a0000000000000000000000000000000000000000000000000000000008152600401610af390611684565b60405180910390fd5b806000808681526020019081526020016000206000828254610b1e919061146b565b925050819055507f18a9df754d582bf0fc3091d77d8a6e64b1c66c14df117fc189e245e7a017a1fc85858360016000898152602001908152602001600020600001604051610b6f9493929190611748565b60405180910390a180925050509392505050565b60008160007f000000000000000000000000000000000000000000000000000000000000000073ffffffffffffffffffffffffffffffffffffffff166321a455c46040518163ffffffff1660e01b815260040160206040518083038186803b158015610bee57600080fd5b505afa158015610c02573d6000803e3d6000fd5b505050506040513d601f19601f82011682018060405250810190610c269190611332565b82610c31919061138e565b14610c71576040517f08c379a0000000000000000000000000000000000000000000000000000000008152600401610c689061141c565b60405180910390fd5b6001600084815260200190815260200160002060030154915050919050565b60006020528060005260406000206000915090505481565b6000600282610cb791906115e1565b82610cc291906115ad565b8284610cce919061138e565b610cd891906115e1565b8284610ce491906115e1565b610cee919061146b565b905092915050565b600080610d0283610d32565b9050828182610d119190611553565b14610d2857600181610d23919061146b565b610d2a565b805b915050919050565b6000806001600284610d4491906115e1565b610d4e919061146b565b9050600060028285610d6091906115e1565b83610d6b919061146b565b610d7591906115e1565b90505b80821115610dad5780915060028285610d9191906115e1565b83610d9c919061146b565b610da691906115e1565b9050610d78565b8192505050919050565b6040518060a0016040528060608152602001600081526020016000815260200160008152602001600081525090565b828054610df2906112eb565b90600052602060002090601f016020900481019282610e145760008555610e5b565b82601f10610e2d57805160ff1916838001178555610e5b565b82800160010185558215610e5b579182015b82811115610e5a578251825591602001919060010190610e3f565b5b509050610e689190610e6c565b5090565b5b80821115610e85576000816000905550600101610e6d565b5090565b6000604051905090565b600080fd5b600080fd5b6000819050919050565b610eb081610e9d565b8114610ebb57600080fd5b50565b600081359050610ecd81610ea7565b92915050565b600060208284031215610ee957610ee8610e93565b5b6000610ef784828501610ebe565b91505092915050565b600081519050919050565b600082825260208201905092915050565b60005b83811015610f3a578082015181840152602081019050610f1f565b83811115610f49576000848401525b50505050565b6000601f19601f8301169050919050565b6000610f6b82610f00565b610f758185610f0b565b9350610f85818560208601610f1c565b610f8e81610f4f565b840191505092915050565b610fa281610e9d565b82525050565b600060a0820190508181036000830152610fc28188610f60565b9050610fd16020830187610f99565b610fde6040830186610f99565b610feb6060830185610f99565b610ff86080830184610f99565b9695505050505050565b60006020820190506110176000830184610f99565b92915050565b600080fd5b600080fd5b7f4e487b7100000000000000000000000000000000000000000000000000000000600052604160045260246000fd5b61105f82610f4f565b810181811067ffffffffffffffff8211171561107e5761107d611027565b5b80604052505050565b6000611091610e89565b905061109d8282611056565b919050565b600067ffffffffffffffff8211156110bd576110bc611027565b5b6110c682610f4f565b9050602081019050919050565b82818337600083830152505050565b60006110f56110f0846110a2565b611087565b90508281526020810184848401111561111157611110611022565b5b61111c8482856110d3565b509392505050565b600082601f8301126111395761113861101d565b5b81356111498482602086016110e2565b91505092915050565b600080600080600060a0868803121561116e5761116d610e93565b5b600086013567ffffffffffffffff81111561118c5761118b610e98565b5b61119888828901611124565b95505060206111a988828901610ebe565b94505060406111ba88828901610ebe565b93505060606111cb88828901610ebe565b92505060806111dc88828901610ebe565b9150509295509295909350565b600060208201905081810360008301526112038184610f60565b905092915050565b600073ffffffffffffffffffffffffffffffffffffffff82169050919050565b60006112368261120b565b9050919050565b6112468161122b565b811461125157600080fd5b50565b6000813590506112638161123d565b92915050565b60008060006060848603121561128257611281610e93565b5b600061129086828701610ebe565b93505060206112a186828701611254565b92505060406112b286828701610ebe565b9150509250925092565b7f4e487b7100000000000000000000000000000000000000000000000000000000600052602260045260246000fd5b6000600282049050600182168061130357607f821691505b60208210811415611317576113166112bc565b5b50919050565b60008151905061132c81610ea7565b92915050565b60006020828403121561134857611347610e93565b5b60006113568482850161131d565b91505092915050565b7f4e487b7100000000000000000000000000000000000000000000000000000000600052601260045260246000fd5b600061139982610e9d565b91506113a483610e9d565b9250826113b4576113b361135f565b5b828206905092915050565b600082825260208201905092915050565b7f4f776e65727368697020746f6b656e4944207265717569726564000000000000600082015250565b6000611406601a836113bf565b9150611411826113d0565b602082019050919050565b60006020820190508181036000830152611435816113f9565b9050919050565b7f4e487b7100000000000000000000000000000000000000000000000000000000600052601160045260246000fd5b600061147682610e9d565b915061148183610e9d565b9250827fffffffffffffffffffffffffffffffffffffffffffffffffffffffffffffffff038211156114b6576114b561143c565b5b828201905092915050565b7f42656c6f7720746865206d696e696d756d2076616c756520666f72207468652060008201527f70756c6c20726571756573740000000000000000000000000000000000000000602082015250565b600061151d602c836113bf565b9150611528826114c1565b604082019050919050565b6000602082019050818103600083015261154c81611510565b9050919050565b600061155e82610e9d565b915061156983610e9d565b9250817fffffffffffffffffffffffffffffffffffffffffffffffffffffffffffffffff04831182151516156115a2576115a161143c565b5b828202905092915050565b60006115b882610e9d565b91506115c383610e9d565b9250828210156115d6576115d561143c565b5b828203905092915050565b60006115ec82610e9d565b91506115f783610e9d565b9250826116075761160661135f565b5b828204905092915050565b7f4e6f206d6f726520746f6b656e7320666f722073616c652c20636865636b206260008201527f61636b206c617465722100000000000000000000000000000000000000000000602082015250565b600061166e602a836113bf565b915061167982611612565b604082019050919050565b6000602082019050818103600083015261169d81611661565b9050919050565b6116ad8161122b565b82525050565b60008190508160005260206000209050919050565b600081546116d5816112eb565b6116df8186610f0b565b945060018216600081146116fa576001811461170c5761173f565b60ff198316865260208601935061173f565b611715856116b3565b60005b8381101561173757815481890152600182019150602081019050611718565b808801955050505b50505092915050565b600060808201905061175d60008301876116a4565b61176a6020830186610f99565b6117776040830185610f99565b818103606083015261178981846116c8565b90509594505050505056fea26469706673582212202d68a09189a1399cf90a504a67279afd5e1f26c59b2b61e55b2d7b1828053a1664736f6c6343000809003360a060405234801561001057600080fd5b5061002d61002261007960201b60201c565b61008160201b60201c565b6002600381905550600180819055506001600281905550662386f26fc1000060048190555067016345785d8a000060058190555062989680600681905550601460808181525050610145565b600033905090565b60008060009054906101000a900473ffffffffffffffffffffffffffffffffffffffff169050816000806101000a81548173ffffffffffffffffffffffffffffffffffffffff021916908373ffffffffffffffffffffffffffffffffffffffff1602179055508173ffffffffffffffffffffffffffffffffffffffff168173ffffffffffffffffffffffffffffffffffffffff167f8be0079c531659141344cd1fd0a4f28419497f9722a3daafe3b4186f6b6457e060405160405180910390a35050565b608051610b9c610160600039600061066d0152610b9c6000f3fe608060405234801561001057600080fd5b50600436106100f55760003560e01c8063715018a6116100975780639117bd09116100665780639117bd0914610228578063a47954bb14610246578063ebbd051714610264578063f2fde38b14610280576100f5565b8063715018a6146101c85780637184302f146101d25780637275ee9b146101ee5780638da5cb5b1461020a576100f5565b80633230d549116100d35780633230d549146101545780633a8cdb651461017257806340140c481461018e57806351e75a8b146101aa576100f5565b806315d5f7e9146100fa57806321a455c4146101185780632f42091914610136575b600080fd5b61010261029c565b60405161010f9190610929565b60405180910390f35b6101206102a2565b60405161012d9190610929565b60405180910390f35b61013e6102a8565b60405161014b9190610929565b60405180910390f35b61015c6102ae565b6040516101699190610929565b60405180910390f35b61018c60048036038101906101879190610975565b6102b4565b005b6101a860048036038101906101a39190610975565b610371565b005b6101b2610430565b6040516101bf9190610929565b60405180910390f35b6101d0610436565b005b6101ec60048036038101906101e79190610975565b6104be565b005b61020860048036038101906102039190610975565b61057d565b005b61021261063c565b60405161021f91906109e3565b60405180910390f35b610230610665565b60405161023d9190610929565b60405180910390f35b61024e61066b565b60405161025b9190610929565b60405180910390f35b61027e60048036038101906102799190610975565b61068f565b005b61029a60048036038101906102959190610a2a565b61074c565b005b60025481565b60035481565b60065481565b60045481565b6102bc610844565b73ffffffffffffffffffffffffffffffffffffffff166102da61063c565b73ffffffffffffffffffffffffffffffffffffffff1614610330576040517f08c379a000000000000000000000000000000000000000000000000000000000815260040161032790610ab4565b60405180910390fd5b806002819055507f80b0f055593848ff65135150efc98d3945c2f2a132eb9e4b7a81696a72cd0001816040516103669190610929565b60405180910390a150565b610379610844565b73ffffffffffffffffffffffffffffffffffffffff1661039761063c565b73ffffffffffffffffffffffffffffffffffffffff16146103ed576040517f08c379a00000000000000000000000000000000000000000000000000000000081526004016103e490610ab4565b60405180910390fd5b806005819055507fc907b159b3ab953a9e54ac7bd5dce2bf6745664a92ac1ca0d21dda07ce052e2a6005546040516104259190610929565b60405180910390a150565b60055481565b61043e610844565b73ffffffffffffffffffffffffffffffffffffffff1661045c61063c565b73ffffffffffffffffffffffffffffffffffffffff16146104b2576040517f08c379a00000000000000000000000000000000000000000000000000000000081526004016104a990610ab4565b60405180910390fd5b6104bc600061084c565b565b6104c6610844565b73ffffffffffffffffffffffffffffffffffffffff166104e461063c565b73ffffffffffffffffffffffffffffffffffffffff161461053a576040517f08c379a000000000000000000000000000000000000000000000000000000000815260040161053190610ab4565b60405180910390fd5b806004819055507f8de4e09146330265d90dc43c484b706c38da69d576ee558a530dc144a3eb4bc76004546040516105729190610929565b60405180910390a150565b610585610844565b73ffffffffffffffffffffffffffffffffffffffff166105a361063c565b73ffffffffffffffffffffffffffffffffffffffff16146105f9576040517f08c379a00000000000000000000000000000000000000000000000000000000081526004016105f090610ab4565b60405180910390fd5b806006819055507f2452fcc6b5b09a25f18d7a95a3968c84a78d98aa87f7dc49fe76c83a36ab69fa6006546040516106319190610929565b60405180910390a150565b60008060009054906101000a900473ffffffffffffffffffffffffffffffffffffffff16905090565b60015481565b7f000000000000000000000000000000000000000000000000000000000000000081565b610697610844565b73ffffffffffffffffffffffffffffffffffffffff166106b561063c565b73ffffffffffffffffffffffffffffffffffffffff161461070b576040517f08c379a000000000000000000000000000000000000000000000000000000000815260040161070290610ab4565b60405180910390fd5b806001819055507fa1f814123f839834f7de198e1a5ec961e26474d2cb72b82cdf94309e59905dc8816040516107419190610929565b60405180910390a150565b610754610844565b73ffffffffffffffffffffffffffffffffffffffff1661077261063c565b73ffffffffffffffffffffffffffffffffffffffff16146107c8576040517f08c379a00000000000000000000000000000000000000000000000000000000081526004016107bf90610ab4565b60405180910390fd5b600073ffffffffffffffffffffffffffffffffffffffff168173ffffffffffffffffffffffffffffffffffffffff161415610838576040517f08c379a000000000000000000000000000000000000000000000000000000000815260040161082f90610b46565b60405180910390fd5b6108418161084c565b50565b600033905090565b60008060009054906101000a900473ffffffffffffffffffffffffffffffffffffffff169050816000806101000a81548173ffffffffffffffffffffffffffffffffffffffff021916908373ffffffffffffffffffffffffffffffffffffffff1602179055508173ffffffffffffffffffffffffffffffffffffffff168173ffffffffffffffffffffffffffffffffffffffff167f8be0079c531659141344cd1fd0a4f28419497f9722a3daafe3b4186f6b6457e060405160405180910390a35050565b6000819050919050565b61092381610910565b82525050565b600060208201905061093e600083018461091a565b92915050565b600080fd5b61095281610910565b811461095d57600080fd5b50565b60008135905061096f81610949565b92915050565b60006020828403121561098b5761098a610944565b5b600061099984828501610960565b91505092915050565b600073ffffffffffffffffffffffffffffffffffffffff82169050919050565b60006109cd826109a2565b9050919050565b6109dd816109c2565b82525050565b60006020820190506109f860008301846109d4565b92915050565b610a07816109c2565b8114610a1257600080fd5b50565b600081359050610a24816109fe565b92915050565b600060208284031215610a4057610a3f610944565b5b6000610a4e84828501610a15565b91505092915050565b600082825260208201905092915050565b7f4f776e61626c653a2063616c6c6572206973206e6f7420746865206f776e6572600082015250565b6000610a9e602083610a57565b9150610aa982610a68565b602082019050919050565b60006020820190508181036000830152610acd81610a91565b9050919050565b7f4f776e61626c653a206e6577206f776e657220697320746865207a65726f206160008201527f6464726573730000000000000000000000000000000000000000000000000000602082015250565b6000610b30602683610a57565b9150610b3b82610ad4565b604082019050919050565b60006020820190508181036000830152610b5f81610b23565b905091905056fea264697066735822122031a70788a51dd23d0aa605eaf215f9a05a2e1ea87048391d1d4258ba3c77948464736f6c63430008090033",
  "linkReferences": {},
  "deployedLinkReferences": {}
}