{
  "_format": "hh-sol-artifact-1",
  "contractName": "Content",
  "sourceName": "contracts/Content.sol",
  "abi": [
    {
      "inputs": [
        {
          "internalType": "address",
          "name": "_adminAddr",
          "type": "address"
        },
        {
          "internalType": "address",
          "name": "_settingsAddr",
          "type": "address"
        }
      ],
      "stateMutability": "nonpayable",
      "type": "constructor"
    },
    {
      "anonymous": false,
      "inputs": [
        {
          "indexed": true,
          "internalType": "address",
          "name": "account",
          "type": "address"
        },
        {
          "indexed": true,
          "internalType": "address",
          "name": "operator",
          "type": "address"
        },
        {
          "indexed": false,
          "internalType": "bool",
          "name": "approved",
          "type": "bool"
        }
      ],
      "name": "ApprovalForAll",
      "type": "event"
    },
    {
      "anonymous": false,
      "inputs": [
        {
          "indexed": false,
          "internalType": "uint256",
          "name": "tokenID",
          "type": "uint256"
        },
        {
          "indexed": false,
          "internalType": "address",
          "name": "creator",
          "type": "address"
        }
      ],
      "name": "NewContentMinted",
      "type": "event"
    },
    {
      "anonymous": false,
      "inputs": [
        {
          "indexed": false,
          "internalType": "address",
          "name": "PRowner",
          "type": "address"
        },
        {
          "indexed": false,
          "internalType": "uint256",
          "name": "tokenID",
          "type": "uint256"
        },
        {
          "indexed": false,
          "internalType": "uint256",
          "name": "PRPrice",
          "type": "uint256"
        }
      ],
      "name": "NewPR",
      "type": "event"
    },
    {
      "anonymous": false,
      "inputs": [
        {
          "indexed": false,
          "internalType": "uint256",
          "name": "tokenID",
          "type": "uint256"
        }
      ],
      "name": "NoPRApproved",
      "type": "event"
    },
    {
      "anonymous": false,
      "inputs": [
        {
          "indexed": true,
          "internalType": "address",
          "name": "previousOwner",
          "type": "address"
        },
        {
          "indexed": true,
          "internalType": "address",
          "name": "newOwner",
          "type": "address"
        }
      ],
      "name": "OwnershipTransferred",
      "type": "event"
    },
    {
      "anonymous": false,
      "inputs": [
        {
          "indexed": false,
          "internalType": "uint256",
          "name": "tokenID",
          "type": "uint256"
        },
        {
          "indexed": false,
          "internalType": "address",
          "name": "PRwinner",
          "type": "address"
        }
      ],
      "name": "PRApproved",
      "type": "event"
    },
    {
      "anonymous": false,
      "inputs": [
        {
          "indexed": true,
          "internalType": "address",
          "name": "operator",
          "type": "address"
        },
        {
          "indexed": true,
          "internalType": "address",
          "name": "from",
          "type": "address"
        },
        {
          "indexed": true,
          "internalType": "address",
          "name": "to",
          "type": "address"
        },
        {
          "indexed": false,
          "internalType": "uint256[]",
          "name": "ids",
          "type": "uint256[]"
        },
        {
          "indexed": false,
          "internalType": "uint256[]",
          "name": "values",
          "type": "uint256[]"
        }
      ],
      "name": "TransferBatch",
      "type": "event"
    },
    {
      "anonymous": false,
      "inputs": [
        {
          "indexed": true,
          "internalType": "address",
          "name": "operator",
          "type": "address"
        },
        {
          "indexed": true,
          "internalType": "address",
          "name": "from",
          "type": "address"
        },
        {
          "indexed": true,
          "internalType": "address",
          "name": "to",
          "type": "address"
        },
        {
          "indexed": false,
          "internalType": "uint256",
          "name": "id",
          "type": "uint256"
        },
        {
          "indexed": false,
          "internalType": "uint256",
          "name": "value",
          "type": "uint256"
        }
      ],
      "name": "TransferSingle",
      "type": "event"
    },
    {
      "anonymous": false,
      "inputs": [
        {
          "indexed": false,
          "internalType": "string",
          "name": "value",
          "type": "string"
        },
        {
          "indexed": true,
          "internalType": "uint256",
          "name": "id",
          "type": "uint256"
        }
      ],
      "name": "URI",
      "type": "event"
    },
    {
      "anonymous": false,
      "inputs": [],
      "name": "VoteCreditsAssigned",
      "type": "event"
    },
    {
      "anonymous": false,
      "inputs": [
        {
          "indexed": false,
          "internalType": "address",
          "name": "voter",
          "type": "address"
        },
        {
          "indexed": false,
          "internalType": "address",
          "name": "PRowner",
          "type": "address"
        },
        {
          "indexed": false,
          "internalType": "uint256",
          "name": "voteCredits",
          "type": "uint256"
        },
        {
          "indexed": false,
          "internalType": "bool",
          "name": "positive",
          "type": "bool"
        },
        {
          "indexed": false,
          "internalType": "uint256",
          "name": "tokenID",
          "type": "uint256"
        }
      ],
      "name": "Voted",
      "type": "event"
    },
    {
      "inputs": [],
      "name": "PRsAddress",
      "outputs": [
        {
          "internalType": "address",
          "name": "",
          "type": "address"
        }
      ],
      "stateMutability": "view",
      "type": "function"
    },
    {
      "inputs": [],
      "name": "_assignVoteCredits",
      "outputs": [],
      "stateMutability": "nonpayable",
      "type": "function"
    },
    {
      "inputs": [],
      "name": "approvePRs",
      "outputs": [],
      "stateMutability": "nonpayable",
      "type": "function"
    },
    {
      "inputs": [
        {
          "internalType": "address",
          "name": "account",
          "type": "address"
        },
        {
          "internalType": "uint256",
          "name": "id",
          "type": "uint256"
        }
      ],
      "name": "balanceOf",
      "outputs": [
        {
          "internalType": "uint256",
          "name": "",
          "type": "uint256"
        }
      ],
      "stateMutability": "view",
      "type": "function"
    },
    {
      "inputs": [
        {
          "internalType": "address[]",
          "name": "accounts",
          "type": "address[]"
        },
        {
          "internalType": "uint256[]",
          "name": "ids",
          "type": "uint256[]"
        }
      ],
      "name": "balanceOfBatch",
      "outputs": [
        {
          "internalType": "uint256[]",
          "name": "",
          "type": "uint256[]"
        }
      ],
      "stateMutability": "view",
      "type": "function"
    },
    {
      "inputs": [],
      "name": "bondingCurveAddress",
      "outputs": [
        {
          "internalType": "address",
          "name": "",
          "type": "address"
        }
      ],
      "stateMutability": "view",
      "type": "function"
    },
    {
      "inputs": [],
      "name": "contentAddress",
      "outputs": [
        {
          "internalType": "address",
          "name": "",
          "type": "address"
        }
      ],
      "stateMutability": "view",
      "type": "function"
    },
    {
      "inputs": [
        {
          "internalType": "uint256",
          "name": "",
          "type": "uint256"
        },
        {
          "internalType": "uint256",
          "name": "",
          "type": "uint256"
        }
      ],
      "name": "contentAuthors",
      "outputs": [
        {
          "internalType": "address",
          "name": "",
          "type": "address"
        }
      ],
      "stateMutability": "view",
      "type": "function"
    },
    {
      "inputs": [
        {
          "internalType": "uint256",
          "name": "",
          "type": "uint256"
        }
      ],
      "name": "contentComplete",
      "outputs": [
        {
          "internalType": "bool",
          "name": "",
          "type": "bool"
        }
      ],
      "stateMutability": "view",
      "type": "function"
    },
    {
      "inputs": [
        {
          "internalType": "uint256",
          "name": "",
          "type": "uint256"
        }
      ],
      "name": "contentData",
      "outputs": [
        {
          "internalType": "bytes",
          "name": "",
          "type": "bytes"
        }
      ],
      "stateMutability": "view",
      "type": "function"
    },
    {
      "inputs": [],
      "name": "contentTokenID",
      "outputs": [
        {
          "internalType": "uint256",
          "name": "",
          "type": "uint256"
        }
      ],
      "stateMutability": "view",
      "type": "function"
    },
    {
      "inputs": [
        {
          "internalType": "uint256",
          "name": "_tokenId",
          "type": "uint256"
        }
      ],
      "name": "getContent",
      "outputs": [
        {
          "internalType": "bytes",
          "name": "",
          "type": "bytes"
        }
      ],
      "stateMutability": "view",
      "type": "function"
    },
    {
      "inputs": [
        {
          "internalType": "address",
          "name": "account",
          "type": "address"
        },
        {
          "internalType": "address",
          "name": "operator",
          "type": "address"
        }
      ],
      "name": "isApprovedForAll",
      "outputs": [
        {
          "internalType": "bool",
          "name": "",
          "type": "bool"
        }
      ],
      "stateMutability": "view",
      "type": "function"
    },
    {
      "inputs": [
        {
          "internalType": "bytes",
          "name": "tokenSymbol",
          "type": "bytes"
        },
        {
          "internalType": "uint256",
          "name": "totalSupply",
          "type": "uint256"
        },
        {
          "internalType": "uint256",
          "name": "ownerStake",
          "type": "uint256"
        },
        {
          "internalType": "uint256",
          "name": "minPRPrice",
          "type": "uint256"
        },
        {
          "internalType": "bytes",
          "name": "data",
          "type": "bytes"
        }
      ],
      "name": "mint",
      "outputs": [
        {
          "internalType": "uint256",
          "name": "",
          "type": "uint256"
        }
      ],
      "stateMutability": "payable",
      "type": "function"
    },
    {
      "inputs": [
        {
          "internalType": "address",
          "name": "operator",
          "type": "address"
        },
        {
          "internalType": "address",
          "name": "from",
          "type": "address"
        },
        {
          "internalType": "uint256[]",
          "name": "ids",
          "type": "uint256[]"
        },
        {
          "internalType": "uint256[]",
          "name": "values",
          "type": "uint256[]"
        },
        {
          "internalType": "bytes",
          "name": "data",
          "type": "bytes"
        }
      ],
      "name": "onERC1155BatchReceived",
      "outputs": [
        {
          "internalType": "bytes4",
          "name": "",
          "type": "bytes4"
        }
      ],
      "stateMutability": "nonpayable",
      "type": "function"
    },
    {
      "inputs": [
        {
          "internalType": "address",
          "name": "operator",
          "type": "address"
        },
        {
          "internalType": "address",
          "name": "from",
          "type": "address"
        },
        {
          "internalType": "uint256",
          "name": "id",
          "type": "uint256"
        },
        {
          "internalType": "uint256",
          "name": "value",
          "type": "uint256"
        },
        {
          "internalType": "bytes",
          "name": "data",
          "type": "bytes"
        }
      ],
      "name": "onERC1155Received",
      "outputs": [
        {
          "internalType": "bytes4",
          "name": "",
          "type": "bytes4"
        }
      ],
      "stateMutability": "nonpayable",
      "type": "function"
    },
    {
      "inputs": [],
      "name": "owner",
      "outputs": [
        {
          "internalType": "address",
          "name": "",
          "type": "address"
        }
      ],
      "stateMutability": "view",
      "type": "function"
    },
    {
      "inputs": [],
      "name": "renounceOwnership",
      "outputs": [],
      "stateMutability": "nonpayable",
      "type": "function"
    },
    {
      "inputs": [
        {
          "internalType": "address",
          "name": "from",
          "type": "address"
        },
        {
          "internalType": "address",
          "name": "to",
          "type": "address"
        },
        {
          "internalType": "uint256[]",
          "name": "ids",
          "type": "uint256[]"
        },
        {
          "internalType": "uint256[]",
          "name": "amounts",
          "type": "uint256[]"
        },
        {
          "internalType": "bytes",
          "name": "data",
          "type": "bytes"
        }
      ],
      "name": "safeBatchTransferFrom",
      "outputs": [],
      "stateMutability": "nonpayable",
      "type": "function"
    },
    {
      "inputs": [
        {
          "internalType": "address",
          "name": "from",
          "type": "address"
        },
        {
          "internalType": "address",
          "name": "to",
          "type": "address"
        },
        {
          "internalType": "uint256",
          "name": "id",
          "type": "uint256"
        },
        {
          "internalType": "uint256",
          "name": "amount",
          "type": "uint256"
        },
        {
          "internalType": "bytes",
          "name": "data",
          "type": "bytes"
        }
      ],
      "name": "safeTransferFrom",
      "outputs": [],
      "stateMutability": "nonpayable",
      "type": "function"
    },
    {
      "inputs": [
        {
          "internalType": "address",
          "name": "operator",
          "type": "address"
        },
        {
          "internalType": "bool",
          "name": "approved",
          "type": "bool"
        }
      ],
      "name": "setApprovalForAll",
      "outputs": [],
      "stateMutability": "nonpayable",
      "type": "function"
    },
    {
      "inputs": [],
      "name": "settingsAddress",
      "outputs": [
        {
          "internalType": "address",
          "name": "",
          "type": "address"
        }
      ],
      "stateMutability": "view",
      "type": "function"
    },
    {
      "inputs": [
        {
          "internalType": "bytes",
          "name": "_PRtext",
          "type": "bytes"
        },
        {
          "internalType": "uint256",
          "name": "_contentTokenID",
          "type": "uint256"
        }
      ],
      "name": "submitPR",
      "outputs": [],
      "stateMutability": "payable",
      "type": "function"
    },
    {
      "inputs": [
        {
          "internalType": "bytes4",
          "name": "interfaceId",
          "type": "bytes4"
        }
      ],
      "name": "supportsInterface",
      "outputs": [
        {
          "internalType": "bool",
          "name": "",
          "type": "bool"
        }
      ],
      "stateMutability": "view",
      "type": "function"
    },
    {
      "inputs": [
        {
          "internalType": "address",
          "name": "newOwner",
          "type": "address"
        }
      ],
      "name": "transferOwnership",
      "outputs": [],
      "stateMutability": "nonpayable",
      "type": "function"
    },
    {
      "inputs": [
        {
          "internalType": "uint256",
          "name": "",
          "type": "uint256"
        }
      ],
      "name": "uri",
      "outputs": [
        {
          "internalType": "string",
          "name": "",
          "type": "string"
        }
      ],
      "stateMutability": "view",
      "type": "function"
    },
    {
      "inputs": [
        {
          "internalType": "address",
          "name": "_PRowner",
          "type": "address"
        },
        {
          "internalType": "uint256",
          "name": "_numVotes",
          "type": "uint256"
        },
        {
          "internalType": "bool",
          "name": "positive",
          "type": "bool"
        },
        {
          "internalType": "uint256",
          "name": "ownertokenId",
          "type": "uint256"
        }
      ],
      "name": "vote",
      "outputs": [],
      "stateMutability": "nonpayable",
      "type": "function"
    },
    {
      "inputs": [
        {
          "internalType": "uint256",
          "name": "",
          "type": "uint256"
        },
        {
          "internalType": "address",
          "name": "",
          "type": "address"
        }
      ],
      "name": "voteCredits",
      "outputs": [
        {
          "internalType": "uint256",
          "name": "",
          "type": "uint256"
        }
      ],
      "stateMutability": "view",
      "type": "function"
    }
  ],
  "bytecode": "0x61010060405260016008553480156200001757600080fd5b506040516200ac263803806200ac2683398181016040528101906200003d9190620004d7565b604051806020016040528060008152506200005e81620002b760201b60201c565b506200007f62000073620002d360201b60201c565b620002db60201b60201c565b6040516200008d90620003a1565b604051809103906000f080158015620000aa573d6000803e3d6000fd5b5073ffffffffffffffffffffffffffffffffffffffff1660c08173ffffffffffffffffffffffffffffffffffffffff168152505060c051600760006101000a81548173ffffffffffffffffffffffffffffffffffffffff021916908373ffffffffffffffffffffffffffffffffffffffff1602179055508073ffffffffffffffffffffffffffffffffffffffff1660a08173ffffffffffffffffffffffffffffffffffffffff168152505060a051600660006101000a81548173ffffffffffffffffffffffffffffffffffffffff021916908373ffffffffffffffffffffffffffffffffffffffff1602179055508173ffffffffffffffffffffffffffffffffffffffff1660808173ffffffffffffffffffffffffffffffffffffffff1681525050604051620001da90620003af565b604051809103906000f080158015620001f7573d6000803e3d6000fd5b5073ffffffffffffffffffffffffffffffffffffffff1660e08173ffffffffffffffffffffffffffffffffffffffff168152505060e051600560006101000a81548173ffffffffffffffffffffffffffffffffffffffff021916908373ffffffffffffffffffffffffffffffffffffffff16021790555030600460006101000a81548173ffffffffffffffffffffffffffffffffffffffff021916908373ffffffffffffffffffffffffffffffffffffffff160217905550505062000583565b8060029080519060200190620002cf929190620003bd565b5050565b600033905090565b6000600360009054906101000a900473ffffffffffffffffffffffffffffffffffffffff16905081600360006101000a81548173ffffffffffffffffffffffffffffffffffffffff021916908373ffffffffffffffffffffffffffffffffffffffff1602179055508173ffffffffffffffffffffffffffffffffffffffff168173ffffffffffffffffffffffffffffffffffffffff167f8be0079c531659141344cd1fd0a4f28419497f9722a3daafe3b4186f6b6457e060405160405180910390a35050565b612179806200652a83390190565b61258380620086a383390190565b828054620003cb906200054d565b90600052602060002090601f016020900481019282620003ef57600085556200043b565b82601f106200040a57805160ff19168380011785556200043b565b828001600101855582156200043b579182015b828111156200043a5782518255916020019190600101906200041d565b5b5090506200044a91906200044e565b5090565b5b80821115620004695760008160009055506001016200044f565b5090565b600080fd5b600073ffffffffffffffffffffffffffffffffffffffff82169050919050565b60006200049f8262000472565b9050919050565b620004b18162000492565b8114620004bd57600080fd5b50565b600081519050620004d181620004a6565b92915050565b60008060408385031215620004f157620004f06200046d565b5b60006200050185828601620004c0565b92505060206200051485828601620004c0565b9150509250929050565b7f4e487b7100000000000000000000000000000000000000000000000000000000600052602260045260246000fd5b600060028204905060018216806200056657607f821691505b602082108114156200057d576200057c6200051e565b5b50919050565b60805160a05160c05160e051615ef66200063460003960008181610d0d01528181610df901528181610eb0015281816111bc0152612f5e0152600081816112b30152818161139e015281816116cc01528181611fb601528181612043015281816121a201528181612d8f0152612e43015260008181610a2a01528181610b0a01528181610bea0152610fb801526000818161109b0152818161155c01528181611dbf0152611e9d0152615ef66000f3fe6080604052600436106101b65760003560e01c80634e65501e116100ec578063bc197c811161008a578063e985e9c511610064578063e985e9c51461062b578063f23a6e6114610668578063f242432a146106a5578063f2fde38b146106ce576101b6565b8063bc197c81146105ac578063bfff4e4c146105e9578063ccd7b04e14610614576101b6565b806384a9312d116100c657806384a9312d146105165780638da5cb5b146105415780638e1138341461056c578063a22cb46514610583576101b6565b80634e65501e14610485578063715018a6146104c25780637b8a96bc146104d9576101b6565b806316c920161161015957806336b79ae01161013357806336b79ae0146103c957806340373c86146103f2578063421e108c1461041d5780634e1273f414610448576101b6565b806316c92016146103475780631f8d78cd146103845780632eb2c2d6146103a0576101b6565b80630e89341c116101955780630e89341c1461027257806311e5ffbd146102af578063129b9775146102ec578063140ce03414610317576101b6565b8062fdd58e146101bb57806301ffc9a7146101f85780630b7ad54c14610235575b600080fd5b3480156101c757600080fd5b506101e260048036038101906101dd9190613918565b6106f7565b6040516101ef9190613967565b60405180910390f35b34801561020457600080fd5b5061021f600480360381019061021a91906139da565b6107c0565b60405161022c9190613a22565b60405180910390f35b34801561024157600080fd5b5061025c60048036038101906102579190613a3d565b6108a2565b6040516102699190613b03565b60405180910390f35b34801561027e57600080fd5b5061029960048036038101906102949190613a3d565b610947565b6040516102a69190613b7a565b60405180910390f35b3480156102bb57600080fd5b506102d660048036038101906102d19190613b9c565b6109db565b6040516102e39190613967565b60405180910390f35b3480156102f857600080fd5b50610301610a00565b60405161030e9190613beb565b60405180910390f35b610331600480360381019061032c9190613d3b565b610a26565b60405161033e9190613967565b60405180910390f35b34801561035357600080fd5b5061036e60048036038101906103699190613a3d565b611079565b60405161037b9190613a22565b60405180910390f35b61039e60048036038101906103999190613dee565b611099565b005b3480156103ac57600080fd5b506103c760048036038101906103c29190613f12565b61146c565b005b3480156103d557600080fd5b506103f060048036038101906103eb919061400d565b61150d565b005b3480156103fe57600080fd5b5061040761182c565b6040516104149190613beb565b60405180910390f35b34801561042957600080fd5b50610432611852565b60405161043f9190613beb565b60405180910390f35b34801561045457600080fd5b5061046f600480360381019061046a9190614137565b611878565b60405161047c919061426d565b60405180910390f35b34801561049157600080fd5b506104ac60048036038101906104a79190613a3d565b611991565b6040516104b99190613b03565b60405180910390f35b3480156104ce57600080fd5b506104d7611a31565b005b3480156104e557600080fd5b5061050060048036038101906104fb919061428f565b611ab9565b60405161050d9190613beb565b60405180910390f35b34801561052257600080fd5b5061052b611b07565b6040516105389190613beb565b60405180910390f35b34801561054d57600080fd5b50610556611b2d565b6040516105639190613beb565b60405180910390f35b34801561057857600080fd5b50610581611b57565b005b34801561058f57600080fd5b506105aa60048036038101906105a591906142cf565b611d17565b005b3480156105b857600080fd5b506105d360048036038101906105ce91906143c0565b611d2d565b6040516105e091906144ab565b60405180910390f35b3480156105f557600080fd5b506105fe611d3b565b60405161060b9190613967565b60405180910390f35b34801561062057600080fd5b50610629611d41565b005b34801561063757600080fd5b50610652600480360381019061064d91906144c6565b612243565b60405161065f9190613a22565b60405180910390f35b34801561067457600080fd5b5061068f600480360381019061068a9190614506565b6122d7565b60405161069c91906144ab565b60405180910390f35b3480156106b157600080fd5b506106cc60048036038101906106c791906145a0565b612329565b005b3480156106da57600080fd5b506106f560048036038101906106f09190614637565b6123ca565b005b60008073ffffffffffffffffffffffffffffffffffffffff168373ffffffffffffffffffffffffffffffffffffffff161415610768576040517f08c379a000000000000000000000000000000000000000000000000000000000815260040161075f906146d6565b60405180910390fd5b60008083815260200190815260200160002060008473ffffffffffffffffffffffffffffffffffffffff1673ffffffffffffffffffffffffffffffffffffffff16815260200190815260200160002054905092915050565b60007fd9b67a26000000000000000000000000000000000000000000000000000000007bffffffffffffffffffffffffffffffffffffffffffffffffffffffff1916827bffffffffffffffffffffffffffffffffffffffffffffffffffffffff1916148061088b57507f0e89341c000000000000000000000000000000000000000000000000000000007bffffffffffffffffffffffffffffffffffffffffffffffffffffffff1916827bffffffffffffffffffffffffffffffffffffffffffffffffffffffff1916145b8061089b575061089a826124c2565b5b9050919050565b60606009600083815260200190815260200160002080546108c290614725565b80601f01602080910402602001604051908101604052809291908181526020018280546108ee90614725565b801561093b5780601f106109105761010080835404028352916020019161093b565b820191906000526020600020905b81548152906001019060200180831161091e57829003601f168201915b50505050509050919050565b60606002805461095690614725565b80601f016020809104026020016040519081016040528092919081815260200182805461098290614725565b80156109cf5780601f106109a4576101008083540402835291602001916109cf565b820191906000526020600020905b8154815290600101906020018083116109b257829003601f168201915b50505050509050919050565b600c602052816000526040600020602052806000526040600020600091509150505481565b600460009054906101000a900473ffffffffffffffffffffffffffffffffffffffff1681565b60007f000000000000000000000000000000000000000000000000000000000000000073ffffffffffffffffffffffffffffffffffffffff16633230d5496040518163ffffffff1660e01b815260040160206040518083038186803b158015610a8e57600080fd5b505afa158015610aa2573d6000803e3d6000fd5b505050506040513d601f19601f82011682018060405250810190610ac6919061476c565b831015610b08576040517f08c379a0000000000000000000000000000000000000000000000000000000008152600401610aff906147e5565b60405180910390fd5b7f000000000000000000000000000000000000000000000000000000000000000073ffffffffffffffffffffffffffffffffffffffff166351e75a8b6040518163ffffffff1660e01b815260040160206040518083038186803b158015610b6e57600080fd5b505afa158015610b82573d6000803e3d6000fd5b505050506040513d601f19601f82011682018060405250810190610ba6919061476c565b341015610be8576040517f08c379a0000000000000000000000000000000000000000000000000000000008152600401610bdf90614851565b60405180910390fd5b7f000000000000000000000000000000000000000000000000000000000000000073ffffffffffffffffffffffffffffffffffffffff16632f4209196040518163ffffffff1660e01b815260040160206040518083038186803b158015610c4e57600080fd5b505afa158015610c62573d6000803e3d6000fd5b505050506040513d601f19601f82011682018060405250810190610c86919061476c565b851015610cc8576040517f08c379a0000000000000000000000000000000000000000000000000000000008152600401610cbf906148bd565b60405180910390fd5b84841115610d0b576040517f08c379a0000000000000000000000000000000000000000000000000000000008152600401610d029061494f565b60405180910390fd5b7f000000000000000000000000000000000000000000000000000000000000000073ffffffffffffffffffffffffffffffffffffffff166371fe953d876001600854610d57919061499e565b8888886040518663ffffffff1660e01b8152600401610d7a9594939291906149d2565b600060405180830381600087803b158015610d9457600080fd5b505af1158015610da8573d6000803e3d6000fd5b50505050610ddd600460009054906101000a900473ffffffffffffffffffffffffffffffffffffffff1660085460018561252c565b60006008549050610f6f336001600854610df7919061499e565b7f000000000000000000000000000000000000000000000000000000000000000073ffffffffffffffffffffffffffffffffffffffff16639037e4076001600854610e42919061499e565b6040518263ffffffff1660e01b8152600401610e5e9190613967565b60206040518083038186803b158015610e7657600080fd5b505afa158015610e8a573d6000803e3d6000fd5b505050506040513d601f19601f82011682018060405250810190610eae919061476c565b7f000000000000000000000000000000000000000000000000000000000000000073ffffffffffffffffffffffffffffffffffffffff16637b78bd3f6001600854610ef9919061499e565b6040518263ffffffff1660e01b8152600401610f159190613967565b60006040518083038186803b158015610f2d57600080fd5b505afa158015610f41573d6000803e3d6000fd5b505050506040513d6000823e3d601f19601f82011682018060405250810190610f6a9190614a9c565b6126dd565b7fa609ac751607689b5174c45e554eaded8d9e7d0b8f2243dbbcd7c8863371948f6001600854610f9f919061499e565b33604051610fae929190614ae5565b60405180910390a17f000000000000000000000000000000000000000000000000000000000000000073ffffffffffffffffffffffffffffffffffffffff166321a455c46040518163ffffffff1660e01b815260040160206040518083038186803b15801561101c57600080fd5b505afa158015611030573d6000803e3d6000fd5b505050506040513d601f19601f82011682018060405250810190611054919061476c565b600860008282546110659190614b0e565b925050819055508091505095945050505050565b600a6020528060005260406000206000915054906101000a900460ff1681565b7f000000000000000000000000000000000000000000000000000000000000000073ffffffffffffffffffffffffffffffffffffffff1663711548616040518163ffffffff1660e01b815260040160206040518083038186803b1580156110ff57600080fd5b505afa158015611113573d6000803e3d6000fd5b505050506040513d601f19601f820116820180604052508101906111379190614b79565b611176576040517f08c379a000000000000000000000000000000000000000000000000000000000815260040161116d90614c18565b60405180910390fd5b60085481106111ba576040517f08c379a00000000000000000000000000000000000000000000000000000000081526004016111b190614c84565b60405180910390fd5b7f000000000000000000000000000000000000000000000000000000000000000073ffffffffffffffffffffffffffffffffffffffff1663b2d81b8d600183611203919061499e565b6040518263ffffffff1660e01b815260040161121f9190613967565b60206040518083038186803b15801561123757600080fd5b505afa15801561124b573d6000803e3d6000fd5b505050506040513d601f19601f8201168201806040525081019061126f919061476c565b3410156112b1576040517f08c379a00000000000000000000000000000000000000000000000000000000081526004016112a890614d16565b60405180910390fd5b7f000000000000000000000000000000000000000000000000000000000000000073ffffffffffffffffffffffffffffffffffffffff1663712023ed33836040518363ffffffff1660e01b815260040161130c929190614d36565b60206040518083038186803b15801561132457600080fd5b505afa158015611338573d6000803e3d6000fd5b505050506040513d601f19601f8201168201806040525081019061135c9190614b79565b1561139c576040517f08c379a000000000000000000000000000000000000000000000000000000000815260040161139390614df7565b60405180910390fd5b7f000000000000000000000000000000000000000000000000000000000000000073ffffffffffffffffffffffffffffffffffffffff16636f1ea804838333346040518563ffffffff1660e01b81526004016113fb9493929190614e17565b600060405180830381600087803b15801561141557600080fd5b505af1158015611429573d6000803e3d6000fd5b505050507f2064f4e53d6cd6d05d4b4f039c702aa7ef2a7220a77126c45c4371dfb1f7ca8633823460405161146093929190614e63565b60405180910390a15050565b6114746127b2565b73ffffffffffffffffffffffffffffffffffffffff168573ffffffffffffffffffffffffffffffffffffffff1614806114ba57506114b9856114b46127b2565b612243565b5b6114f9576040517f08c379a00000000000000000000000000000000000000000000000000000000081526004016114f090614f0c565b60405180910390fd5b61150685858585856127ba565b5050505050565b80600061151a33836106f7565b1161155a576040517f08c379a000000000000000000000000000000000000000000000000000000000815260040161155190614f9e565b60405180910390fd5b7f000000000000000000000000000000000000000000000000000000000000000073ffffffffffffffffffffffffffffffffffffffff1663a95824b46040518163ffffffff1660e01b815260040160206040518083038186803b1580156115c057600080fd5b505afa1580156115d4573d6000803e3d6000fd5b505050506040513d601f19601f820116820180604052508101906115f89190614b79565b611637576040517f08c379a000000000000000000000000000000000000000000000000000000000815260040161162e9061500a565b60405180910390fd5b600c600083815260200190815260200160002060003373ffffffffffffffffffffffffffffffffffffffff1673ffffffffffffffffffffffffffffffffffffffff168152602001908152602001600020548411156116ca576040517f08c379a00000000000000000000000000000000000000000000000000000000081526004016116c190615076565b60405180910390fd5b7f000000000000000000000000000000000000000000000000000000000000000073ffffffffffffffffffffffffffffffffffffffff1663182983a28686866001876117169190614b0e565b6040518563ffffffff1660e01b81526004016117359493929190615096565b600060405180830381600087803b15801561174f57600080fd5b505af1158015611763573d6000803e3d6000fd5b50505050600284611774919061521b565b600c600084815260200190815260200160002060003373ffffffffffffffffffffffffffffffffffffffff1673ffffffffffffffffffffffffffffffffffffffff16815260200190815260200160002060008282546117d3919061499e565b925050819055507ffc3d96492ee0868f630e39b70772f85e95ae6c91df8fafedc9eeeb86fffd317e3386868660018761180c9190614b0e565b60405161181d959493929190615266565b60405180910390a15050505050565b600660009054906101000a900473ffffffffffffffffffffffffffffffffffffffff1681565b600560009054906101000a900473ffffffffffffffffffffffffffffffffffffffff1681565b606081518351146118be576040517f08c379a00000000000000000000000000000000000000000000000000000000081526004016118b59061532b565b60405180910390fd5b6000835167ffffffffffffffff8111156118db576118da613c10565b5b6040519080825280602002602001820160405280156119095781602001602082028036833780820191505090505b50905060005b84518110156119865761195685828151811061192e5761192d61534b565b5b60200260200101518583815181106119495761194861534b565b5b60200260200101516106f7565b8282815181106119695761196861534b565b5b6020026020010181815250508061197f9061537a565b905061190f565b508091505092915050565b600960205280600052604060002060009150905080546119b090614725565b80601f01602080910402602001604051908101604052809291908181526020018280546119dc90614725565b8015611a295780601f106119fe57610100808354040283529160200191611a29565b820191906000526020600020905b815481529060010190602001808311611a0c57829003601f168201915b505050505081565b611a396127b2565b73ffffffffffffffffffffffffffffffffffffffff16611a57611b2d565b73ffffffffffffffffffffffffffffffffffffffff1614611aad576040517f08c379a0000000000000000000000000000000000000000000000000000000008152600401611aa49061540f565b60405180910390fd5b611ab76000612adc565b565b600b6020528160005260406000208181548110611ad557600080fd5b906000526020600020016000915091509054906101000a900473ffffffffffffffffffffffffffffffffffffffff1681565b600760009054906101000a900473ffffffffffffffffffffffffffffffffffffffff1681565b6000600360009054906101000a900473ffffffffffffffffffffffffffffffffffffffff16905090565b611b5f6127b2565b73ffffffffffffffffffffffffffffffffffffffff16611b7d611b2d565b73ffffffffffffffffffffffffffffffffffffffff1614611bd3576040517f08c379a0000000000000000000000000000000000000000000000000000000008152600401611bca9061540f565b60405180910390fd5b60005b600854811015611ce85760005b600b600083815260200190815260200160002080549050811015611cd3576000600b60008481526020019081526020016000208281548110611c2857611c2761534b565b5b9060005260206000200160009054906101000a900473ffffffffffffffffffffffffffffffffffffffff1690506002611c6182856106f7565b611c6b919061521b565b600c600085815260200190815260200160002060008373ffffffffffffffffffffffffffffffffffffffff1673ffffffffffffffffffffffffffffffffffffffff16815260200190815260200160002081905550508080611ccb9061537a565b915050611be3565b50600281611ce19190614b0e565b9050611bd6565b507f856dc14686aa00737e95d2d734cc40eeaafb38e23a9142e576d7881adae958e260405160405180910390a1565b611d29611d226127b2565b8383612ba2565b5050565b600098975050505050505050565b60085481565b611d496127b2565b73ffffffffffffffffffffffffffffffffffffffff16611d67611b2d565b73ffffffffffffffffffffffffffffffffffffffff1614611dbd576040517f08c379a0000000000000000000000000000000000000000000000000000000008152600401611db49061540f565b60405180910390fd5b7f000000000000000000000000000000000000000000000000000000000000000073ffffffffffffffffffffffffffffffffffffffff1663a95824b46040518163ffffffff1660e01b815260040160206040518083038186803b158015611e2357600080fd5b505afa158015611e37573d6000803e3d6000fd5b505050506040513d601f19601f82011682018060405250810190611e5b9190614b79565b15611e9b576040517f08c379a0000000000000000000000000000000000000000000000000000000008152600401611e929061547b565b60405180910390fd5b7f000000000000000000000000000000000000000000000000000000000000000073ffffffffffffffffffffffffffffffffffffffff1663711548616040518163ffffffff1660e01b815260040160206040518083038186803b158015611f0157600080fd5b505afa158015611f15573d6000803e3d6000fd5b505050506040513d601f19601f82011682018060405250810190611f399190614b79565b15611f79576040517f08c379a0000000000000000000000000000000000000000000000000000000008152600401611f70906154e7565b60405180910390fd5b6000600190505b6000611fae600460009054906101000a900473ffffffffffffffffffffffffffffffffffffffff16836106f7565b1115612240577f000000000000000000000000000000000000000000000000000000000000000073ffffffffffffffffffffffffffffffffffffffff16634d318b0e826040518263ffffffff1660e01b815260040161200d9190613967565b600060405180830381600087803b15801561202757600080fd5b505af115801561203b573d6000803e3d6000fd5b5050505060007f000000000000000000000000000000000000000000000000000000000000000073ffffffffffffffffffffffffffffffffffffffff1663efe43338836040518263ffffffff1660e01b815260040161209a9190613967565b60206040518083038186803b1580156120b257600080fd5b505afa1580156120c6573d6000803e3d6000fd5b505050506040513d601f19601f820116820180604052508101906120ea919061551c565b9050600073ffffffffffffffffffffffffffffffffffffffff168173ffffffffffffffffffffffffffffffffffffffff16146121685761212a8282612d0f565b7f8d511c583493088fc8d8e4c8e5ae0269cbe8211be1714065e49166e7f04b698f828260405161215b929190614ae5565b60405180910390a16121a0565b7fda296beb22d6e14ae09fe0e95cd0d2091e17b1d83f03e284cf19836447dff6c2826040516121979190613967565b60405180910390a15b7f000000000000000000000000000000000000000000000000000000000000000073ffffffffffffffffffffffffffffffffffffffff166387bd4520836040518263ffffffff1660e01b81526004016121f99190613967565b600060405180830381600087803b15801561221357600080fd5b505af1158015612227573d6000803e3d6000fd5b505050506002826122389190614b0e565b915050611f80565b50565b6000600160008473ffffffffffffffffffffffffffffffffffffffff1673ffffffffffffffffffffffffffffffffffffffff16815260200190815260200160002060008373ffffffffffffffffffffffffffffffffffffffff1673ffffffffffffffffffffffffffffffffffffffff16815260200190815260200160002060009054906101000a900460ff16905092915050565b600082826009600088815260200190815260200160002091906122fb929190613747565b507ff23a6e612e1ff4830e658fe43f4e3cb4a5f8170bd5d9e69fb5d7a7fa9e4fdf9790509695505050505050565b6123316127b2565b73ffffffffffffffffffffffffffffffffffffffff168573ffffffffffffffffffffffffffffffffffffffff1614806123775750612376856123716127b2565b612243565b5b6123b6576040517f08c379a00000000000000000000000000000000000000000000000000000000081526004016123ad906155bb565b60405180910390fd5b6123c38585858585613030565b5050505050565b6123d26127b2565b73ffffffffffffffffffffffffffffffffffffffff166123f0611b2d565b73ffffffffffffffffffffffffffffffffffffffff1614612446576040517f08c379a000000000000000000000000000000000000000000000000000000000815260040161243d9061540f565b60405180910390fd5b600073ffffffffffffffffffffffffffffffffffffffff168173ffffffffffffffffffffffffffffffffffffffff1614156124b6576040517f08c379a00000000000000000000000000000000000000000000000000000000081526004016124ad9061564d565b60405180910390fd5b6124bf81612adc565b50565b60007f01ffc9a7000000000000000000000000000000000000000000000000000000007bffffffffffffffffffffffffffffffffffffffffffffffffffffffff1916827bffffffffffffffffffffffffffffffffffffffffffffffffffffffff1916149050919050565b600073ffffffffffffffffffffffffffffffffffffffff168473ffffffffffffffffffffffffffffffffffffffff16141561259c576040517f08c379a0000000000000000000000000000000000000000000000000000000008152600401612593906156df565b60405180910390fd5b60006125a66127b2565b905060006125b3856132cc565b905060006125c0856132cc565b90506125d183600089858589613346565b8460008088815260200190815260200160002060008973ffffffffffffffffffffffffffffffffffffffff1673ffffffffffffffffffffffffffffffffffffffff16815260200190815260200160002060008282546126309190614b0e565b925050819055508673ffffffffffffffffffffffffffffffffffffffff16600073ffffffffffffffffffffffffffffffffffffffff168473ffffffffffffffffffffffffffffffffffffffff167fc3d58168c5ae7397731d063d5bbf3d657854427343f4c083240f7aacaa2d0f6289896040516126ae9291906156ff565b60405180910390a46126c58360008985858961334e565b6126d483600089898989613356565b50505050505050565b60006002846126ec9190615757565b1461272c576040517f08c379a0000000000000000000000000000000000000000000000000000000008152600401612723906157d4565b60405180910390fd5b6127388484848461252c565b600b6000848152602001908152602001600020849080600181540180825580915050600190039060005260206000200160009091909190916101000a81548173ffffffffffffffffffffffffffffffffffffffff021916908373ffffffffffffffffffffffffffffffffffffffff16021790555050505050565b600033905090565b81518351146127fe576040517f08c379a00000000000000000000000000000000000000000000000000000000081526004016127f590615866565b60405180910390fd5b600073ffffffffffffffffffffffffffffffffffffffff168473ffffffffffffffffffffffffffffffffffffffff16141561286e576040517f08c379a0000000000000000000000000000000000000000000000000000000008152600401612865906158f8565b60405180910390fd5b60006128786127b2565b9050612888818787878787613346565b60005b8451811015612a395760008582815181106128a9576128a861534b565b5b6020026020010151905060008583815181106128c8576128c761534b565b5b60200260200101519050600080600084815260200190815260200160002060008b73ffffffffffffffffffffffffffffffffffffffff1673ffffffffffffffffffffffffffffffffffffffff16815260200190815260200160002054905081811015612969576040517f08c379a00000000000000000000000000000000000000000000000000000000081526004016129609061598a565b60405180910390fd5b81810360008085815260200190815260200160002060008c73ffffffffffffffffffffffffffffffffffffffff1673ffffffffffffffffffffffffffffffffffffffff168152602001908152602001600020819055508160008085815260200190815260200160002060008b73ffffffffffffffffffffffffffffffffffffffff1673ffffffffffffffffffffffffffffffffffffffff1681526020019081526020016000206000828254612a1e9190614b0e565b9250508190555050505080612a329061537a565b905061288b565b508473ffffffffffffffffffffffffffffffffffffffff168673ffffffffffffffffffffffffffffffffffffffff168273ffffffffffffffffffffffffffffffffffffffff167f4a39dc06d4c0dbc64b70af90fd698a233a518aa5d07e595d983b8c0526c8f7fb8787604051612ab09291906159aa565b60405180910390a4612ac681878787878761334e565b612ad481878787878761353d565b505050505050565b6000600360009054906101000a900473ffffffffffffffffffffffffffffffffffffffff16905081600360006101000a81548173ffffffffffffffffffffffffffffffffffffffff021916908373ffffffffffffffffffffffffffffffffffffffff1602179055508173ffffffffffffffffffffffffffffffffffffffff168173ffffffffffffffffffffffffffffffffffffffff167f8be0079c531659141344cd1fd0a4f28419497f9722a3daafe3b4186f6b6457e060405160405180910390a35050565b8173ffffffffffffffffffffffffffffffffffffffff168373ffffffffffffffffffffffffffffffffffffffff161415612c11576040517f08c379a0000000000000000000000000000000000000000000000000000000008152600401612c0890615a53565b60405180910390fd5b80600160008573ffffffffffffffffffffffffffffffffffffffff1673ffffffffffffffffffffffffffffffffffffffff16815260200190815260200160002060008473ffffffffffffffffffffffffffffffffffffffff1673ffffffffffffffffffffffffffffffffffffffff16815260200190815260200160002060006101000a81548160ff0219169083151502179055508173ffffffffffffffffffffffffffffffffffffffff168373ffffffffffffffffffffffffffffffffffffffff167f17307eab39ab6107e8899845ad3d59bd9653f200f220920489ca2b5937696c3183604051612d029190613a22565b60405180910390a3505050565b612d176127b2565b73ffffffffffffffffffffffffffffffffffffffff16612d35611b2d565b73ffffffffffffffffffffffffffffffffffffffff1614612d8b576040517f08c379a0000000000000000000000000000000000000000000000000000000008152600401612d829061540f565b60405180910390fd5b60007f000000000000000000000000000000000000000000000000000000000000000073ffffffffffffffffffffffffffffffffffffffff166362a4321c83856040518363ffffffff1660e01b8152600401612de8929190614d36565b60006040518083038186803b158015612e0057600080fd5b505afa158015612e14573d6000803e3d6000fd5b505050506040513d6000823e3d601f19601f82011682018060405250810190612e3d9190614a9c565b905060007f000000000000000000000000000000000000000000000000000000000000000073ffffffffffffffffffffffffffffffffffffffff1663449e815d84866040518363ffffffff1660e01b8152600401612e9c929190614d36565b60206040518083038186803b158015612eb457600080fd5b505afa158015612ec8573d6000803e3d6000fd5b505050506040513d601f19601f82011682018060405250810190612eec919061476c565b90506009600085815260200190815260200160002082604051602001612f13929190615b69565b604051602081830303815290604052600960008681526020019081526020016000209080519060200190612f489291906137cd565b506000600185612f58919061499e565b905060007f000000000000000000000000000000000000000000000000000000000000000073ffffffffffffffffffffffffffffffffffffffff1663a251e13a8487856040518463ffffffff1660e01b8152600401612fb993929190615b9c565b602060405180830381600087803b158015612fd357600080fd5b505af1158015612fe7573d6000803e3d6000fd5b505050506040513d601f19601f8201168201806040525081019061300b919061476c565b9050613028858383604051806020016040528060008152506126dd565b505050505050565b600073ffffffffffffffffffffffffffffffffffffffff168473ffffffffffffffffffffffffffffffffffffffff1614156130a0576040517f08c379a0000000000000000000000000000000000000000000000000000000008152600401613097906158f8565b60405180910390fd5b60006130aa6127b2565b905060006130b7856132cc565b905060006130c4856132cc565b90506130d4838989858589613346565b600080600088815260200190815260200160002060008a73ffffffffffffffffffffffffffffffffffffffff1673ffffffffffffffffffffffffffffffffffffffff1681526020019081526020016000205490508581101561316b576040517f08c379a00000000000000000000000000000000000000000000000000000000081526004016131629061598a565b60405180910390fd5b85810360008089815260200190815260200160002060008b73ffffffffffffffffffffffffffffffffffffffff1673ffffffffffffffffffffffffffffffffffffffff168152602001908152602001600020819055508560008089815260200190815260200160002060008a73ffffffffffffffffffffffffffffffffffffffff1673ffffffffffffffffffffffffffffffffffffffff16815260200190815260200160002060008282546132209190614b0e565b925050819055508773ffffffffffffffffffffffffffffffffffffffff168973ffffffffffffffffffffffffffffffffffffffff168573ffffffffffffffffffffffffffffffffffffffff167fc3d58168c5ae7397731d063d5bbf3d657854427343f4c083240f7aacaa2d0f628a8a60405161329d9291906156ff565b60405180910390a46132b3848a8a86868a61334e565b6132c1848a8a8a8a8a613356565b505050505050505050565b60606000600167ffffffffffffffff8111156132eb576132ea613c10565b5b6040519080825280602002602001820160405280156133195781602001602082028036833780820191505090505b50905082816000815181106133315761333061534b565b5b60200260200101818152505080915050919050565b505050505050565b505050505050565b6133758473ffffffffffffffffffffffffffffffffffffffff16613724565b15613535578373ffffffffffffffffffffffffffffffffffffffff1663f23a6e6187878686866040518663ffffffff1660e01b81526004016133bb959493929190615bd3565b602060405180830381600087803b1580156133d557600080fd5b505af192505050801561340657506040513d601f19601f820116820180604052508101906134039190615c42565b60015b6134ac57613412615c7c565b806308c379a0141561346f5750613427615c9e565b806134325750613471565b806040517f08c379a00000000000000000000000000000000000000000000000000000000081526004016134669190613b7a565b60405180910390fd5b505b6040517f08c379a00000000000000000000000000000000000000000000000000000000081526004016134a390615da6565b60405180910390fd5b63f23a6e6160e01b7bffffffffffffffffffffffffffffffffffffffffffffffffffffffff1916817bffffffffffffffffffffffffffffffffffffffffffffffffffffffff191614613533576040517f08c379a000000000000000000000000000000000000000000000000000000000815260040161352a90615e38565b60405180910390fd5b505b505050505050565b61355c8473ffffffffffffffffffffffffffffffffffffffff16613724565b1561371c578373ffffffffffffffffffffffffffffffffffffffff1663bc197c8187878686866040518663ffffffff1660e01b81526004016135a2959493929190615e58565b602060405180830381600087803b1580156135bc57600080fd5b505af19250505080156135ed57506040513d601f19601f820116820180604052508101906135ea9190615c42565b60015b613693576135f9615c7c565b806308c379a01415613656575061360e615c9e565b806136195750613658565b806040517f08c379a000000000000000000000000000000000000000000000000000000000815260040161364d9190613b7a565b60405180910390fd5b505b6040517f08c379a000000000000000000000000000000000000000000000000000000000815260040161368a90615da6565b60405180910390fd5b63bc197c8160e01b7bffffffffffffffffffffffffffffffffffffffffffffffffffffffff1916817bffffffffffffffffffffffffffffffffffffffffffffffffffffffff19161461371a576040517f08c379a000000000000000000000000000000000000000000000000000000000815260040161371190615e38565b60405180910390fd5b505b505050505050565b6000808273ffffffffffffffffffffffffffffffffffffffff163b119050919050565b82805461375390614725565b90600052602060002090601f01602090048101928261377557600085556137bc565b82601f1061378e57803560ff19168380011785556137bc565b828001600101855582156137bc579182015b828111156137bb5782358255916020019190600101906137a0565b5b5090506137c99190613853565b5090565b8280546137d990614725565b90600052602060002090601f0160209004810192826137fb5760008555613842565b82601f1061381457805160ff1916838001178555613842565b82800160010185558215613842579182015b82811115613841578251825591602001919060010190613826565b5b50905061384f9190613853565b5090565b5b8082111561386c576000816000905550600101613854565b5090565b6000604051905090565b600080fd5b600080fd5b600073ffffffffffffffffffffffffffffffffffffffff82169050919050565b60006138af82613884565b9050919050565b6138bf816138a4565b81146138ca57600080fd5b50565b6000813590506138dc816138b6565b92915050565b6000819050919050565b6138f5816138e2565b811461390057600080fd5b50565b600081359050613912816138ec565b92915050565b6000806040838503121561392f5761392e61387a565b5b600061393d858286016138cd565b925050602061394e85828601613903565b9150509250929050565b613961816138e2565b82525050565b600060208201905061397c6000830184613958565b92915050565b60007fffffffff0000000000000000000000000000000000000000000000000000000082169050919050565b6139b781613982565b81146139c257600080fd5b50565b6000813590506139d4816139ae565b92915050565b6000602082840312156139f0576139ef61387a565b5b60006139fe848285016139c5565b91505092915050565b60008115159050919050565b613a1c81613a07565b82525050565b6000602082019050613a376000830184613a13565b92915050565b600060208284031215613a5357613a5261387a565b5b6000613a6184828501613903565b91505092915050565b600081519050919050565b600082825260208201905092915050565b60005b83811015613aa4578082015181840152602081019050613a89565b83811115613ab3576000848401525b50505050565b6000601f19601f8301169050919050565b6000613ad582613a6a565b613adf8185613a75565b9350613aef818560208601613a86565b613af881613ab9565b840191505092915050565b60006020820190508181036000830152613b1d8184613aca565b905092915050565b600081519050919050565b600082825260208201905092915050565b6000613b4c82613b25565b613b568185613b30565b9350613b66818560208601613a86565b613b6f81613ab9565b840191505092915050565b60006020820190508181036000830152613b948184613b41565b905092915050565b60008060408385031215613bb357613bb261387a565b5b6000613bc185828601613903565b9250506020613bd2858286016138cd565b9150509250929050565b613be5816138a4565b82525050565b6000602082019050613c006000830184613bdc565b92915050565b600080fd5b600080fd5b7f4e487b7100000000000000000000000000000000000000000000000000000000600052604160045260246000fd5b613c4882613ab9565b810181811067ffffffffffffffff82111715613c6757613c66613c10565b5b80604052505050565b6000613c7a613870565b9050613c868282613c3f565b919050565b600067ffffffffffffffff821115613ca657613ca5613c10565b5b613caf82613ab9565b9050602081019050919050565b82818337600083830152505050565b6000613cde613cd984613c8b565b613c70565b905082815260208101848484011115613cfa57613cf9613c0b565b5b613d05848285613cbc565b509392505050565b600082601f830112613d2257613d21613c06565b5b8135613d32848260208601613ccb565b91505092915050565b600080600080600060a08688031215613d5757613d5661387a565b5b600086013567ffffffffffffffff811115613d7557613d7461387f565b5b613d8188828901613d0d565b9550506020613d9288828901613903565b9450506040613da388828901613903565b9350506060613db488828901613903565b925050608086013567ffffffffffffffff811115613dd557613dd461387f565b5b613de188828901613d0d565b9150509295509295909350565b60008060408385031215613e0557613e0461387a565b5b600083013567ffffffffffffffff811115613e2357613e2261387f565b5b613e2f85828601613d0d565b9250506020613e4085828601613903565b9150509250929050565b600067ffffffffffffffff821115613e6557613e64613c10565b5b602082029050602081019050919050565b600080fd5b6000613e8e613e8984613e4a565b613c70565b90508083825260208201905060208402830185811115613eb157613eb0613e76565b5b835b81811015613eda5780613ec68882613903565b845260208401935050602081019050613eb3565b5050509392505050565b600082601f830112613ef957613ef8613c06565b5b8135613f09848260208601613e7b565b91505092915050565b600080600080600060a08688031215613f2e57613f2d61387a565b5b6000613f3c888289016138cd565b9550506020613f4d888289016138cd565b945050604086013567ffffffffffffffff811115613f6e57613f6d61387f565b5b613f7a88828901613ee4565b935050606086013567ffffffffffffffff811115613f9b57613f9a61387f565b5b613fa788828901613ee4565b925050608086013567ffffffffffffffff811115613fc857613fc761387f565b5b613fd488828901613d0d565b9150509295509295909350565b613fea81613a07565b8114613ff557600080fd5b50565b60008135905061400781613fe1565b92915050565b600080600080608085870312156140275761402661387a565b5b6000614035878288016138cd565b945050602061404687828801613903565b935050604061405787828801613ff8565b925050606061406887828801613903565b91505092959194509250565b600067ffffffffffffffff82111561408f5761408e613c10565b5b602082029050602081019050919050565b60006140b36140ae84614074565b613c70565b905080838252602082019050602084028301858111156140d6576140d5613e76565b5b835b818110156140ff57806140eb88826138cd565b8452602084019350506020810190506140d8565b5050509392505050565b600082601f83011261411e5761411d613c06565b5b813561412e8482602086016140a0565b91505092915050565b6000806040838503121561414e5761414d61387a565b5b600083013567ffffffffffffffff81111561416c5761416b61387f565b5b61417885828601614109565b925050602083013567ffffffffffffffff8111156141995761419861387f565b5b6141a585828601613ee4565b9150509250929050565b600081519050919050565b600082825260208201905092915050565b6000819050602082019050919050565b6141e4816138e2565b82525050565b60006141f683836141db565b60208301905092915050565b6000602082019050919050565b600061421a826141af565b61422481856141ba565b935061422f836141cb565b8060005b8381101561426057815161424788826141ea565b975061425283614202565b925050600181019050614233565b5085935050505092915050565b60006020820190508181036000830152614287818461420f565b905092915050565b600080604083850312156142a6576142a561387a565b5b60006142b485828601613903565b92505060206142c585828601613903565b9150509250929050565b600080604083850312156142e6576142e561387a565b5b60006142f4858286016138cd565b925050602061430585828601613ff8565b9150509250929050565b600080fd5b60008083601f84011261432a57614329613c06565b5b8235905067ffffffffffffffff8111156143475761434661430f565b5b60208301915083602082028301111561436357614362613e76565b5b9250929050565b60008083601f8401126143805761437f613c06565b5b8235905067ffffffffffffffff81111561439d5761439c61430f565b5b6020830191508360018202830111156143b9576143b8613e76565b5b9250929050565b60008060008060008060008060a0898b0312156143e0576143df61387a565b5b60006143ee8b828c016138cd565b98505060206143ff8b828c016138cd565b975050604089013567ffffffffffffffff8111156144205761441f61387f565b5b61442c8b828c01614314565b9650965050606089013567ffffffffffffffff81111561444f5761444e61387f565b5b61445b8b828c01614314565b9450945050608089013567ffffffffffffffff81111561447e5761447d61387f565b5b61448a8b828c0161436a565b92509250509295985092959890939650565b6144a581613982565b82525050565b60006020820190506144c0600083018461449c565b92915050565b600080604083850312156144dd576144dc61387a565b5b60006144eb858286016138cd565b92505060206144fc858286016138cd565b9150509250929050565b60008060008060008060a087890312156145235761452261387a565b5b600061453189828a016138cd565b965050602061454289828a016138cd565b955050604061455389828a01613903565b945050606061456489828a01613903565b935050608087013567ffffffffffffffff8111156145855761458461387f565b5b61459189828a0161436a565b92509250509295509295509295565b600080600080600060a086880312156145bc576145bb61387a565b5b60006145ca888289016138cd565b95505060206145db888289016138cd565b94505060406145ec88828901613903565b93505060606145fd88828901613903565b925050608086013567ffffffffffffffff81111561461e5761461d61387f565b5b61462a88828901613d0d565b9150509295509295909350565b60006020828403121561464d5761464c61387a565b5b600061465b848285016138cd565b91505092915050565b7f455243313135353a2062616c616e636520717565727920666f7220746865207a60008201527f65726f2061646472657373000000000000000000000000000000000000000000602082015250565b60006146c0602b83613b30565b91506146cb82614664565b604082019050919050565b600060208201905081810360008301526146ef816146b3565b9050919050565b7f4e487b7100000000000000000000000000000000000000000000000000000000600052602260045260246000fd5b6000600282049050600182168061473d57607f821691505b60208210811415614751576147506146f6565b5b50919050565b600081519050614766816138ec565b92915050565b6000602082840312156147825761478161387a565b5b600061479084828501614757565b91505092915050565b7f4d696e20505220507269636520697320746f6f206c6f77000000000000000000600082015250565b60006147cf601783613b30565b91506147da82614799565b602082019050919050565b600060208201905081810360008301526147fe816147c2565b9050919050565b7f4e6f7420656e6f7567682045544820746f206d696e7420636f6e74656e740000600082015250565b600061483b601e83613b30565b915061484682614805565b602082019050919050565b6000602082019050818103600083015261486a8161482e565b9050919050565b7f546f74616c20537570706c7920746f6f206c6f77000000000000000000000000600082015250565b60006148a7601483613b30565b91506148b282614871565b602082019050919050565b600060208201905081810360008301526148d68161489a565b9050919050565b7f4f776e6572207374616b65206d757374206265206c657373207468616e20737560008201527f70706c7900000000000000000000000000000000000000000000000000000000602082015250565b6000614939602483613b30565b9150614944826148dd565b604082019050919050565b600060208201905081810360008301526149688161492c565b9050919050565b7f4e487b7100000000000000000000000000000000000000000000000000000000600052601160045260246000fd5b60006149a9826138e2565b91506149b4836138e2565b9250828210156149c7576149c661496f565b5b828203905092915050565b600060a08201905081810360008301526149ec8188613aca565b90506149fb6020830187613958565b614a086040830186613958565b614a156060830185613958565b614a226080830184613958565b9695505050505050565b6000614a3f614a3a84613c8b565b613c70565b905082815260208101848484011115614a5b57614a5a613c0b565b5b614a66848285613a86565b509392505050565b600082601f830112614a8357614a82613c06565b5b8151614a93848260208601614a2c565b91505092915050565b600060208284031215614ab257614ab161387a565b5b600082015167ffffffffffffffff811115614ad057614acf61387f565b5b614adc84828501614a6e565b91505092915050565b6000604082019050614afa6000830185613958565b614b076020830184613bdc565b9392505050565b6000614b19826138e2565b9150614b24836138e2565b9250827fffffffffffffffffffffffffffffffffffffffffffffffffffffffffffffffff03821115614b5957614b5861496f565b5b828201905092915050565b600081519050614b7381613fe1565b92915050565b600060208284031215614b8f57614b8e61387a565b5b6000614b9d84828501614b64565b91505092915050565b7f436f6e747269627574696f6e73206172652063757272656e746c7920636c6f7360008201527f6564000000000000000000000000000000000000000000000000000000000000602082015250565b6000614c02602283613b30565b9150614c0d82614ba6565b604082019050919050565b60006020820190508181036000830152614c3181614bf5565b9050919050565b7f436f6e74656e7420646f6573206e6f7420657869737400000000000000000000600082015250565b6000614c6e601683613b30565b9150614c7982614c38565b602082019050919050565b60006020820190508181036000830152614c9d81614c61565b9050919050565b7f4554482056616c75652069732062656c6f77206d696e696d756d20505220707260008201527f6963650000000000000000000000000000000000000000000000000000000000602082015250565b6000614d00602383613b30565b9150614d0b82614ca4565b604082019050919050565b60006020820190508181036000830152614d2f81614cf3565b9050919050565b6000604082019050614d4b6000830185613bdc565b614d586020830184613958565b9392505050565b7f416464726573732068617320616c7265616479207375626d697474656420612060008201527f505220666f72207468697320636f6e74656e742077697468696e20746869732060208201527f636f6e747269627574696f6e20706572696f6400000000000000000000000000604082015250565b6000614de1605383613b30565b9150614dec82614d5f565b606082019050919050565b60006020820190508181036000830152614e1081614dd4565b9050919050565b60006080820190508181036000830152614e318187613aca565b9050614e406020830186613958565b614e4d6040830185613bdc565b614e5a6060830184613958565b95945050505050565b6000606082019050614e786000830186613bdc565b614e856020830185613958565b614e926040830184613958565b949350505050565b7f455243313135353a207472616e736665722063616c6c6572206973206e6f742060008201527f6f776e6572206e6f7220617070726f7665640000000000000000000000000000602082015250565b6000614ef6603283613b30565b9150614f0182614e9a565b604082019050919050565b60006020820190508181036000830152614f2581614ee9565b9050919050565b7f4d757374206861766520636f6e74656e7420617574686f727368697020746f6b60008201527f656e730000000000000000000000000000000000000000000000000000000000602082015250565b6000614f88602383613b30565b9150614f9382614f2c565b604082019050919050565b60006020820190508181036000830152614fb781614f7b565b9050919050565b7f566f74696e672069732063757272656e746c7920636c6f736564000000000000600082015250565b6000614ff4601a83613b30565b9150614fff82614fbe565b602082019050919050565b6000602082019050818103600083015261502381614fe7565b9050919050565b7f4e6f7420656e6f75676820766f74652063726564697473000000000000000000600082015250565b6000615060601783613b30565b915061506b8261502a565b602082019050919050565b6000602082019050818103600083015261508f81615053565b9050919050565b60006080820190506150ab6000830187613bdc565b6150b86020830186613958565b6150c56040830185613a13565b6150d26060830184613958565b95945050505050565b60008160011c9050919050565b6000808291508390505b60018511156151325780860481111561510e5761510d61496f565b5b600185161561511d5780820291505b808102905061512b856150db565b94506150f2565b94509492505050565b60008261514b5760019050615207565b816151595760009050615207565b816001811461516f5760028114615179576151a8565b6001915050615207565b60ff84111561518b5761518a61496f565b5b8360020a9150848211156151a2576151a161496f565b5b50615207565b5060208310610133831016604e8410600b84101617156151dd5782820a9050838111156151d8576151d761496f565b5b615207565b6151ea84848460016150e8565b925090508184048111156152015761520061496f565b5b81810290505b9392505050565b600060ff82169050919050565b6000615226826138e2565b91506152318361520e565b925061525e7fffffffffffffffffffffffffffffffffffffffffffffffffffffffffffffffff848461513b565b905092915050565b600060a08201905061527b6000830188613bdc565b6152886020830187613bdc565b6152956040830186613958565b6152a26060830185613a13565b6152af6080830184613958565b9695505050505050565b7f455243313135353a206163636f756e747320616e6420696473206c656e67746860008201527f206d69736d617463680000000000000000000000000000000000000000000000602082015250565b6000615315602983613b30565b9150615320826152b9565b604082019050919050565b6000602082019050818103600083015261534481615308565b9050919050565b7f4e487b7100000000000000000000000000000000000000000000000000000000600052603260045260246000fd5b6000615385826138e2565b91507fffffffffffffffffffffffffffffffffffffffffffffffffffffffffffffffff8214156153b8576153b761496f565b5b600182019050919050565b7f4f776e61626c653a2063616c6c6572206973206e6f7420746865206f776e6572600082015250565b60006153f9602083613b30565b9150615404826153c3565b602082019050919050565b60006020820190508181036000830152615428816153ec565b9050919050565b7f566f74696e67206973207374696c6c206f70656e000000000000000000000000600082015250565b6000615465601483613b30565b91506154708261542f565b602082019050919050565b6000602082019050818103600083015261549481615458565b9050919050565b7f436f6e747269627574696f6e73206172652063757272656e746c79206f70656e600082015250565b60006154d1602083613b30565b91506154dc8261549b565b602082019050919050565b60006020820190508181036000830152615500816154c4565b9050919050565b600081519050615516816138b6565b92915050565b6000602082840312156155325761553161387a565b5b600061554084828501615507565b91505092915050565b7f455243313135353a2063616c6c6572206973206e6f74206f776e6572206e6f7260008201527f20617070726f7665640000000000000000000000000000000000000000000000602082015250565b60006155a5602983613b30565b91506155b082615549565b604082019050919050565b600060208201905081810360008301526155d481615598565b9050919050565b7f4f776e61626c653a206e6577206f776e657220697320746865207a65726f206160008201527f6464726573730000000000000000000000000000000000000000000000000000602082015250565b6000615637602683613b30565b9150615642826155db565b604082019050919050565b600060208201905081810360008301526156668161562a565b9050919050565b7f455243313135353a206d696e7420746f20746865207a65726f2061646472657360008201527f7300000000000000000000000000000000000000000000000000000000000000602082015250565b60006156c9602183613b30565b91506156d48261566d565b604082019050919050565b600060208201905081810360008301526156f8816156bc565b9050919050565b60006040820190506157146000830185613958565b6157216020830184613958565b9392505050565b7f4e487b7100000000000000000000000000000000000000000000000000000000600052601260045260246000fd5b6000615762826138e2565b915061576d836138e2565b92508261577d5761577c615728565b5b828206905092915050565b7f546f6b656e4944206d757374206265206f776e65727368697020746f6b656e00600082015250565b60006157be601f83613b30565b91506157c982615788565b602082019050919050565b600060208201905081810360008301526157ed816157b1565b9050919050565b7f455243313135353a2069647320616e6420616d6f756e7473206c656e6774682060008201527f6d69736d61746368000000000000000000000000000000000000000000000000602082015250565b6000615850602883613b30565b915061585b826157f4565b604082019050919050565b6000602082019050818103600083015261587f81615843565b9050919050565b7f455243313135353a207472616e7366657220746f20746865207a65726f20616460008201527f6472657373000000000000000000000000000000000000000000000000000000602082015250565b60006158e2602583613b30565b91506158ed82615886565b604082019050919050565b60006020820190508181036000830152615911816158d5565b9050919050565b7f455243313135353a20696e73756666696369656e742062616c616e636520666f60008201527f72207472616e7366657200000000000000000000000000000000000000000000602082015250565b6000615974602a83613b30565b915061597f82615918565b604082019050919050565b600060208201905081810360008301526159a381615967565b9050919050565b600060408201905081810360008301526159c4818561420f565b905081810360208301526159d8818461420f565b90509392505050565b7f455243313135353a2073657474696e6720617070726f76616c2073746174757360008201527f20666f722073656c660000000000000000000000000000000000000000000000602082015250565b6000615a3d602983613b30565b9150615a48826159e1565b604082019050919050565b60006020820190508181036000830152615a6c81615a30565b9050919050565b600081905092915050565b60008190508160005260206000209050919050565b60008154615aa081614725565b615aaa8186615a73565b94506001821660008114615ac55760018114615ad657615b09565b60ff19831686528186019350615b09565b615adf85615a7e565b60005b83811015615b0157815481890152600182019150602081019050615ae2565b838801955050505b50505092915050565b7f2000000000000000000000000000000000000000000000000000000000000000815250565b6000615b4382613a6a565b615b4d8185615a73565b9350615b5d818560208601613a86565b80840191505092915050565b6000615b758285615a93565b9150615b8082615b12565b600182019150615b908284615b38565b91508190509392505050565b6000606082019050615bb16000830186613958565b615bbe6020830185613bdc565b615bcb6040830184613958565b949350505050565b600060a082019050615be86000830188613bdc565b615bf56020830187613bdc565b615c026040830186613958565b615c0f6060830185613958565b8181036080830152615c218184613aca565b90509695505050505050565b600081519050615c3c816139ae565b92915050565b600060208284031215615c5857615c5761387a565b5b6000615c6684828501615c2d565b91505092915050565b60008160e01c9050919050565b600060033d1115615c9b5760046000803e615c98600051615c6f565b90505b90565b600060443d1015615cae57615d31565b615cb6613870565b60043d036004823e80513d602482011167ffffffffffffffff82111715615cde575050615d31565b808201805167ffffffffffffffff811115615cfc5750505050615d31565b80602083010160043d038501811115615d19575050505050615d31565b615d2882602001850186613c3f565b82955050505050505b90565b7f455243313135353a207472616e7366657220746f206e6f6e204552433131353560008201527f526563656976657220696d706c656d656e746572000000000000000000000000602082015250565b6000615d90603483613b30565b9150615d9b82615d34565b604082019050919050565b60006020820190508181036000830152615dbf81615d83565b9050919050565b7f455243313135353a204552433131353552656365697665722072656a6563746560008201527f6420746f6b656e73000000000000000000000000000000000000000000000000602082015250565b6000615e22602883613b30565b9150615e2d82615dc6565b604082019050919050565b60006020820190508181036000830152615e5181615e15565b9050919050565b600060a082019050615e6d6000830188613bdc565b615e7a6020830187613bdc565b8181036040830152615e8c818661420f565b90508181036060830152615ea0818561420f565b90508181036080830152615eb48184613aca565b9050969550505050505056fea2646970667358221220c63d1e07d4e6625617b1cd41ab096808b3d314e5dd3ec95d1cec1c421101c6b364736f6c63430008090033608060405234801561001057600080fd5b5061002d61002261003260201b60201c565b61003a60201b60201c565b6100fe565b600033905090565b60008060009054906101000a900473ffffffffffffffffffffffffffffffffffffffff169050816000806101000a81548173ffffffffffffffffffffffffffffffffffffffff021916908373ffffffffffffffffffffffffffffffffffffffff1602179055508173ffffffffffffffffffffffffffffffffffffffff168173ffffffffffffffffffffffffffffffffffffffff167f8be0079c531659141344cd1fd0a4f28419497f9722a3daafe3b4186f6b6457e060405160405180910390a35050565b61206b806200010e6000396000f3fe6080604052600436106100dd5760003560e01c8063712023ed1161007f57806387bd45201161005957806387bd4520146102da5780638da5cb5b14610303578063efe433381461032e578063f2fde38b1461036b576100dd565b8063712023ed14610249578063715018a614610286578063761072e11461029d576100dd565b80634dfb83ca116100bb5780634dfb83ca146101715780635d6b494b146101b357806362a4321c146101f05780636f1ea8041461022d576100dd565b8063182983a2146100e2578063449e815d1461010b5780634d318b0e14610148575b600080fd5b3480156100ee57600080fd5b506101096004803603810190610104919061184e565b610394565b005b34801561011757600080fd5b50610132600480360381019061012d91906118b5565b61054a565b60405161013f9190611904565b60405180910390f35b34801561015457600080fd5b5061016f600480360381019061016a919061191f565b6105a8565b005b34801561017d57600080fd5b506101986004803603810190610193919061194c565b6108c7565b6040516101aa96959493929190611a25565b60405180910390f35b3480156101bf57600080fd5b506101da60048036038101906101d59190611a8d565b610998565b6040516101e79190611adc565b60405180910390f35b3480156101fc57600080fd5b50610217600480360381019061021291906118b5565b6109e6565b6040516102249190611af7565b60405180910390f35b61024760048036038101906102429190611c4e565b610acc565b005b34801561025557600080fd5b50610270600480360381019061026b91906118b5565b610cfd565b60405161027d9190611ce0565b60405180910390f35b34801561029257600080fd5b5061029b610d65565b005b3480156102a957600080fd5b506102c460048036038101906102bf919061194c565b610ded565b6040516102d19190611ce0565b60405180910390f35b3480156102e657600080fd5b5061030160048036038101906102fc919061191f565b610e1c565b005b34801561030f57600080fd5b50610318611059565b6040516103259190611adc565b60405180910390f35b34801561033a57600080fd5b506103556004803603810190610350919061191f565b611082565b6040516103629190611adc565b60405180910390f35b34801561037757600080fd5b50610392600480360381019061038d9190611cfb565b61148d565b005b61039c611585565b73ffffffffffffffffffffffffffffffffffffffff166103ba611059565b73ffffffffffffffffffffffffffffffffffffffff1614610410576040517f08c379a000000000000000000000000000000000000000000000000000000000815260040161040790611d85565b60405180910390fd5b6002600082815260200190815260200160002060008573ffffffffffffffffffffffffffffffffffffffff1673ffffffffffffffffffffffffffffffffffffffff16815260200190815260200160002060009054906101000a900460ff166104ad576040517f08c379a00000000000000000000000000000000000000000000000000000000081526004016104a490611df1565b60405180910390fd5b60006001600083815260200190815260200160002060008673ffffffffffffffffffffffffffffffffffffffff1673ffffffffffffffffffffffffffffffffffffffff16815260200190815260200160002090508215610527578381600201600082825461051b9190611e40565b92505081905550610543565b8381600301600082825461053b9190611e40565b925050819055505b5050505050565b60006001600083815260200190815260200160002060008473ffffffffffffffffffffffffffffffffffffffff1673ffffffffffffffffffffffffffffffffffffffff16815260200190815260200160002060050154905092915050565b6105b0611585565b73ffffffffffffffffffffffffffffffffffffffff166105ce611059565b73ffffffffffffffffffffffffffffffffffffffff1614610624576040517f08c379a000000000000000000000000000000000000000000000000000000000815260040161061b90611d85565b60405180910390fd5b6000600360008381526020019081526020016000208054806020026020016040519081016040528092919081815260200182805480156106b957602002820191906000526020600020905b8160009054906101000a900473ffffffffffffffffffffffffffffffffffffffff1673ffffffffffffffffffffffffffffffffffffffff168152602001906001019080831161066f575b5050505050905060005b81518110156108c25760006001600085815260200190815260200160002060008484815181106106f6576106f5611e96565b5b602002602001015173ffffffffffffffffffffffffffffffffffffffff1673ffffffffffffffffffffffffffffffffffffffff1681526020019081526020016000206040518060c001604052908160008201805461075390611ef4565b80601f016020809104026020016040519081016040528092919081815260200182805461077f90611ef4565b80156107cc5780601f106107a1576101008083540402835291602001916107cc565b820191906000526020600020905b8154815290600101906020018083116107af57829003601f168201915b505050505081526020016001820154815260200160028201548152602001600382015481526020016004820154815260200160058201548152505090506000816060015182604001511115610836578160600151826040015161082f9190611f26565b905061083b565b600090505b8060016000878152602001908152602001600020600086868151811061086457610863611e96565b5b602002602001015173ffffffffffffffffffffffffffffffffffffffff1673ffffffffffffffffffffffffffffffffffffffff16815260200190815260200160002060040181905550505080806108ba90611f5a565b9150506106c3565b505050565b6001602052816000526040600020602052806000526040600020600091509150508060000180546108f790611ef4565b80601f016020809104026020016040519081016040528092919081815260200182805461092390611ef4565b80156109705780601f1061094557610100808354040283529160200191610970565b820191906000526020600020905b81548152906001019060200180831161095357829003601f168201915b5050505050908060010154908060020154908060030154908060040154908060050154905086565b600360205281600052604060002081815481106109b457600080fd5b906000526020600020016000915091509054906101000a900473ffffffffffffffffffffffffffffffffffffffff1681565b60606001600083815260200190815260200160002060008473ffffffffffffffffffffffffffffffffffffffff1673ffffffffffffffffffffffffffffffffffffffff1681526020019081526020016000206000018054610a4690611ef4565b80601f0160208091040260200160405190810160405280929190818152602001828054610a7290611ef4565b8015610abf5780601f10610a9457610100808354040283529160200191610abf565b820191906000526020600020905b815481529060010190602001808311610aa257829003601f168201915b5050505050905092915050565b610ad4611585565b73ffffffffffffffffffffffffffffffffffffffff16610af2611059565b73ffffffffffffffffffffffffffffffffffffffff1614610b48576040517f08c379a0000000000000000000000000000000000000000000000000000000008152600401610b3f90611d85565b60405180910390fd5b60036000848152602001908152602001600020829080600181540180825580915050600190039060005260206000200160009091909190916101000a81548173ffffffffffffffffffffffffffffffffffffffff021916908373ffffffffffffffffffffffffffffffffffffffff1602179055506040518060c00160405280858152602001428152602001600081526020016000815260200160008152602001828152506001600085815260200190815260200160002060008473ffffffffffffffffffffffffffffffffffffffff1673ffffffffffffffffffffffffffffffffffffffff1681526020019081526020016000206000820151816000019080519060200190610c58929190611651565b506020820151816001015560408201518160020155606082015181600301556080820151816004015560a0820151816005015590505060016002600085815260200190815260200160002060008473ffffffffffffffffffffffffffffffffffffffff1673ffffffffffffffffffffffffffffffffffffffff16815260200190815260200160002060006101000a81548160ff02191690831515021790555050505050565b60006002600083815260200190815260200160002060008473ffffffffffffffffffffffffffffffffffffffff1673ffffffffffffffffffffffffffffffffffffffff16815260200190815260200160002060009054906101000a900460ff16905092915050565b610d6d611585565b73ffffffffffffffffffffffffffffffffffffffff16610d8b611059565b73ffffffffffffffffffffffffffffffffffffffff1614610de1576040517f08c379a0000000000000000000000000000000000000000000000000000000008152600401610dd890611d85565b60405180910390fd5b610deb600061158d565b565b60026020528160005260406000206020528060005260406000206000915091509054906101000a900460ff1681565b610e24611585565b73ffffffffffffffffffffffffffffffffffffffff16610e42611059565b73ffffffffffffffffffffffffffffffffffffffff1614610e98576040517f08c379a0000000000000000000000000000000000000000000000000000000008152600401610e8f90611d85565b60405180910390fd5b60005b6003600083815260200190815260200160002080549050811015611036576000600360008481526020019081526020016000208281548110610ee057610edf611e96565b5b9060005260206000200160009054906101000a900473ffffffffffffffffffffffffffffffffffffffff169050610f156116d7565b806001600086815260200190815260200160002060008473ffffffffffffffffffffffffffffffffffffffff1673ffffffffffffffffffffffffffffffffffffffff1681526020019081526020016000206000820151816000019080519060200190610f82929190611651565b506020820151816001015560408201518160020155606082015181600301556080820151816004015560a0820151816005015590505060006002600086815260200190815260200160002060008473ffffffffffffffffffffffffffffffffffffffff1673ffffffffffffffffffffffffffffffffffffffff16815260200190815260200160002060006101000a81548160ff0219169083151502179055505050808061102e90611f5a565b915050610e9b565b50600360008281526020019081526020016000206000611056919061170d565b50565b60008060009054906101000a900473ffffffffffffffffffffffffffffffffffffffff16905090565b600061108c611585565b73ffffffffffffffffffffffffffffffffffffffff166110aa611059565b73ffffffffffffffffffffffffffffffffffffffff1614611100576040517f08c379a00000000000000000000000000000000000000000000000000000000081526004016110f790611d85565b60405180910390fd5b6000806003600085815260200190815260200160002080548060200260200160405190810160405280929190818152602001828054801561119657602002820191906000526020600020905b8160009054906101000a900473ffffffffffffffffffffffffffffffffffffffff1673ffffffffffffffffffffffffffffffffffffffff168152602001906001019080831161114c575b5050505050905060005b81518110156112cd5760008114156111d4578181815181106111c5576111c4611e96565b5b602002602001015192506112ba565b6001600086815260200190815260200160002060008473ffffffffffffffffffffffffffffffffffffffff1673ffffffffffffffffffffffffffffffffffffffff168152602001908152602001600020600401546001600087815260200190815260200160002060008484815181106112505761124f611e96565b5b602002602001015173ffffffffffffffffffffffffffffffffffffffff1673ffffffffffffffffffffffffffffffffffffffff16815260200190815260200160002060040154106112b9578181815181106112ae576112ad611e96565b5b602002602001015192505b5b80806112c590611f5a565b9150506111a0565b506112d661172e565b60006001600087815260200190815260200160002060008573ffffffffffffffffffffffffffffffffffffffff1673ffffffffffffffffffffffffffffffffffffffff1681526020019081526020016000206004015490506000805b84518110156114375782600160008a8152602001908152602001600020600087848151811061136457611363611e96565b5b602002602001015173ffffffffffffffffffffffffffffffffffffffff1673ffffffffffffffffffffffffffffffffffffffff168152602001908152602001600020600401541415611424578481815181106113c3576113c2611e96565b5b60200260200101518483606481106113de576113dd611e96565b5b602002019073ffffffffffffffffffffffffffffffffffffffff16908173ffffffffffffffffffffffffffffffffffffffff1681525050818061142090611f5a565b9250505b808061142f90611f5a565b915050611332565b50600082111561147e5760018114611471578260006064811061145d5761145c611e96565b5b602002015194508495505050505050611488565b8495505050505050611488565b6000955050505050505b919050565b611495611585565b73ffffffffffffffffffffffffffffffffffffffff166114b3611059565b73ffffffffffffffffffffffffffffffffffffffff1614611509576040517f08c379a000000000000000000000000000000000000000000000000000000000815260040161150090611d85565b60405180910390fd5b600073ffffffffffffffffffffffffffffffffffffffff168173ffffffffffffffffffffffffffffffffffffffff161415611579576040517f08c379a000000000000000000000000000000000000000000000000000000000815260040161157090612015565b60405180910390fd5b6115828161158d565b50565b600033905090565b60008060009054906101000a900473ffffffffffffffffffffffffffffffffffffffff169050816000806101000a81548173ffffffffffffffffffffffffffffffffffffffff021916908373ffffffffffffffffffffffffffffffffffffffff1602179055508173ffffffffffffffffffffffffffffffffffffffff168173ffffffffffffffffffffffffffffffffffffffff167f8be0079c531659141344cd1fd0a4f28419497f9722a3daafe3b4186f6b6457e060405160405180910390a35050565b82805461165d90611ef4565b90600052602060002090601f01602090048101928261167f57600085556116c6565b82601f1061169857805160ff19168380011785556116c6565b828001600101855582156116c6579182015b828111156116c55782518255916020019190600101906116aa565b5b5090506116d39190611751565b5090565b6040518060c001604052806060815260200160008152602001600081526020016000815260200160008152602001600081525090565b508054600082559060005260206000209081019061172b9190611751565b50565b60405180610c800160405280606490602082028036833780820191505090505090565b5b8082111561176a576000816000905550600101611752565b5090565b6000604051905090565b600080fd5b600080fd5b600073ffffffffffffffffffffffffffffffffffffffff82169050919050565b60006117ad82611782565b9050919050565b6117bd816117a2565b81146117c857600080fd5b50565b6000813590506117da816117b4565b92915050565b6000819050919050565b6117f3816117e0565b81146117fe57600080fd5b50565b600081359050611810816117ea565b92915050565b60008115159050919050565b61182b81611816565b811461183657600080fd5b50565b60008135905061184881611822565b92915050565b6000806000806080858703121561186857611867611778565b5b6000611876878288016117cb565b945050602061188787828801611801565b935050604061189887828801611839565b92505060606118a987828801611801565b91505092959194509250565b600080604083850312156118cc576118cb611778565b5b60006118da858286016117cb565b92505060206118eb85828601611801565b9150509250929050565b6118fe816117e0565b82525050565b600060208201905061191960008301846118f5565b92915050565b60006020828403121561193557611934611778565b5b600061194384828501611801565b91505092915050565b6000806040838503121561196357611962611778565b5b600061197185828601611801565b9250506020611982858286016117cb565b9150509250929050565b600081519050919050565b600082825260208201905092915050565b60005b838110156119c65780820151818401526020810190506119ab565b838111156119d5576000848401525b50505050565b6000601f19601f8301169050919050565b60006119f78261198c565b611a018185611997565b9350611a118185602086016119a8565b611a1a816119db565b840191505092915050565b600060c0820190508181036000830152611a3f81896119ec565b9050611a4e60208301886118f5565b611a5b60408301876118f5565b611a6860608301866118f5565b611a7560808301856118f5565b611a8260a08301846118f5565b979650505050505050565b60008060408385031215611aa457611aa3611778565b5b6000611ab285828601611801565b9250506020611ac385828601611801565b9150509250929050565b611ad6816117a2565b82525050565b6000602082019050611af16000830184611acd565b92915050565b60006020820190508181036000830152611b1181846119ec565b905092915050565b600080fd5b600080fd5b7f4e487b7100000000000000000000000000000000000000000000000000000000600052604160045260246000fd5b611b5b826119db565b810181811067ffffffffffffffff82111715611b7a57611b79611b23565b5b80604052505050565b6000611b8d61176e565b9050611b998282611b52565b919050565b600067ffffffffffffffff821115611bb957611bb8611b23565b5b611bc2826119db565b9050602081019050919050565b82818337600083830152505050565b6000611bf1611bec84611b9e565b611b83565b905082815260208101848484011115611c0d57611c0c611b1e565b5b611c18848285611bcf565b509392505050565b600082601f830112611c3557611c34611b19565b5b8135611c45848260208601611bde565b91505092915050565b60008060008060808587031215611c6857611c67611778565b5b600085013567ffffffffffffffff811115611c8657611c8561177d565b5b611c9287828801611c20565b9450506020611ca387828801611801565b9350506040611cb4878288016117cb565b9250506060611cc587828801611801565b91505092959194509250565b611cda81611816565b82525050565b6000602082019050611cf56000830184611cd1565b92915050565b600060208284031215611d1157611d10611778565b5b6000611d1f848285016117cb565b91505092915050565b600082825260208201905092915050565b7f4f776e61626c653a2063616c6c6572206973206e6f7420746865206f776e6572600082015250565b6000611d6f602083611d28565b9150611d7a82611d39565b602082019050919050565b60006020820190508181036000830152611d9e81611d62565b9050919050565b7f505220646f6573206e6f74206578697374000000000000000000000000000000600082015250565b6000611ddb601183611d28565b9150611de682611da5565b602082019050919050565b60006020820190508181036000830152611e0a81611dce565b9050919050565b7f4e487b7100000000000000000000000000000000000000000000000000000000600052601160045260246000fd5b6000611e4b826117e0565b9150611e56836117e0565b9250827fffffffffffffffffffffffffffffffffffffffffffffffffffffffffffffffff03821115611e8b57611e8a611e11565b5b828201905092915050565b7f4e487b7100000000000000000000000000000000000000000000000000000000600052603260045260246000fd5b7f4e487b7100000000000000000000000000000000000000000000000000000000600052602260045260246000fd5b60006002820490506001821680611f0c57607f821691505b60208210811415611f2057611f1f611ec5565b5b50919050565b6000611f31826117e0565b9150611f3c836117e0565b925082821015611f4f57611f4e611e11565b5b828203905092915050565b6000611f65826117e0565b91507fffffffffffffffffffffffffffffffffffffffffffffffffffffffffffffffff821415611f9857611f97611e11565b5b600182019050919050565b7f4f776e61626c653a206e6577206f776e657220697320746865207a65726f206160008201527f6464726573730000000000000000000000000000000000000000000000000000602082015250565b6000611fff602683611d28565b915061200a82611fa3565b604082019050919050565b6000602082019050818103600083015261202e81611ff2565b905091905056fea264697066735822122011c8879305d0a87b774dbea530c50bd963f8d9d7b84cd0ff9083b3e17a39b80064736f6c6343000809003360a060405234801561001057600080fd5b5060405161001d90610072565b604051809103906000f080158015610039573d6000803e3d6000fd5b5073ffffffffffffffffffffffffffffffffffffffff1660808173ffffffffffffffffffffffffffffffffffffffff168152505061007f565b610cfc8061188783390190565b6080516117ca6100bd600039600081816102fd015281816104d001528181610665015281816107720152818161087f0152610b8a01526117ca6000f3fe608060405234801561001057600080fd5b50600436106100935760003560e01c80639037e407116100665780639037e4071461014857806392ab723e14610178578063a251e13a146101a8578063b2d81b8d146101d8578063cf65de4a1461020857610093565b80630c8244dd1461009857806314ff5ea3146100cc57806371fe953d146100fc5780637b78bd3f14610118575b600080fd5b6100b260048036038101906100ad9190610ed3565b610238565b6040516100c3959493929190610fa8565b60405180910390f35b6100e660048036038101906100e19190610ed3565b6102f6565b6040516100f39190611002565b60405180910390f35b61011660048036038101906101119190611152565b610403565b005b610132600480360381019061012d9190610ed3565b6104c9565b60405161013f91906111e9565b60405180910390f35b610162600480360381019061015d9190610ed3565b61065e565b60405161016f9190611002565b60405180910390f35b610192600480360381019061018d9190610ed3565b61076b565b60405161019f9190611002565b60405180910390f35b6101c260048036038101906101bd9190611269565b610878565b6040516101cf9190611002565b60405180910390f35b6101f260048036038101906101ed9190610ed3565b610b83565b6040516101ff9190611002565b60405180910390f35b610222600480360381019061021d9190610ed3565b610c90565b60405161022f9190611002565b60405180910390f35b600160205280600052604060002060009150905080600001805461025b906112eb565b80601f0160208091040260200160405190810160405280929190818152602001828054610287906112eb565b80156102d45780601f106102a9576101008083540402835291602001916102d4565b820191906000526020600020905b8154815290600101906020018083116102b757829003601f168201915b5050505050908060010154908060020154908060030154908060040154905085565b60008160007f000000000000000000000000000000000000000000000000000000000000000073ffffffffffffffffffffffffffffffffffffffff166321a455c46040518163ffffffff1660e01b815260040160206040518083038186803b15801561036157600080fd5b505afa158015610375573d6000803e3d6000fd5b505050506040513d601f19601f820116820180604052508101906103999190611332565b826103a4919061138e565b146103e4576040517f08c379a00000000000000000000000000000000000000000000000000000000081526004016103db9061141c565b60405180910390fd5b6001600084815260200190815260200160002060010154915050919050565b61040b610db7565b858160000181905250848160200181815250508381604001818152505082816080018181525050818160600181815250508060016000878152602001908152602001600020600082015181600001908051906020019061046c929190610de6565b50602082015181600101556040820151816002015560608201518160030155608082015181600401559050508260008087815260200190815260200160002060008282546104ba919061146b565b92505081905550505050505050565b60608160007f000000000000000000000000000000000000000000000000000000000000000073ffffffffffffffffffffffffffffffffffffffff166321a455c46040518163ffffffff1660e01b815260040160206040518083038186803b15801561053457600080fd5b505afa158015610548573d6000803e3d6000fd5b505050506040513d601f19601f8201168201806040525081019061056c9190611332565b82610577919061138e565b146105b7576040517f08c379a00000000000000000000000000000000000000000000000000000000081526004016105ae9061141c565b60405180910390fd5b6001600084815260200190815260200160002060000180546105d8906112eb565b80601f0160208091040260200160405190810160405280929190818152602001828054610604906112eb565b80156106515780601f1061062657610100808354040283529160200191610651565b820191906000526020600020905b81548152906001019060200180831161063457829003601f168201915b5050505050915050919050565b60008160007f000000000000000000000000000000000000000000000000000000000000000073ffffffffffffffffffffffffffffffffffffffff166321a455c46040518163ffffffff1660e01b815260040160206040518083038186803b1580156106c957600080fd5b505afa1580156106dd573d6000803e3d6000fd5b505050506040513d601f19601f820116820180604052508101906107019190611332565b8261070c919061138e565b1461074c576040517f08c379a00000000000000000000000000000000000000000000000000000000081526004016107439061141c565b60405180910390fd5b6001600084815260200190815260200160002060040154915050919050565b60008160007f000000000000000000000000000000000000000000000000000000000000000073ffffffffffffffffffffffffffffffffffffffff166321a455c46040518163ffffffff1660e01b815260040160206040518083038186803b1580156107d657600080fd5b505afa1580156107ea573d6000803e3d6000fd5b505050506040513d601f19601f8201168201806040525081019061080e9190611332565b82610819919061138e565b14610859576040517f08c379a00000000000000000000000000000000000000000000000000000000081526004016108509061141c565b60405180910390fd5b6001600084815260200190815260200160002060020154915050919050565b60008160007f000000000000000000000000000000000000000000000000000000000000000073ffffffffffffffffffffffffffffffffffffffff166321a455c46040518163ffffffff1660e01b815260040160206040518083038186803b1580156108e357600080fd5b505afa1580156108f7573d6000803e3d6000fd5b505050506040513d601f19601f8201168201806040525081019061091b9190611332565b82610926919061138e565b14610966576040517f08c379a000000000000000000000000000000000000000000000000000000000815260040161095d9061141c565b60405180910390fd5b60016000848152602001908152602001600020600301548510156109bf576040517f08c379a00000000000000000000000000000000000000000000000000000000081526004016109b690611533565b60405180910390fd5b6000600a60016064610a25610a146127108b6109db9190611553565b6000808b815260200190815260200160002054600160008c815260200190815260200160002060020154610a0f91906115ad565b610ca8565b6001610a20919061146b565b610cf6565b610a2f91906115e1565b610a3991906115ad565b60016000878152602001908152602001600020600401546001600088815260200190815260200160002060020154610a7191906115ad565b610a7b9190611553565b610a8591906115e1565b905060016000858152602001908152602001600020600201548160008087815260200190815260200160002054610abc919061146b565b10610afc576040517f08c379a0000000000000000000000000000000000000000000000000000000008152600401610af390611684565b60405180910390fd5b806000808681526020019081526020016000206000828254610b1e919061146b565b925050819055507f18a9df754d582bf0fc3091d77d8a6e64b1c66c14df117fc189e245e7a017a1fc85858360016000898152602001908152602001600020600001604051610b6f9493929190611748565b60405180910390a180925050509392505050565b60008160007f000000000000000000000000000000000000000000000000000000000000000073ffffffffffffffffffffffffffffffffffffffff166321a455c46040518163ffffffff1660e01b815260040160206040518083038186803b158015610bee57600080fd5b505afa158015610c02573d6000803e3d6000fd5b505050506040513d601f19601f82011682018060405250810190610c269190611332565b82610c31919061138e565b14610c71576040517f08c379a0000000000000000000000000000000000000000000000000000000008152600401610c689061141c565b60405180910390fd5b6001600084815260200190815260200160002060030154915050919050565b60006020528060005260406000206000915090505481565b6000600282610cb791906115e1565b82610cc291906115ad565b8284610cce919061138e565b610cd891906115e1565b8284610ce491906115e1565b610cee919061146b565b905092915050565b600080610d0283610d32565b9050828182610d119190611553565b14610d2857600181610d23919061146b565b610d2a565b805b915050919050565b6000806001600284610d4491906115e1565b610d4e919061146b565b9050600060028285610d6091906115e1565b83610d6b919061146b565b610d7591906115e1565b90505b80821115610dad5780915060028285610d9191906115e1565b83610d9c919061146b565b610da691906115e1565b9050610d78565b8192505050919050565b6040518060a0016040528060608152602001600081526020016000815260200160008152602001600081525090565b828054610df2906112eb565b90600052602060002090601f016020900481019282610e145760008555610e5b565b82601f10610e2d57805160ff1916838001178555610e5b565b82800160010185558215610e5b579182015b82811115610e5a578251825591602001919060010190610e3f565b5b509050610e689190610e6c565b5090565b5b80821115610e85576000816000905550600101610e6d565b5090565b6000604051905090565b600080fd5b600080fd5b6000819050919050565b610eb081610e9d565b8114610ebb57600080fd5b50565b600081359050610ecd81610ea7565b92915050565b600060208284031215610ee957610ee8610e93565b5b6000610ef784828501610ebe565b91505092915050565b600081519050919050565b600082825260208201905092915050565b60005b83811015610f3a578082015181840152602081019050610f1f565b83811115610f49576000848401525b50505050565b6000601f19601f8301169050919050565b6000610f6b82610f00565b610f758185610f0b565b9350610f85818560208601610f1c565b610f8e81610f4f565b840191505092915050565b610fa281610e9d565b82525050565b600060a0820190508181036000830152610fc28188610f60565b9050610fd16020830187610f99565b610fde6040830186610f99565b610feb6060830185610f99565b610ff86080830184610f99565b9695505050505050565b60006020820190506110176000830184610f99565b92915050565b600080fd5b600080fd5b7f4e487b7100000000000000000000000000000000000000000000000000000000600052604160045260246000fd5b61105f82610f4f565b810181811067ffffffffffffffff8211171561107e5761107d611027565b5b80604052505050565b6000611091610e89565b905061109d8282611056565b919050565b600067ffffffffffffffff8211156110bd576110bc611027565b5b6110c682610f4f565b9050602081019050919050565b82818337600083830152505050565b60006110f56110f0846110a2565b611087565b90508281526020810184848401111561111157611110611022565b5b61111c8482856110d3565b509392505050565b600082601f8301126111395761113861101d565b5b81356111498482602086016110e2565b91505092915050565b600080600080600060a0868803121561116e5761116d610e93565b5b600086013567ffffffffffffffff81111561118c5761118b610e98565b5b61119888828901611124565b95505060206111a988828901610ebe565b94505060406111ba88828901610ebe565b93505060606111cb88828901610ebe565b92505060806111dc88828901610ebe565b9150509295509295909350565b600060208201905081810360008301526112038184610f60565b905092915050565b600073ffffffffffffffffffffffffffffffffffffffff82169050919050565b60006112368261120b565b9050919050565b6112468161122b565b811461125157600080fd5b50565b6000813590506112638161123d565b92915050565b60008060006060848603121561128257611281610e93565b5b600061129086828701610ebe565b93505060206112a186828701611254565b92505060406112b286828701610ebe565b9150509250925092565b7f4e487b7100000000000000000000000000000000000000000000000000000000600052602260045260246000fd5b6000600282049050600182168061130357607f821691505b60208210811415611317576113166112bc565b5b50919050565b60008151905061132c81610ea7565b92915050565b60006020828403121561134857611347610e93565b5b60006113568482850161131d565b91505092915050565b7f4e487b7100000000000000000000000000000000000000000000000000000000600052601260045260246000fd5b600061139982610e9d565b91506113a483610e9d565b9250826113b4576113b361135f565b5b828206905092915050565b600082825260208201905092915050565b7f4f776e65727368697020746f6b656e4944207265717569726564000000000000600082015250565b6000611406601a836113bf565b9150611411826113d0565b602082019050919050565b60006020820190508181036000830152611435816113f9565b9050919050565b7f4e487b7100000000000000000000000000000000000000000000000000000000600052601160045260246000fd5b600061147682610e9d565b915061148183610e9d565b9250827fffffffffffffffffffffffffffffffffffffffffffffffffffffffffffffffff038211156114b6576114b561143c565b5b828201905092915050565b7f42656c6f7720746865206d696e696d756d2076616c756520666f72207468652060008201527f70756c6c20726571756573740000000000000000000000000000000000000000602082015250565b600061151d602c836113bf565b9150611528826114c1565b604082019050919050565b6000602082019050818103600083015261154c81611510565b9050919050565b600061155e82610e9d565b915061156983610e9d565b9250817fffffffffffffffffffffffffffffffffffffffffffffffffffffffffffffffff04831182151516156115a2576115a161143c565b5b828202905092915050565b60006115b882610e9d565b91506115c383610e9d565b9250828210156115d6576115d561143c565b5b828203905092915050565b60006115ec82610e9d565b91506115f783610e9d565b9250826116075761160661135f565b5b828204905092915050565b7f4e6f206d6f726520746f6b656e7320666f722073616c652c20636865636b206260008201527f61636b206c617465722100000000000000000000000000000000000000000000602082015250565b600061166e602a836113bf565b915061167982611612565b604082019050919050565b6000602082019050818103600083015261169d81611661565b9050919050565b6116ad8161122b565b82525050565b60008190508160005260206000209050919050565b600081546116d5816112eb565b6116df8186610f0b565b945060018216600081146116fa576001811461170c5761173f565b60ff198316865260208601935061173f565b611715856116b3565b60005b8381101561173757815481890152600182019150602081019050611718565b808801955050505b50505092915050565b600060808201905061175d60008301876116a4565b61176a6020830186610f99565b6117776040830185610f99565b818103606083015261178981846116c8565b90509594505050505056fea26469706673582212202d68a09189a1399cf90a504a67279afd5e1f26c59b2b61e55b2d7b1828053a1664736f6c6343000809003360a060405234801561001057600080fd5b5061002d61002261007960201b60201c565b61008160201b60201c565b6002600381905550600180819055506001600281905550662386f26fc1000060048190555067016345785d8a000060058190555062989680600681905550601460808181525050610145565b600033905090565b60008060009054906101000a900473ffffffffffffffffffffffffffffffffffffffff169050816000806101000a81548173ffffffffffffffffffffffffffffffffffffffff021916908373ffffffffffffffffffffffffffffffffffffffff1602179055508173ffffffffffffffffffffffffffffffffffffffff168173ffffffffffffffffffffffffffffffffffffffff167f8be0079c531659141344cd1fd0a4f28419497f9722a3daafe3b4186f6b6457e060405160405180910390a35050565b608051610b9c610160600039600061066d0152610b9c6000f3fe608060405234801561001057600080fd5b50600436106100f55760003560e01c8063715018a6116100975780639117bd09116100665780639117bd0914610228578063a47954bb14610246578063ebbd051714610264578063f2fde38b14610280576100f5565b8063715018a6146101c85780637184302f146101d25780637275ee9b146101ee5780638da5cb5b1461020a576100f5565b80633230d549116100d35780633230d549146101545780633a8cdb651461017257806340140c481461018e57806351e75a8b146101aa576100f5565b806315d5f7e9146100fa57806321a455c4146101185780632f42091914610136575b600080fd5b61010261029c565b60405161010f9190610929565b60405180910390f35b6101206102a2565b60405161012d9190610929565b60405180910390f35b61013e6102a8565b60405161014b9190610929565b60405180910390f35b61015c6102ae565b6040516101699190610929565b60405180910390f35b61018c60048036038101906101879190610975565b6102b4565b005b6101a860048036038101906101a39190610975565b610371565b005b6101b2610430565b6040516101bf9190610929565b60405180910390f35b6101d0610436565b005b6101ec60048036038101906101e79190610975565b6104be565b005b61020860048036038101906102039190610975565b61057d565b005b61021261063c565b60405161021f91906109e3565b60405180910390f35b610230610665565b60405161023d9190610929565b60405180910390f35b61024e61066b565b60405161025b9190610929565b60405180910390f35b61027e60048036038101906102799190610975565b61068f565b005b61029a60048036038101906102959190610a2a565b61074c565b005b60025481565b60035481565b60065481565b60045481565b6102bc610844565b73ffffffffffffffffffffffffffffffffffffffff166102da61063c565b73ffffffffffffffffffffffffffffffffffffffff1614610330576040517f08c379a000000000000000000000000000000000000000000000000000000000815260040161032790610ab4565b60405180910390fd5b806002819055507f80b0f055593848ff65135150efc98d3945c2f2a132eb9e4b7a81696a72cd0001816040516103669190610929565b60405180910390a150565b610379610844565b73ffffffffffffffffffffffffffffffffffffffff1661039761063c565b73ffffffffffffffffffffffffffffffffffffffff16146103ed576040517f08c379a00000000000000000000000000000000000000000000000000000000081526004016103e490610ab4565b60405180910390fd5b806005819055507fc907b159b3ab953a9e54ac7bd5dce2bf6745664a92ac1ca0d21dda07ce052e2a6005546040516104259190610929565b60405180910390a150565b60055481565b61043e610844565b73ffffffffffffffffffffffffffffffffffffffff1661045c61063c565b73ffffffffffffffffffffffffffffffffffffffff16146104b2576040517f08c379a00000000000000000000000000000000000000000000000000000000081526004016104a990610ab4565b60405180910390fd5b6104bc600061084c565b565b6104c6610844565b73ffffffffffffffffffffffffffffffffffffffff166104e461063c565b73ffffffffffffffffffffffffffffffffffffffff161461053a576040517f08c379a000000000000000000000000000000000000000000000000000000000815260040161053190610ab4565b60405180910390fd5b806004819055507f8de4e09146330265d90dc43c484b706c38da69d576ee558a530dc144a3eb4bc76004546040516105729190610929565b60405180910390a150565b610585610844565b73ffffffffffffffffffffffffffffffffffffffff166105a361063c565b73ffffffffffffffffffffffffffffffffffffffff16146105f9576040517f08c379a00000000000000000000000000000000000000000000000000000000081526004016105f090610ab4565b60405180910390fd5b806006819055507f2452fcc6b5b09a25f18d7a95a3968c84a78d98aa87f7dc49fe76c83a36ab69fa6006546040516106319190610929565b60405180910390a150565b60008060009054906101000a900473ffffffffffffffffffffffffffffffffffffffff16905090565b60015481565b7f000000000000000000000000000000000000000000000000000000000000000081565b610697610844565b73ffffffffffffffffffffffffffffffffffffffff166106b561063c565b73ffffffffffffffffffffffffffffffffffffffff161461070b576040517f08c379a000000000000000000000000000000000000000000000000000000000815260040161070290610ab4565b60405180910390fd5b806001819055507fa1f814123f839834f7de198e1a5ec961e26474d2cb72b82cdf94309e59905dc8816040516107419190610929565b60405180910390a150565b610754610844565b73ffffffffffffffffffffffffffffffffffffffff1661077261063c565b73ffffffffffffffffffffffffffffffffffffffff16146107c8576040517f08c379a00000000000000000000000000000000000000000000000000000000081526004016107bf90610ab4565b60405180910390fd5b600073ffffffffffffffffffffffffffffffffffffffff168173ffffffffffffffffffffffffffffffffffffffff161415610838576040517f08c379a000000000000000000000000000000000000000000000000000000000815260040161082f90610b46565b60405180910390fd5b6108418161084c565b50565b600033905090565b60008060009054906101000a900473ffffffffffffffffffffffffffffffffffffffff169050816000806101000a81548173ffffffffffffffffffffffffffffffffffffffff021916908373ffffffffffffffffffffffffffffffffffffffff1602179055508173ffffffffffffffffffffffffffffffffffffffff168173ffffffffffffffffffffffffffffffffffffffff167f8be0079c531659141344cd1fd0a4f28419497f9722a3daafe3b4186f6b6457e060405160405180910390a35050565b6000819050919050565b61092381610910565b82525050565b600060208201905061093e600083018461091a565b92915050565b600080fd5b61095281610910565b811461095d57600080fd5b50565b60008135905061096f81610949565b92915050565b60006020828403121561098b5761098a610944565b5b600061099984828501610960565b91505092915050565b600073ffffffffffffffffffffffffffffffffffffffff82169050919050565b60006109cd826109a2565b9050919050565b6109dd816109c2565b82525050565b60006020820190506109f860008301846109d4565b92915050565b610a07816109c2565b8114610a1257600080fd5b50565b600081359050610a24816109fe565b92915050565b600060208284031215610a4057610a3f610944565b5b6000610a4e84828501610a15565b91505092915050565b600082825260208201905092915050565b7f4f776e61626c653a2063616c6c6572206973206e6f7420746865206f776e6572600082015250565b6000610a9e602083610a57565b9150610aa982610a68565b602082019050919050565b60006020820190508181036000830152610acd81610a91565b9050919050565b7f4f776e61626c653a206e6577206f776e657220697320746865207a65726f206160008201527f6464726573730000000000000000000000000000000000000000000000000000602082015250565b6000610b30602683610a57565b9150610b3b82610ad4565b604082019050919050565b60006020820190508181036000830152610b5f81610b23565b905091905056fea264697066735822122031a70788a51dd23d0aa605eaf215f9a05a2e1ea87048391d1d4258ba3c77948464736f6c63430008090033",
  "linkReferences": {},
  "deployedLinkReferences": {}
}