{
  "_format": "hh-sol-artifact-1",
  "contractName": "PullRequests",
  "sourceName": "contracts/PullRequests.sol",
  "abi": [
    {
      "anonymous": false,
      "inputs": [
        {
          "indexed": true,
          "internalType": "address",
          "name": "previousOwner",
          "type": "address"
        },
        {
          "indexed": true,
          "internalType": "address",
          "name": "newOwner",
          "type": "address"
        }
      ],
      "name": "OwnershipTransferred",
      "type": "event"
    },
    {
      "inputs": [
        {
          "internalType": "uint256",
          "name": "",
          "type": "uint256"
        },
        {
          "internalType": "uint256",
          "name": "",
          "type": "uint256"
        }
      ],
      "name": "PRauthors",
      "outputs": [
        {
          "internalType": "address",
          "name": "",
          "type": "address"
        }
      ],
      "stateMutability": "view",
      "type": "function"
    },
    {
      "inputs": [
        {
          "internalType": "uint256",
          "name": "",
          "type": "uint256"
        },
        {
          "internalType": "address",
          "name": "",
          "type": "address"
        }
      ],
      "name": "PRexists",
      "outputs": [
        {
          "internalType": "bool",
          "name": "",
          "type": "bool"
        }
      ],
      "stateMutability": "view",
      "type": "function"
    },
    {
      "inputs": [
        {
          "internalType": "uint256",
          "name": "",
          "type": "uint256"
        },
        {
          "internalType": "address",
          "name": "",
          "type": "address"
        }
      ],
      "name": "PRs",
      "outputs": [
        {
          "internalType": "bytes",
          "name": "content",
          "type": "bytes"
        },
        {
          "internalType": "uint256",
          "name": "blockTimestamp",
          "type": "uint256"
        },
        {
          "internalType": "uint256",
          "name": "positiveVotes",
          "type": "uint256"
        },
        {
          "internalType": "uint256",
          "name": "negativeVotes",
          "type": "uint256"
        },
        {
          "internalType": "uint256",
          "name": "totalVotes",
          "type": "uint256"
        },
        {
          "internalType": "uint256",
          "name": "PRPrice",
          "type": "uint256"
        }
      ],
      "stateMutability": "view",
      "type": "function"
    },
    {
      "inputs": [
        {
          "internalType": "uint256",
          "name": "tokenId",
          "type": "uint256"
        }
      ],
      "name": "clearPRs",
      "outputs": [],
      "stateMutability": "nonpayable",
      "type": "function"
    },
    {
      "inputs": [
        {
          "internalType": "uint256",
          "name": "_tokenId",
          "type": "uint256"
        }
      ],
      "name": "determineWinner",
      "outputs": [
        {
          "internalType": "address",
          "name": "",
          "type": "address"
        }
      ],
      "stateMutability": "view",
      "type": "function"
    },
    {
      "inputs": [
        {
          "internalType": "address",
          "name": "_PRowner",
          "type": "address"
        },
        {
          "internalType": "uint256",
          "name": "tokenID",
          "type": "uint256"
        }
      ],
      "name": "getContent",
      "outputs": [
        {
          "internalType": "bytes",
          "name": "",
          "type": "bytes"
        }
      ],
      "stateMutability": "view",
      "type": "function"
    },
    {
      "inputs": [
        {
          "internalType": "address",
          "name": "_PRowner",
          "type": "address"
        },
        {
          "internalType": "uint256",
          "name": "tokenID",
          "type": "uint256"
        }
      ],
      "name": "getPRexists",
      "outputs": [
        {
          "internalType": "bool",
          "name": "",
          "type": "bool"
        }
      ],
      "stateMutability": "view",
      "type": "function"
    },
    {
      "inputs": [
        {
          "internalType": "address",
          "name": "_PRowner",
          "type": "address"
        },
        {
          "internalType": "uint256",
          "name": "tokenID",
          "type": "uint256"
        }
      ],
      "name": "getPrice",
      "outputs": [
        {
          "internalType": "uint256",
          "name": "",
          "type": "uint256"
        }
      ],
      "stateMutability": "view",
      "type": "function"
    },
    {
      "inputs": [],
      "name": "owner",
      "outputs": [
        {
          "internalType": "address",
          "name": "",
          "type": "address"
        }
      ],
      "stateMutability": "view",
      "type": "function"
    },
    {
      "inputs": [],
      "name": "renounceOwnership",
      "outputs": [],
      "stateMutability": "nonpayable",
      "type": "function"
    },
    {
      "inputs": [
        {
          "internalType": "bytes",
          "name": "_PRtext",
          "type": "bytes"
        },
        {
          "internalType": "uint256",
          "name": "tokenID",
          "type": "uint256"
        },
        {
          "internalType": "address",
          "name": "caller",
          "type": "address"
        },
        {
          "internalType": "uint256",
          "name": "value",
          "type": "uint256"
        }
      ],
      "name": "submitPR",
      "outputs": [],
      "stateMutability": "payable",
      "type": "function"
    },
    {
      "inputs": [
        {
          "internalType": "uint256",
          "name": "_tokenId",
          "type": "uint256"
        }
      ],
      "name": "tallyVotes",
      "outputs": [],
      "stateMutability": "nonpayable",
      "type": "function"
    },
    {
      "inputs": [
        {
          "internalType": "address",
          "name": "newOwner",
          "type": "address"
        }
      ],
      "name": "transferOwnership",
      "outputs": [],
      "stateMutability": "nonpayable",
      "type": "function"
    },
    {
      "inputs": [
        {
          "internalType": "address",
          "name": "_PRowner",
          "type": "address"
        },
        {
          "internalType": "uint256",
          "name": "_numVotes",
          "type": "uint256"
        },
        {
          "internalType": "bool",
          "name": "positive",
          "type": "bool"
        },
        {
          "internalType": "uint256",
          "name": "tokenID",
          "type": "uint256"
        }
      ],
      "name": "votePR",
      "outputs": [],
      "stateMutability": "nonpayable",
      "type": "function"
    }
  ],
  "bytecode": "0x608060405234801561001057600080fd5b5061002d61002261003260201b60201c565b61003a60201b60201c565b6100fe565b600033905090565b60008060009054906101000a900473ffffffffffffffffffffffffffffffffffffffff169050816000806101000a81548173ffffffffffffffffffffffffffffffffffffffff021916908373ffffffffffffffffffffffffffffffffffffffff1602179055508173ffffffffffffffffffffffffffffffffffffffff168173ffffffffffffffffffffffffffffffffffffffff167f8be0079c531659141344cd1fd0a4f28419497f9722a3daafe3b4186f6b6457e060405160405180910390a35050565b61206b806200010e6000396000f3fe6080604052600436106100dd5760003560e01c8063712023ed1161007f57806387bd45201161005957806387bd4520146102da5780638da5cb5b14610303578063efe433381461032e578063f2fde38b1461036b576100dd565b8063712023ed14610249578063715018a614610286578063761072e11461029d576100dd565b80634dfb83ca116100bb5780634dfb83ca146101715780635d6b494b146101b357806362a4321c146101f05780636f1ea8041461022d576100dd565b8063182983a2146100e2578063449e815d1461010b5780634d318b0e14610148575b600080fd5b3480156100ee57600080fd5b506101096004803603810190610104919061184e565b610394565b005b34801561011757600080fd5b50610132600480360381019061012d91906118b5565b61054a565b60405161013f9190611904565b60405180910390f35b34801561015457600080fd5b5061016f600480360381019061016a919061191f565b6105a8565b005b34801561017d57600080fd5b506101986004803603810190610193919061194c565b6108c7565b6040516101aa96959493929190611a25565b60405180910390f35b3480156101bf57600080fd5b506101da60048036038101906101d59190611a8d565b610998565b6040516101e79190611adc565b60405180910390f35b3480156101fc57600080fd5b50610217600480360381019061021291906118b5565b6109e6565b6040516102249190611af7565b60405180910390f35b61024760048036038101906102429190611c4e565b610acc565b005b34801561025557600080fd5b50610270600480360381019061026b91906118b5565b610cfd565b60405161027d9190611ce0565b60405180910390f35b34801561029257600080fd5b5061029b610d65565b005b3480156102a957600080fd5b506102c460048036038101906102bf919061194c565b610ded565b6040516102d19190611ce0565b60405180910390f35b3480156102e657600080fd5b5061030160048036038101906102fc919061191f565b610e1c565b005b34801561030f57600080fd5b50610318611059565b6040516103259190611adc565b60405180910390f35b34801561033a57600080fd5b506103556004803603810190610350919061191f565b611082565b6040516103629190611adc565b60405180910390f35b34801561037757600080fd5b50610392600480360381019061038d9190611cfb565b61148d565b005b61039c611585565b73ffffffffffffffffffffffffffffffffffffffff166103ba611059565b73ffffffffffffffffffffffffffffffffffffffff1614610410576040517f08c379a000000000000000000000000000000000000000000000000000000000815260040161040790611d85565b60405180910390fd5b6002600082815260200190815260200160002060008573ffffffffffffffffffffffffffffffffffffffff1673ffffffffffffffffffffffffffffffffffffffff16815260200190815260200160002060009054906101000a900460ff166104ad576040517f08c379a00000000000000000000000000000000000000000000000000000000081526004016104a490611df1565b60405180910390fd5b60006001600083815260200190815260200160002060008673ffffffffffffffffffffffffffffffffffffffff1673ffffffffffffffffffffffffffffffffffffffff16815260200190815260200160002090508215610527578381600201600082825461051b9190611e40565b92505081905550610543565b8381600301600082825461053b9190611e40565b925050819055505b5050505050565b60006001600083815260200190815260200160002060008473ffffffffffffffffffffffffffffffffffffffff1673ffffffffffffffffffffffffffffffffffffffff16815260200190815260200160002060050154905092915050565b6105b0611585565b73ffffffffffffffffffffffffffffffffffffffff166105ce611059565b73ffffffffffffffffffffffffffffffffffffffff1614610624576040517f08c379a000000000000000000000000000000000000000000000000000000000815260040161061b90611d85565b60405180910390fd5b6000600360008381526020019081526020016000208054806020026020016040519081016040528092919081815260200182805480156106b957602002820191906000526020600020905b8160009054906101000a900473ffffffffffffffffffffffffffffffffffffffff1673ffffffffffffffffffffffffffffffffffffffff168152602001906001019080831161066f575b5050505050905060005b81518110156108c25760006001600085815260200190815260200160002060008484815181106106f6576106f5611e96565b5b602002602001015173ffffffffffffffffffffffffffffffffffffffff1673ffffffffffffffffffffffffffffffffffffffff1681526020019081526020016000206040518060c001604052908160008201805461075390611ef4565b80601f016020809104026020016040519081016040528092919081815260200182805461077f90611ef4565b80156107cc5780601f106107a1576101008083540402835291602001916107cc565b820191906000526020600020905b8154815290600101906020018083116107af57829003601f168201915b505050505081526020016001820154815260200160028201548152602001600382015481526020016004820154815260200160058201548152505090506000816060015182604001511115610836578160600151826040015161082f9190611f26565b905061083b565b600090505b8060016000878152602001908152602001600020600086868151811061086457610863611e96565b5b602002602001015173ffffffffffffffffffffffffffffffffffffffff1673ffffffffffffffffffffffffffffffffffffffff16815260200190815260200160002060040181905550505080806108ba90611f5a565b9150506106c3565b505050565b6001602052816000526040600020602052806000526040600020600091509150508060000180546108f790611ef4565b80601f016020809104026020016040519081016040528092919081815260200182805461092390611ef4565b80156109705780601f1061094557610100808354040283529160200191610970565b820191906000526020600020905b81548152906001019060200180831161095357829003601f168201915b5050505050908060010154908060020154908060030154908060040154908060050154905086565b600360205281600052604060002081815481106109b457600080fd5b906000526020600020016000915091509054906101000a900473ffffffffffffffffffffffffffffffffffffffff1681565b60606001600083815260200190815260200160002060008473ffffffffffffffffffffffffffffffffffffffff1673ffffffffffffffffffffffffffffffffffffffff1681526020019081526020016000206000018054610a4690611ef4565b80601f0160208091040260200160405190810160405280929190818152602001828054610a7290611ef4565b8015610abf5780601f10610a9457610100808354040283529160200191610abf565b820191906000526020600020905b815481529060010190602001808311610aa257829003601f168201915b5050505050905092915050565b610ad4611585565b73ffffffffffffffffffffffffffffffffffffffff16610af2611059565b73ffffffffffffffffffffffffffffffffffffffff1614610b48576040517f08c379a0000000000000000000000000000000000000000000000000000000008152600401610b3f90611d85565b60405180910390fd5b60036000848152602001908152602001600020829080600181540180825580915050600190039060005260206000200160009091909190916101000a81548173ffffffffffffffffffffffffffffffffffffffff021916908373ffffffffffffffffffffffffffffffffffffffff1602179055506040518060c00160405280858152602001428152602001600081526020016000815260200160008152602001828152506001600085815260200190815260200160002060008473ffffffffffffffffffffffffffffffffffffffff1673ffffffffffffffffffffffffffffffffffffffff1681526020019081526020016000206000820151816000019080519060200190610c58929190611651565b506020820151816001015560408201518160020155606082015181600301556080820151816004015560a0820151816005015590505060016002600085815260200190815260200160002060008473ffffffffffffffffffffffffffffffffffffffff1673ffffffffffffffffffffffffffffffffffffffff16815260200190815260200160002060006101000a81548160ff02191690831515021790555050505050565b60006002600083815260200190815260200160002060008473ffffffffffffffffffffffffffffffffffffffff1673ffffffffffffffffffffffffffffffffffffffff16815260200190815260200160002060009054906101000a900460ff16905092915050565b610d6d611585565b73ffffffffffffffffffffffffffffffffffffffff16610d8b611059565b73ffffffffffffffffffffffffffffffffffffffff1614610de1576040517f08c379a0000000000000000000000000000000000000000000000000000000008152600401610dd890611d85565b60405180910390fd5b610deb600061158d565b565b60026020528160005260406000206020528060005260406000206000915091509054906101000a900460ff1681565b610e24611585565b73ffffffffffffffffffffffffffffffffffffffff16610e42611059565b73ffffffffffffffffffffffffffffffffffffffff1614610e98576040517f08c379a0000000000000000000000000000000000000000000000000000000008152600401610e8f90611d85565b60405180910390fd5b60005b6003600083815260200190815260200160002080549050811015611036576000600360008481526020019081526020016000208281548110610ee057610edf611e96565b5b9060005260206000200160009054906101000a900473ffffffffffffffffffffffffffffffffffffffff169050610f156116d7565b806001600086815260200190815260200160002060008473ffffffffffffffffffffffffffffffffffffffff1673ffffffffffffffffffffffffffffffffffffffff1681526020019081526020016000206000820151816000019080519060200190610f82929190611651565b506020820151816001015560408201518160020155606082015181600301556080820151816004015560a0820151816005015590505060006002600086815260200190815260200160002060008473ffffffffffffffffffffffffffffffffffffffff1673ffffffffffffffffffffffffffffffffffffffff16815260200190815260200160002060006101000a81548160ff0219169083151502179055505050808061102e90611f5a565b915050610e9b565b50600360008281526020019081526020016000206000611056919061170d565b50565b60008060009054906101000a900473ffffffffffffffffffffffffffffffffffffffff16905090565b600061108c611585565b73ffffffffffffffffffffffffffffffffffffffff166110aa611059565b73ffffffffffffffffffffffffffffffffffffffff1614611100576040517f08c379a00000000000000000000000000000000000000000000000000000000081526004016110f790611d85565b60405180910390fd5b6000806003600085815260200190815260200160002080548060200260200160405190810160405280929190818152602001828054801561119657602002820191906000526020600020905b8160009054906101000a900473ffffffffffffffffffffffffffffffffffffffff1673ffffffffffffffffffffffffffffffffffffffff168152602001906001019080831161114c575b5050505050905060005b81518110156112cd5760008114156111d4578181815181106111c5576111c4611e96565b5b602002602001015192506112ba565b6001600086815260200190815260200160002060008473ffffffffffffffffffffffffffffffffffffffff1673ffffffffffffffffffffffffffffffffffffffff168152602001908152602001600020600401546001600087815260200190815260200160002060008484815181106112505761124f611e96565b5b602002602001015173ffffffffffffffffffffffffffffffffffffffff1673ffffffffffffffffffffffffffffffffffffffff16815260200190815260200160002060040154106112b9578181815181106112ae576112ad611e96565b5b602002602001015192505b5b80806112c590611f5a565b9150506111a0565b506112d661172e565b60006001600087815260200190815260200160002060008573ffffffffffffffffffffffffffffffffffffffff1673ffffffffffffffffffffffffffffffffffffffff1681526020019081526020016000206004015490506000805b84518110156114375782600160008a8152602001908152602001600020600087848151811061136457611363611e96565b5b602002602001015173ffffffffffffffffffffffffffffffffffffffff1673ffffffffffffffffffffffffffffffffffffffff168152602001908152602001600020600401541415611424578481815181106113c3576113c2611e96565b5b60200260200101518483606481106113de576113dd611e96565b5b602002019073ffffffffffffffffffffffffffffffffffffffff16908173ffffffffffffffffffffffffffffffffffffffff1681525050818061142090611f5a565b9250505b808061142f90611f5a565b915050611332565b50600082111561147e5760018114611471578260006064811061145d5761145c611e96565b5b602002015194508495505050505050611488565b8495505050505050611488565b6000955050505050505b919050565b611495611585565b73ffffffffffffffffffffffffffffffffffffffff166114b3611059565b73ffffffffffffffffffffffffffffffffffffffff1614611509576040517f08c379a000000000000000000000000000000000000000000000000000000000815260040161150090611d85565b60405180910390fd5b600073ffffffffffffffffffffffffffffffffffffffff168173ffffffffffffffffffffffffffffffffffffffff161415611579576040517f08c379a000000000000000000000000000000000000000000000000000000000815260040161157090612015565b60405180910390fd5b6115828161158d565b50565b600033905090565b60008060009054906101000a900473ffffffffffffffffffffffffffffffffffffffff169050816000806101000a81548173ffffffffffffffffffffffffffffffffffffffff021916908373ffffffffffffffffffffffffffffffffffffffff1602179055508173ffffffffffffffffffffffffffffffffffffffff168173ffffffffffffffffffffffffffffffffffffffff167f8be0079c531659141344cd1fd0a4f28419497f9722a3daafe3b4186f6b6457e060405160405180910390a35050565b82805461165d90611ef4565b90600052602060002090601f01602090048101928261167f57600085556116c6565b82601f1061169857805160ff19168380011785556116c6565b828001600101855582156116c6579182015b828111156116c55782518255916020019190600101906116aa565b5b5090506116d39190611751565b5090565b6040518060c001604052806060815260200160008152602001600081526020016000815260200160008152602001600081525090565b508054600082559060005260206000209081019061172b9190611751565b50565b60405180610c800160405280606490602082028036833780820191505090505090565b5b8082111561176a576000816000905550600101611752565b5090565b6000604051905090565b600080fd5b600080fd5b600073ffffffffffffffffffffffffffffffffffffffff82169050919050565b60006117ad82611782565b9050919050565b6117bd816117a2565b81146117c857600080fd5b50565b6000813590506117da816117b4565b92915050565b6000819050919050565b6117f3816117e0565b81146117fe57600080fd5b50565b600081359050611810816117ea565b92915050565b60008115159050919050565b61182b81611816565b811461183657600080fd5b50565b60008135905061184881611822565b92915050565b6000806000806080858703121561186857611867611778565b5b6000611876878288016117cb565b945050602061188787828801611801565b935050604061189887828801611839565b92505060606118a987828801611801565b91505092959194509250565b600080604083850312156118cc576118cb611778565b5b60006118da858286016117cb565b92505060206118eb85828601611801565b9150509250929050565b6118fe816117e0565b82525050565b600060208201905061191960008301846118f5565b92915050565b60006020828403121561193557611934611778565b5b600061194384828501611801565b91505092915050565b6000806040838503121561196357611962611778565b5b600061197185828601611801565b9250506020611982858286016117cb565b9150509250929050565b600081519050919050565b600082825260208201905092915050565b60005b838110156119c65780820151818401526020810190506119ab565b838111156119d5576000848401525b50505050565b6000601f19601f8301169050919050565b60006119f78261198c565b611a018185611997565b9350611a118185602086016119a8565b611a1a816119db565b840191505092915050565b600060c0820190508181036000830152611a3f81896119ec565b9050611a4e60208301886118f5565b611a5b60408301876118f5565b611a6860608301866118f5565b611a7560808301856118f5565b611a8260a08301846118f5565b979650505050505050565b60008060408385031215611aa457611aa3611778565b5b6000611ab285828601611801565b9250506020611ac385828601611801565b9150509250929050565b611ad6816117a2565b82525050565b6000602082019050611af16000830184611acd565b92915050565b60006020820190508181036000830152611b1181846119ec565b905092915050565b600080fd5b600080fd5b7f4e487b7100000000000000000000000000000000000000000000000000000000600052604160045260246000fd5b611b5b826119db565b810181811067ffffffffffffffff82111715611b7a57611b79611b23565b5b80604052505050565b6000611b8d61176e565b9050611b998282611b52565b919050565b600067ffffffffffffffff821115611bb957611bb8611b23565b5b611bc2826119db565b9050602081019050919050565b82818337600083830152505050565b6000611bf1611bec84611b9e565b611b83565b905082815260208101848484011115611c0d57611c0c611b1e565b5b611c18848285611bcf565b509392505050565b600082601f830112611c3557611c34611b19565b5b8135611c45848260208601611bde565b91505092915050565b60008060008060808587031215611c6857611c67611778565b5b600085013567ffffffffffffffff811115611c8657611c8561177d565b5b611c9287828801611c20565b9450506020611ca387828801611801565b9350506040611cb4878288016117cb565b9250506060611cc587828801611801565b91505092959194509250565b611cda81611816565b82525050565b6000602082019050611cf56000830184611cd1565b92915050565b600060208284031215611d1157611d10611778565b5b6000611d1f848285016117cb565b91505092915050565b600082825260208201905092915050565b7f4f776e61626c653a2063616c6c6572206973206e6f7420746865206f776e6572600082015250565b6000611d6f602083611d28565b9150611d7a82611d39565b602082019050919050565b60006020820190508181036000830152611d9e81611d62565b9050919050565b7f505220646f6573206e6f74206578697374000000000000000000000000000000600082015250565b6000611ddb601183611d28565b9150611de682611da5565b602082019050919050565b60006020820190508181036000830152611e0a81611dce565b9050919050565b7f4e487b7100000000000000000000000000000000000000000000000000000000600052601160045260246000fd5b6000611e4b826117e0565b9150611e56836117e0565b9250827fffffffffffffffffffffffffffffffffffffffffffffffffffffffffffffffff03821115611e8b57611e8a611e11565b5b828201905092915050565b7f4e487b7100000000000000000000000000000000000000000000000000000000600052603260045260246000fd5b7f4e487b7100000000000000000000000000000000000000000000000000000000600052602260045260246000fd5b60006002820490506001821680611f0c57607f821691505b60208210811415611f2057611f1f611ec5565b5b50919050565b6000611f31826117e0565b9150611f3c836117e0565b925082821015611f4f57611f4e611e11565b5b828203905092915050565b6000611f65826117e0565b91507fffffffffffffffffffffffffffffffffffffffffffffffffffffffffffffffff821415611f9857611f97611e11565b5b600182019050919050565b7f4f776e61626c653a206e6577206f776e657220697320746865207a65726f206160008201527f6464726573730000000000000000000000000000000000000000000000000000602082015250565b6000611fff602683611d28565b915061200a82611fa3565b604082019050919050565b6000602082019050818103600083015261202e81611ff2565b905091905056fea2646970667358221220586410c8f969e5e544466581401df621c723e4c50965302ff740dcd17477c48064736f6c63430008090033",
  "linkReferences": {},
  "deployedLinkReferences": {}
}