{
  "_format": "hh-sol-artifact-1",
  "contractName": "SampleContract",
  "sourceName": "contracts/SampleContract.sol",
  "abi": [
    {
      "anonymous": false,
      "inputs": [
        {
          "indexed": false,
          "internalType": "string",
          "name": "message",
          "type": "string"
        }
      ],
      "name": "Greet",
      "type": "event"
    },
    {
      "inputs": [],
      "name": "greet",
      "outputs": [],
      "stateMutability": "nonpayable",
      "type": "function"
    }
  ],
  "bytecode": "0x608060405234801561001057600080fd5b50610117806100206000396000f3fe6080604052348015600f57600080fd5b506004361060285760003560e01c8063cfae321714602d575b600080fd5b60336035565b005b7fefdeaaf566f7751d16a12c7fa8909eb74120f42cba334d07dd5246c48f1fba8160405160609060c3565b60405180910390a1565b600082825260208201905092915050565b7f48656c6c6f20576f726c64210000000000000000000000000000000000000000600082015250565b600060af600c83606a565b915060b882607b565b602082019050919050565b6000602082019050818103600083015260da8160a4565b905091905056fea2646970667358221220cdf35fb26e38828fc3dc2f1be766f14ca3813067392d2aea5ce5a04105b2a9c564736f6c63430008090033",
  "linkReferences": {},
  "deployedLinkReferences": {}
}