{
  "_format": "hh-sol-artifact-1",
  "contractName": "Settings",
  "sourceName": "contracts/Settings.sol",
  "abi": [
    {
      "inputs": [],
      "stateMutability": "nonpayable",
      "type": "constructor"
    },
    {
      "anonymous": false,
      "inputs": [
        {
          "indexed": false,
          "internalType": "uint256",
          "name": "duration",
          "type": "uint256"
        }
      ],
      "name": "NewContributionDuration",
      "type": "event"
    },
    {
      "anonymous": false,
      "inputs": [
        {
          "indexed": false,
          "internalType": "uint256",
          "name": "amount",
          "type": "uint256"
        }
      ],
      "name": "NewMinimumInitialPrice",
      "type": "event"
    },
    {
      "anonymous": false,
      "inputs": [
        {
          "indexed": false,
          "internalType": "uint256",
          "name": "amount",
          "type": "uint256"
        }
      ],
      "name": "NewMinimumPRPrice",
      "type": "event"
    },
    {
      "anonymous": false,
      "inputs": [
        {
          "indexed": false,
          "internalType": "uint256",
          "name": "supply",
          "type": "uint256"
        }
      ],
      "name": "NewMinimumSupply",
      "type": "event"
    },
    {
      "anonymous": false,
      "inputs": [
        {
          "indexed": false,
          "internalType": "uint256",
          "name": "duration",
          "type": "uint256"
        }
      ],
      "name": "NewVotingDuration",
      "type": "event"
    },
    {
      "anonymous": false,
      "inputs": [
        {
          "indexed": true,
          "internalType": "address",
          "name": "previousOwner",
          "type": "address"
        },
        {
          "indexed": true,
          "internalType": "address",
          "name": "newOwner",
          "type": "address"
        }
      ],
      "name": "OwnershipTransferred",
      "type": "event"
    },
    {
      "inputs": [],
      "name": "ContributionDuration",
      "outputs": [
        {
          "internalType": "uint256",
          "name": "",
          "type": "uint256"
        }
      ],
      "stateMutability": "view",
      "type": "function"
    },
    {
      "inputs": [],
      "name": "MaxPRs",
      "outputs": [
        {
          "internalType": "uint256",
          "name": "",
          "type": "uint256"
        }
      ],
      "stateMutability": "view",
      "type": "function"
    },
    {
      "inputs": [],
      "name": "MinimumInitialPrice",
      "outputs": [
        {
          "internalType": "uint256",
          "name": "",
          "type": "uint256"
        }
      ],
      "stateMutability": "view",
      "type": "function"
    },
    {
      "inputs": [],
      "name": "MinimumInitialSupply",
      "outputs": [
        {
          "internalType": "uint256",
          "name": "",
          "type": "uint256"
        }
      ],
      "stateMutability": "view",
      "type": "function"
    },
    {
      "inputs": [],
      "name": "MinimumPRPrice",
      "outputs": [
        {
          "internalType": "uint256",
          "name": "",
          "type": "uint256"
        }
      ],
      "stateMutability": "view",
      "type": "function"
    },
    {
      "inputs": [],
      "name": "ReserveTokenSpaces",
      "outputs": [
        {
          "internalType": "uint256",
          "name": "",
          "type": "uint256"
        }
      ],
      "stateMutability": "view",
      "type": "function"
    },
    {
      "inputs": [],
      "name": "VotingDuration",
      "outputs": [
        {
          "internalType": "uint256",
          "name": "",
          "type": "uint256"
        }
      ],
      "stateMutability": "view",
      "type": "function"
    },
    {
      "inputs": [
        {
          "internalType": "uint256",
          "name": "_duration",
          "type": "uint256"
        }
      ],
      "name": "_setContributionDuration",
      "outputs": [],
      "stateMutability": "nonpayable",
      "type": "function"
    },
    {
      "inputs": [
        {
          "internalType": "uint256",
          "name": "_amount",
          "type": "uint256"
        }
      ],
      "name": "_setMinimumInitialPrice",
      "outputs": [],
      "stateMutability": "nonpayable",
      "type": "function"
    },
    {
      "inputs": [
        {
          "internalType": "uint256",
          "name": "_supply",
          "type": "uint256"
        }
      ],
      "name": "_setMinimumInitialSupply",
      "outputs": [],
      "stateMutability": "nonpayable",
      "type": "function"
    },
    {
      "inputs": [
        {
          "internalType": "uint256",
          "name": "_amount",
          "type": "uint256"
        }
      ],
      "name": "_setMinimumPRPrice",
      "outputs": [],
      "stateMutability": "nonpayable",
      "type": "function"
    },
    {
      "inputs": [
        {
          "internalType": "uint256",
          "name": "_duration",
          "type": "uint256"
        }
      ],
      "name": "_setVotingDuration",
      "outputs": [],
      "stateMutability": "nonpayable",
      "type": "function"
    },
    {
      "inputs": [],
      "name": "owner",
      "outputs": [
        {
          "internalType": "address",
          "name": "",
          "type": "address"
        }
      ],
      "stateMutability": "view",
      "type": "function"
    },
    {
      "inputs": [],
      "name": "renounceOwnership",
      "outputs": [],
      "stateMutability": "nonpayable",
      "type": "function"
    },
    {
      "inputs": [
        {
          "internalType": "address",
          "name": "newOwner",
          "type": "address"
        }
      ],
      "name": "transferOwnership",
      "outputs": [],
      "stateMutability": "nonpayable",
      "type": "function"
    }
  ],
  "bytecode": "0x60a060405234801561001057600080fd5b5061002d61002261007960201b60201c565b61008160201b60201c565b6002600381905550600180819055506001600281905550662386f26fc1000060048190555067016345785d8a000060058190555062989680600681905550601460808181525050610145565b600033905090565b60008060009054906101000a900473ffffffffffffffffffffffffffffffffffffffff169050816000806101000a81548173ffffffffffffffffffffffffffffffffffffffff021916908373ffffffffffffffffffffffffffffffffffffffff1602179055508173ffffffffffffffffffffffffffffffffffffffff168173ffffffffffffffffffffffffffffffffffffffff167f8be0079c531659141344cd1fd0a4f28419497f9722a3daafe3b4186f6b6457e060405160405180910390a35050565b608051610b9c610160600039600061066d0152610b9c6000f3fe608060405234801561001057600080fd5b50600436106100f55760003560e01c8063715018a6116100975780639117bd09116100665780639117bd0914610228578063a47954bb14610246578063ebbd051714610264578063f2fde38b14610280576100f5565b8063715018a6146101c85780637184302f146101d25780637275ee9b146101ee5780638da5cb5b1461020a576100f5565b80633230d549116100d35780633230d549146101545780633a8cdb651461017257806340140c481461018e57806351e75a8b146101aa576100f5565b806315d5f7e9146100fa57806321a455c4146101185780632f42091914610136575b600080fd5b61010261029c565b60405161010f9190610929565b60405180910390f35b6101206102a2565b60405161012d9190610929565b60405180910390f35b61013e6102a8565b60405161014b9190610929565b60405180910390f35b61015c6102ae565b6040516101699190610929565b60405180910390f35b61018c60048036038101906101879190610975565b6102b4565b005b6101a860048036038101906101a39190610975565b610371565b005b6101b2610430565b6040516101bf9190610929565b60405180910390f35b6101d0610436565b005b6101ec60048036038101906101e79190610975565b6104be565b005b61020860048036038101906102039190610975565b61057d565b005b61021261063c565b60405161021f91906109e3565b60405180910390f35b610230610665565b60405161023d9190610929565b60405180910390f35b61024e61066b565b60405161025b9190610929565b60405180910390f35b61027e60048036038101906102799190610975565b61068f565b005b61029a60048036038101906102959190610a2a565b61074c565b005b60025481565b60035481565b60065481565b60045481565b6102bc610844565b73ffffffffffffffffffffffffffffffffffffffff166102da61063c565b73ffffffffffffffffffffffffffffffffffffffff1614610330576040517f08c379a000000000000000000000000000000000000000000000000000000000815260040161032790610ab4565b60405180910390fd5b806002819055507f80b0f055593848ff65135150efc98d3945c2f2a132eb9e4b7a81696a72cd0001816040516103669190610929565b60405180910390a150565b610379610844565b73ffffffffffffffffffffffffffffffffffffffff1661039761063c565b73ffffffffffffffffffffffffffffffffffffffff16146103ed576040517f08c379a00000000000000000000000000000000000000000000000000000000081526004016103e490610ab4565b60405180910390fd5b806005819055507fc907b159b3ab953a9e54ac7bd5dce2bf6745664a92ac1ca0d21dda07ce052e2a6005546040516104259190610929565b60405180910390a150565b60055481565b61043e610844565b73ffffffffffffffffffffffffffffffffffffffff1661045c61063c565b73ffffffffffffffffffffffffffffffffffffffff16146104b2576040517f08c379a00000000000000000000000000000000000000000000000000000000081526004016104a990610ab4565b60405180910390fd5b6104bc600061084c565b565b6104c6610844565b73ffffffffffffffffffffffffffffffffffffffff166104e461063c565b73ffffffffffffffffffffffffffffffffffffffff161461053a576040517f08c379a000000000000000000000000000000000000000000000000000000000815260040161053190610ab4565b60405180910390fd5b806004819055507f8de4e09146330265d90dc43c484b706c38da69d576ee558a530dc144a3eb4bc76004546040516105729190610929565b60405180910390a150565b610585610844565b73ffffffffffffffffffffffffffffffffffffffff166105a361063c565b73ffffffffffffffffffffffffffffffffffffffff16146105f9576040517f08c379a00000000000000000000000000000000000000000000000000000000081526004016105f090610ab4565b60405180910390fd5b806006819055507f2452fcc6b5b09a25f18d7a95a3968c84a78d98aa87f7dc49fe76c83a36ab69fa6006546040516106319190610929565b60405180910390a150565b60008060009054906101000a900473ffffffffffffffffffffffffffffffffffffffff16905090565b60015481565b7f000000000000000000000000000000000000000000000000000000000000000081565b610697610844565b73ffffffffffffffffffffffffffffffffffffffff166106b561063c565b73ffffffffffffffffffffffffffffffffffffffff161461070b576040517f08c379a000000000000000000000000000000000000000000000000000000000815260040161070290610ab4565b60405180910390fd5b806001819055507fa1f814123f839834f7de198e1a5ec961e26474d2cb72b82cdf94309e59905dc8816040516107419190610929565b60405180910390a150565b610754610844565b73ffffffffffffffffffffffffffffffffffffffff1661077261063c565b73ffffffffffffffffffffffffffffffffffffffff16146107c8576040517f08c379a00000000000000000000000000000000000000000000000000000000081526004016107bf90610ab4565b60405180910390fd5b600073ffffffffffffffffffffffffffffffffffffffff168173ffffffffffffffffffffffffffffffffffffffff161415610838576040517f08c379a000000000000000000000000000000000000000000000000000000000815260040161082f90610b46565b60405180910390fd5b6108418161084c565b50565b600033905090565b60008060009054906101000a900473ffffffffffffffffffffffffffffffffffffffff169050816000806101000a81548173ffffffffffffffffffffffffffffffffffffffff021916908373ffffffffffffffffffffffffffffffffffffffff1602179055508173ffffffffffffffffffffffffffffffffffffffff168173ffffffffffffffffffffffffffffffffffffffff167f8be0079c531659141344cd1fd0a4f28419497f9722a3daafe3b4186f6b6457e060405160405180910390a35050565b6000819050919050565b61092381610910565b82525050565b600060208201905061093e600083018461091a565b92915050565b600080fd5b61095281610910565b811461095d57600080fd5b50565b60008135905061096f81610949565b92915050565b60006020828403121561098b5761098a610944565b5b600061099984828501610960565b91505092915050565b600073ffffffffffffffffffffffffffffffffffffffff82169050919050565b60006109cd826109a2565b9050919050565b6109dd816109c2565b82525050565b60006020820190506109f860008301846109d4565b92915050565b610a07816109c2565b8114610a1257600080fd5b50565b600081359050610a24816109fe565b92915050565b600060208284031215610a4057610a3f610944565b5b6000610a4e84828501610a15565b91505092915050565b600082825260208201905092915050565b7f4f776e61626c653a2063616c6c6572206973206e6f7420746865206f776e6572600082015250565b6000610a9e602083610a57565b9150610aa982610a68565b602082019050919050565b60006020820190508181036000830152610acd81610a91565b9050919050565b7f4f776e61626c653a206e6577206f776e657220697320746865207a65726f206160008201527f6464726573730000000000000000000000000000000000000000000000000000602082015250565b6000610b30602683610a57565b9150610b3b82610ad4565b604082019050919050565b60006020820190508181036000830152610b5f81610b23565b905091905056fea264697066735822122031a70788a51dd23d0aa605eaf215f9a05a2e1ea87048391d1d4258ba3c77948464736f6c63430008090033",
  "linkReferences": {},
  "deployedLinkReferences": {}
}